:020000040800F2
:104000004837002039430008414300085D53000849
:1040100045430008474300084943000800000000EA
:104020008F9E939B08999697F30000004D420008DD
:104030004D43000800000000D54200082543000859
:1040400053430008534300085343000853430008F8
:1040500053430008534300085343000853430008E8
:1040600053430008534300085343000853430008D8
:1040700053430008534300085343000853430008C8
:1040800053430008534300085343000853430008B8
:10409000D5870008534300085343000853430008E2
:1040A0005343000853430008534300085343000898
:1040B0005343000853430008534300085343000888
:1040C0005343000853430008534300085343000878
:1040D0005343000853430008395D00085343000868
:1040E0005343000853430008CD87000800F002F84E
:1040F00000F068F80AA090E8000C82448344AAF11A
:104100000107DA4501D100F05DF8AFF2090EBAE817
:104110000F0013F0010F18BFFB1A43F001031847FB
:1041200034B4000064B400000A444FF0000C10F8EE
:10413000013B13F0070408BF10F8014B1D1108BF25
:1041400010F8015B641E05D010F8016B641E01F8C5
:10415000016BF9D113F0080F1EBF10F8014BAD1C15
:104160000C1B09D16D1E58BF01F801CBFAD505E033
:1041700014F8016B01F8016B6D1EF9D59142D6D38D
:1041800070470000103A24BF78C878C1FAD85207A7
:1041900024BF30C830C144BF04680C6070470000C1
:1041A0000023002400250026103A28BF78C1FBD840
:1041B000520728BF30C148BF0B6070471FB51FBDF5
:1041C00010B510BD00F027FB1146FFF7F7FF05F013
:1041D00045FF00F045FB03B4FFF7F2FF03BC00F01E
:1041E00045FB000080F309887047EFF309807047B2
:1041F000684680F3098804480078C00714BF02208D
:10420000032080F3148870472CE20008DFF818C000
:10421000EFF305831B0618BF6047EFF31483DB073A
:1042200008BF604700DF7047F9B00008DFF818C02A
:10423000EFF305831B0618BF6047EFF31483DB071A
:1042400008BF604700DF704705B30008EFF309803F
:10425000816911F8021C39BB90E80F10E047EFF3B9
:10426000098C194B93E80600914218D059B10CB44F
:104270004FF0010381F821302CE9F00FC1F824C080
:1042800007F016FB0CBC1A60D2F824C0BCE8F00F93
:1042900092F821308CF309881BB192F82000CCF8F9
:1042A00000006FF0020E704710B5084A1268914284
:1042B00009D8074C54F8214090E80F10A047EFF3BD
:1042C000098C8CE80F0010BD140200207C48000807
:1042D0007C48000807F096F9114B93E806009142DC
:1042E0001BD00CB44FF0000381F82130EFF3098CA0
:1042F0002CE9F00FC1F824C007F0DAFA0CBC1A6000
:10430000D2F824C0BCE8F00F8CF3098892F8213071
:104310001BB192F82030CCF800306FF0020E7047DD
:104320001402002007F086FBD6E7000006F070F8C4
:1043300007F080FBD0E700000948804709480047A4
:10434000FEE7FEE7FEE7FEE7FEE7FEE7FEE7FEE745
:10435000FEE7FEE704480549054A064B70470000A2
:10436000E95C0008ED400008482D00204837002097
:10437000483200204832002000487047E42C0020DA
:1043800040EA010310B59B070FD1042A0DD310C8D2
:1043900008C9121F9C42F8D020BA19BA884201D924
:1043A000012010BD4FF0FF3010BD1AB1D30703D06C
:1043B000521C07E0002010BD10F8013B11F8014B22
:1043C0001B1B07D110F8013B11F8014B1B1B01D13E
:1043D000921EF1D1184610BD10B5431C02E010F832
:1043E000011B71B18107FAD14FF0013202C88C1A5A
:1043F0008C4314EAC211F9D0C01A0A0603D0C01EB9
:1044000010BDC01A10BD0A0401D0801E10BD0902E3
:10441000FCD0401E10BD40EA010370B59B072ED1B1
:104420004FF00136042A2AD308C810C99D1B9D43AA
:10443000121F15EAC61517D0D8B2E1B2401A50EAD9
:10444000056110D198B2A1B2401A50EA05410AD1D3
:1044500023F07F4024F07F41401A50EA052102D129
:10446000180EA0EB146070BDA342DBD018BA21BABD
:10447000884201D9012070BD4FF0FF3070BD0AB9EC
:10448000002070BD10F8013B11F8014B63B1A3424D
:104490000AD1521E08D010F8013B11F8014B1BB194
:1044A000A34201D1521EEDD1181B70BD421E12F85D
:1044B000013F002BFBD111F8013B002B02F8013B1F
:1044C000F9D17047032A40F2568010F0030C00F037
:1044D000158011F8013BBCF1020F624498BF11F83E
:1044E00001CB00F8013B38BF11F8013BA2F10402F7
:1044F00098BF00F801CB38BF00F8013B11F003036F
:1045000000F0B080121FC0F03680A1EB0301022B37
:10451000D1F800C000F0118000F21E804FEA1C2389
:1045200051F804CF121F43EA0C6340F8043BBFF478
:10453000F5AF01F1010100F01EB84FEA1C4351F83C
:1045400004CF121F43EA0C4340F8043BBFF4F5AF1D
:1045500001F1020100F00FB84FEA1C6351F804CFDB
:10456000121F43EA0C2340F8043BBFF4F5AF01F1FE
:104570000301AFF30080D20724BF11F8013B11F80B
:1045800001CB48BF11F8012B24BF00F8013B00F814
:1045900001CB48BF00F8012B7047431A28BF9A424D
:1045A0007FF690AF032A1044114440F2498010F086
:1045B000030F1EBF11F8013D521E00F8013D10F01F
:1045C000030F7FF4F6AF11F0030300F0FA80121F1F
:1045D000C0F03680A1EB0301022BD1F800C0C0F07F
:1045E000118000F21E804FEA0C4351F804CD121FD7
:1045F00043EA1C4340F8043DBFF4F5AF01F102016A
:1046000000F01EB84FEA0C6351F804CD121F43EAC4
:104610001C2340F8043DBFF4F5AF01F1010100F0A7
:104620000FB84FEA0C2351F804CD121F43EA1C6364
:1046300040F8043DBFF4F5AF01F10301AFF3008092
:10464000D20724BF11F8013D11F801CD48BF11F880
:10465000012C24BF00F8013D00F801CD48BF00F84F
:10466000012C704710B5203AC0F00B80B1E818500B
:10467000203AA0E81850B1E81850A0E81850BFF44C
:10468000F5AF5FEA027C24BFB1E81850A0E81850EB
:1046900044BF18C918C0BDE810405FEA827C24BF3F
:1046A00051F8043B40F8043B08BF7047D20728BFCD
:1046B00031F8023B48BF11F8012B28BF20F8023B1C
:1046C00048BF00F8012B704702F0FF0343EA0322C2
:1046D00042EA024200F002B84FF000020429C0F0A2
:1046E000128010F0030C00F01B80CCF1040CBCF124
:1046F000020F18BF00F8012BA8BF20F8022BA1EB76
:104700000C0100F00DB85FEAC17C24BF00F8012B5A
:1047100000F8012B48BF00F8012B70474FF0000252
:1047200000B5134694469646203922BFA0E80C50A7
:10473000A0E80C50B1F12001BFF4F7AF090728BF82
:10474000A0E80C5048BF0CC05DF804EB890028BFFE
:1047500040F8042B08BF704748BF20F8022B11F027
:10476000804F18BF00F8012B70474278017883789A
:10477000C07841EA022141EA034141EA0060704702
:104780004FEA102208704A704FEA10428A704FEACE
:104790001062CA707047704770477047431A28BF4D
:1047A0009A427FF65FAF104410F0030F11441EBF12
:1047B00011F8013D521E00F8013D10F0030F7FF487
:1047C000F6AF103AC0F00A8010B531E91850103A2F
:1047D00020E91850BFF4F9AFBDE81040530724BFDB
:1047E00031E9081020E9081044BF51F8043D40F8B1
:1047F000043D12F0030F08BF7047D20728BF31F8FD
:10480000023D48BF11F8012C28BF20F8023D48BFE7
:1048100000F8012C70477546FFF7AEFDAE46050067
:104820006946534620F00700854618B020B5FFF7CB
:1048300091FDBDE820404FF000064FF000074FF01B
:1048400000084FF0000B21F00701AC46ACE8C009AE
:10485000ACE8C009ACE8C009ACE8C0098D467047B7
:104860000446AFF300802046FFF7B5FC014918204D
:10487000ABBEFEE72600020070470000000000000B
:1048800040F2290CC2F2000C604740F2550CC2F213
:10489000000C604740F26B0CC2F2000C604740F223
:1048A0002D0CC2F2000C6047F8B50278A2F180032B
:1048B0001F2B02D800F006F9F8BD01F8012B0C46B9
:1048C00010F8013B00250126FF22784F7849172B6D
:1048D0007DD2DFE803F00C384B6DAFBDC8E7D58063
:1048E00091E7E7E7E7E794989CA6D8D8D800007846
:1048F000631C0021052823D008DC012820D00228D1
:104900001ED003281CD004281AD108E0062817D08E
:10491000F0280BD0FE2810D0FF2811D108E0042287
:1049200064491846FFF7CEFD042109E01E7006E039
:10493000402018705D70022102E0042018700121EF
:104940002170881CF8BD017869B1012901D022705D
:104950000AE04078C1074FF4007001D0564901E0E9
:104960005549091F08602570012087E0007808B1CB
:1049700001286BD10E700D21384605F0C0FE4B4D5D
:104980004FF40050103528600E21384605F0B7FE70
:104990004FF48040286001220C21384605F044FE87
:1049A0000021384605F092FE2E602670304665E004
:1049B0000D7000220D21384605F036FE00220E2132
:1049C000384605F031FE00220C21384600E069E04F
:1049D00005F02AFE3AE041780078394A40EA0121A0
:1049E00036480068B0FBF2F00322801CB0FBF2F006
:1049F0004843401EFDD129E0657025702DE0214619
:104A000000F0A4FA3AE0214600F076FA36E010F819
:104A1000012B0AB94FF480720146104601F0E4F808
:104A200014E0007800F00302521C0A75C0F3800005
:104A300048750BE002780A728278437843EA0222D2
:104A40004A810279C37843EA022088812570ADE764
:104A50000978012903D02570657002200EE02146F7
:104A600000F05AF80AE00978012904D02570657031
:104A7000A570032002E0214600F0ACF9401CF8BD0F
:104A80000978012902D022700220F8BD0779401C64
:104A9000FFF76BFE67F31F6000906946002000F08F
:104AA0008DFDD3E704F8012C0120F8BD000C014076
:104AB0001C03002066E1000814080140D00100201A
:104AC00040420F0070B50C4601460078802805D0A2
:104AD000882813D0FF202070012070BD05F032F926
:104AE0000646FFF779FCC5B28020207065702A4623
:104AF0003146A01CFFF7E6FCA81C70BD8820207082
:104B000001206070487820B1012802D00020607038
:104B1000E2E705F01BFCDFE72DE9F04F054685B025
:104B20000020DFF8A892CDE901018C1C89F8000073
:104B3000697806468246DFF898B2AD1C049102E11E
:104B400015F8018B5FEA88717DD576B3BBF80A70E2
:104B500008F01100012807D04E4669460E2000F0EB
:104B60002DFD02280DD011E06946404600F026FDDB
:104B700002280CD17F1E03D399F800100029F3D02E
:104B80001AE17F1E02D331780029E6D000260128E1
:104B9000F6D1009904F8011B0A0A04F8012B0A0C4B
:104BA00004F8022B090E04F8011C5FEAC8614BD51A
:104BB000EF782846FFF7D9FD67F31F600390BBF835
:104BC0000CA02D1D5FEAC87011D0BBF80A7000213F
:104BD000404600F0F3FC022802D00128D0D106E0C4
:104BE0007F1ECDD399F800100029F0D0E4E0BBF887
:104BF0000A706946404600F0E1FC022802D0012814
:104C000015D106E07F1E12D399F800100029F0D0CC
:104C10000DE0DBF81010009A1140039A914206D083
:104C2000BAF1010A03D399F800100029DFD0DBF8AC
:104C30001010009A1140039A914201D040F01000E8
:104C4000012816D134E035E0BBF80A705FEAC8717C
:104C500012D06EBB4E460021404600F0AFFC022849
:104C600002D0012805D105E07F1E02D3317800294A
:104C7000F1D0A1E001261BE06946404600F09EFC11
:104C8000022802D0012806D106E07F1E03D399F83E
:104C900000100029F0D08FE0009904F8011B0A0AE7
:104CA00004F8012B0A0C04F8022B090E04F8011C6D
:104CB000002141E0F6B1BBF80A604F4669460E207C
:104CC00000F07CFC022802D0012875D105E0761E98
:104CD00072D339780029F1D06EE0009804F8010B06
:104CE000010A04F8011B010C04F8021B000E04F871
:104CF000010C0026EF782846FFF737FD67F31F60A9
:104D00002D1D00905FEA886103D5CBF810000120CB
:104D100013E0BBF80A706946404600F04FFC0228D9
:104D200002D0012848D106E07F1E45D399F8001033
:104D30000029F0D040E001218A460199491C0191E7
:104D400099F8001029B90499491E0491491C7FF46F
:104D5000F7AE012830D1F6B1BBF80A504E4669468D
:104D60000E2000F02BFC022802D0012824D105E0FF
:104D70006D1E21D331780029F1D01DE0009904F88F
:104D8000011B0A0A04F8012B0A0C04F8022B090E75
:104D900004F8011C10E0BAF1000F0DD0BBF80A5066
:104DA0004E4600210E2000F009FC022804D16D1EA1
:104DB00002D331780029F4D0DDE901121170029993
:104DC0004870029805B0201ABDE8F08FA4000020BA
:104DD0001C0300202DE9F84F0025DFF814B102462E
:104DE00028468A46CE1C8BF8005091785378D21C06
:104DF00053EA012470D012F8019B90465FEA897152
:104E00005AD55FEAC97137D03A48478900214846E8
:104E100000F0D4FB022802D001285DD12CE07F1ED7
:104E20005AD39BF800100029F0D055E024B95FEA6E
:104E3000C97001D04FF00E092E48D84647896946FF
:104E4000484600F0BBFB022802D0012844D106E00E
:104E50007F1E41D398F800100029F0D03CE0009963
:104E600006F8011B0A0A06F8012B0A0C06F8022BA9
:104E7000090E06F8011C6D1C641ED7D22CE04046BA
:104E800098F80370FFF771FC67F31F6000901948F2
:104E900008F1040847896946484600F08FFB02285C
:104EA00002D0012818D106E07F1E15D39BF8001010
:104EB0000029F0D010E06D1C641EE0D20D485F4662
:104EC000448900210E2000F079FB022804D1641EE1
:104ED00002D339780029F4D08AF800502A0A8AF8D7
:104EE00001208AF80200A6EB0A00BDE8F88F000056
:104EF000A40000201C03002070B50C46C578FFF705
:104F000034FC65F31F6048B10E4900230E4A09685E
:104F1000B0EB910F05D3012050700FE0FF202070FF
:104F20000EE000EB5101491EB1FBF0F05370022876
:104F300003D90321B0FBF1F000E0012050602370A1
:104F4000012070BDD00100201C0300202DE9F0419C
:104F500010F8015B0F4610F8014BC678FFF705FC0F
:104F6000374966F31F60E30701F1040206D0EE073C
:104F70004FF4005301D00B6000E01360A30706D587
:104F8000AE074FF4804301D50B6000E013602306A9
:104F900007D5EB09DE074FF0010301D00B6000E0FD
:104FA0001360274E361F321F0021D0B3254B984285
:104FB00000D918464FF0E0239961DFF88CC0DCF887
:104FC00000C000FB0CF0DFF884C0B0FBFCF05861BF
:104FD00005201861E00704D03068C0F34030A842D3
:104FE00019D1A00705D51068C0F30030B0EB550FFC
:104FF00011D1600702D5B1EB950F0CD1A00602D5F7
:10500000B1EB551F07D120060AD5106800F001004A
:10501000B0EBD51F04D01869C0F300400028D9D0E8
:10502000196130681168C0F34030C1F3003140EAC3
:105030004100116840EAC11038700120BDE8F081DC
:10504000100C0140C0C62D00D001002040420F00CE
:1050500070B5154815490068B0FBF1F11448891E78
:10506000416064214181012505751248816941F043
:105070001C018161104E0D21304605F040FB0E4CA5
:105080006803103420600E21304605F038FBA80379
:10509000206001220C21304605F0C6FA002130467E
:1050A00005F014FB256070BDD001002080969800AB
:1050B0001C03002000100240000C014003480221A4
:1050C000017000214170418041607047AC020020B6
:1050D00070B5094C0500217808D00A2904D00A20AF
:1050E0002070012001F08EFA657070BD0A29FBD195
:1050F00002202070F8E70000AC02002001078A0EB1
:1051000007490A44D2F8001C000602D548F6CF70C1
:1051100001E04CF68F700140C2F8001C704700009F
:10512000005000400207930E0A4A1A44D2F8003C8D
:10513000000605D501F03000584048F6BF7104E084
:1051400001F4405058404BF68F710840C2F8000CF3
:10515000704700000050004001490860704700009F
:105160001404014070B505464FF43026304600F077
:1051700067F8042811D1094C206940F00200206131
:105180006561206940F040002061304600F058F829
:10519000216941F6FD721140216170BD002002407D
:1051A00008490420CA68D20701D001207047CA68A4
:1051B000520701D502207047C968C906FBD50320F4
:1051C00070470000002002400248016941F0800160
:1051D00001617047002002402DE9F8410646002099
:1051E0004FF4005700900D46384600F029F8042887
:1051F00016D10C4C206940F0010020613580B84682
:10520000384600F01DF8BF1E042806D1B61C280C35
:1052100000963080404600F013F821693940216142
:10522000BDE8F8810020024003480249416003497B
:10523000416070472301674500200240AB89EFCDF4
:1052400000B50346FFF7ACFF02E0FFF7A9FF5B1EC6
:10525000012803D0002B00D1052000BD002BF4D184
:10526000FAE7F0B5CC78002204F00F03E40601D58C
:105270008C7823430C784FF00F0C14F0FF0F4FF095
:10528000010E1BD005680E880EFA02F42640A642D5
:1052900010D196000CFA06F725EA070703FA06F57F
:1052A000CE783D43282E02D0482E02D002E0446141
:1052B00000E00461521C082AE5D305600A88FF2A31
:1052C0001CD94468002202F108060EFA06F50E8881
:1052D0002E40AE420ED196000CFA06F7BC4303FAFC
:1052E00006F7CE783C43282E00D14561CE78482E73
:1052F00000D10561521C082AE5D34460F0BD0000CE
:10530000F0B5144C002801DAE36900E06368450D4C
:105310002E0185B2C0F30157B540C0F30342032FFD
:1053200005D0C6020AD503269640B34307E023F012
:105330007062636823F07063636002E0AB4343F024
:10534000706201B12A43002801DAE261F0BD6260B7
:10535000F0BD00000000014041617047BC2208A17F
:10536000002003F081FABFF34F8F10480168104A04
:1053700001F4E06111430160BFF34F8FFEE70000CD
:105380002E2E5C2E2E5C2E2E5C736F757263655C08
:105390006461706C696E6B5C696E74657266616382
:1053A000655C6D61696E2E63000000000CED00E02D
:1053B0000400FA051CB506F08DFF00281CD09E20C5
:1053C0008DF80000E7208DF801006946102000F0FC
:1053D0000BFC012406F07EFF00280DD000208DF884
:1053E00000006946082000F0FFFB01A9002006F03C
:1053F00005FF012801D104B11CBD00201CBD00F037
:105400001F02012191404009800000F1E020C0F816
:105410000011704730B50F23C27801780125F2B131
:10542000144A126801F1E02102F4E062C2F5E06280
:10543000120AC2F10404D3404278A24084781C408E
:105440001443220181F80024007800F01F018D40F0
:105450004009800000F1E020C0F8005130BD01F0AB
:105460001F0085404809800000F1E020C0F880510D
:1054700030BD00000CED00E0BFF34F8F0448016821
:10548000044A01F4E06111430160BFF34F8FFEE76E
:105490000CED00E00400FA0570B5104C0D2120461B
:1054A00005F046F90D4D6014103528600E21204698
:1054B00005F03EF94FF48040286001220C2120467F
:1054C00005F0DBF8206820F00F002060206840F035
:1054D000070020600120286070BD0000000C014022
:1054E000044A0029D16901D0014300E08143D16120
:1054F0007047000000100240044A0029916901D061
:10550000014300E0814391617047000000100240B8
:1055100030B5204A5168204B11F00C0103D004290A
:1055200001D0082901D0036012E05168536801F4EA
:1055300070114FF0020413F4803F04EB914102D04C
:1055400053689B0301D5154B00E0134B5943016091
:1055500051680F2303EA1111114B5C5C0168E140B3
:1055600041605468072505EA14241C5D21FA04F4FF
:105570008460546805EAD4241B5DD940C160526838
:10558000032303EA9232064B1B1F9A5CB1FBF2F134
:10559000016130BD0010024000127A0000093D0098
:1055A000BD0100200149C871704700000010024091
:1055B0000149C1F8D800704700004242034A5278BE
:1055C0000AB100F005B800F021B900001C0300206A
:1055D0002DE9F04F8B4B8A464FF4804701461F6000
:1055E0005E141D1D2E601E60C00701D01F6000E00C
:1055F0002F602E601E604808C40701D01F6000E0C5
:105600002F602E601E600A188808C40701D01F6032
:1056100000E02F602E601E600244C808C40701D05D
:105620001F6000E02F602E601E601044C00701D094
:105630001F6000E02F602E601E602F602E601E60D5
:105640001F602E601E60DFF8BC91A9F11009D9F827
:10565000042022F07062C9F80420D9F80420C9F8A7
:1056600004201F60DFF8A0B19BF81400020003D0F3
:105670002E601E60401EFBD12E60DFF88881A8F1ED
:105680000808D8F800001E60C0F300302E60D8F87B
:1056900000401E60C4F3003440EA44002E60D8F895
:1056A00000401E60C4F3003440EA8400012817D093
:1056B00002287CD004287AD0213203D02E601E60CC
:1056C000521EFBD1D9F8042022F07062C9F80420E0
:1056D000D9F8042042F04072C9F804202F608EE00F
:1056E000890731D50024224620212E60D8F800C039
:1056F0001E60CCF3003C6408624444EACC74491E4A
:10570000F3D12E60D8F800101E6082EA1132D10762
:1057100000D00820BAF1000F01D0CAF800409BF871
:10572000141019B12E601E60491EFBD1D9F8042057
:1057300022F07062C9F80420D9F8042042F04072C7
:10574000C9F804202F6029E01AB12E601E60521E95
:10575000FAE7D9F8042022F07062C9F80420D9F8D9
:10576000042042F04072C9F804202F600024DAF8C7
:10577000001020225FEAC17C01D01F6000E02F6092
:105780002E601E600C444908521EF3D1E10702D07E
:105790001F6001E00BE02F602E601E609BF8081078
:1057A00069B32F602E601E60491EFBD127E09BF875
:1057B00015404CB15FEA817C06D54FF0210C2E607C
:1057C0001E60BCF1010CFAD11AB12E601E60521E8F
:1057D000FAE7D9F804C02CF0706CC9F804C0D9F805
:1057E00004C04CF0407CC9F804C02F603CB189076C
:1057F00005D42F6021212E601E60491EFBD11F6041
:10580000BDE8F08F100C01401C0300202DE9F04F83
:10581000F34A04464FF480408B4600261060171D63
:105820004FF4005CC7F800C0EE4B59680D466D1E82
:10583000FDD1C2F800C00D466D1EFDD1E50701D0B7
:10584000106000E03860C7F800C00D466D1EFDD145
:10585000C2F800C00D466D1EFDD106EB04086608B7
:10586000F50701D0106000E03860C7F800C00D46B1
:105870006D1EFDD1C2F800C00D466D1EFDD146441F
:10588000A5085FEAC57801D0106000E03860C7F86D
:1058900000C08846B8F10108FCD1C2F800C08846B3
:1058A000B8F10108FCD12E44E5085FEAC57801D0C3
:1058B000106000E03860C7F800C08846B8F1010801
:1058C000FCD1C2F800C08846B8F10108FCD13544CB
:1058D000ED0701D0106000E03860C7F800C00D4649
:1058E0006D1EFDD1C2F800C00D466D1EFDD13860A1
:1058F000C7F800C00D466D1EFDD1C2F800C00D46B0
:105900006D1EFDD11060C7F800C00D466D1EFDD1A3
:10591000C2F800C00D466D1EFDD1DFF8C4A2AAF189
:10592000100ADAF8046026F07066CAF80460DAF843
:105930000460CAF80460814610601D7D2E000BD003
:10594000C7F800C00846401EFDD1C2F800C0084696
:10595000401EFDD16D1EF3D1C7F800C00846401EA1
:10596000FDD19F4D083D2868C2F800C0C0F300304B
:105970008846B8F10108FCD1C7F800C00B465B1E91
:10598000FDD12B68C2F800C0C3F300338846B8F1DC
:105990000108FCD140EA4300C7F800C00B465B1E7B
:1059A000FDD12B68AE46C3F30033C2F800C00D46EC
:1059B0006D1EFDD140EA8300012823D002286FD05C
:1059C00004286DD021360BD0C7F800C00B465B1EF3
:1059D000FDD1C2F800C00B465B1EFDD1761EF3D18F
:1059E000DAF8043023F07063CAF80430DAF80430CF
:1059F00043F04073CAF804304946C7F8009011607C
:105A0000BDE8F08FA3074CD54FF000084546202491
:105A1000C7F800C00B465B1EFDD1DEF80030C2F8AF
:105A200000C0C3F300360B465B1EFDD14FEA58039E
:105A3000354443EAC678641EEAD16446C7F800C01C
:105A4000684E0B465B1EFDD1DEF800301460C3F3D8
:105A50000033491EFDD15D40E90700D00820BBF1AD
:105A6000000F01D0CBF80080337D53B175683C60E6
:105A70002946491EFDD114602946491EFDD15B1EF1
:105A8000F5D1DAF8043023F07063CAF80430DAF89C
:105A9000043043F04073CAF80430C7F8009045E082
:105AA00058E05EB1C7F800C00B465B1EFDD1C2F8DE
:105AB00000C00B465B1EFDD1761EF2E7DAF804400B
:105AC00024F07064CAF80440DAF8044044F04074EA
:105AD000CAF80440C846C7F800900026DBF800303A
:105AE0002025DC0702D0C2F8008001E0C7F8008062
:105AF000C7F800C00C46641EFDD1C2F800C00C46B9
:105B0000641EFDD11E445B086D1EEAD1F30702D06E
:105B1000C2F8008001E0C7F800806446C7F800C002
:105B20000B465B1EFDD11460491EFDD12D490C7A38
:105B300074B1C7F800904D68C7F800C02946491EE7
:105B4000FDD1C2F800C02B465B1EFDD1641EF3D10F
:105B5000494654E7234B93F81580B8F1000F0ED057
:105B6000A3070CD52125C7F800C00B465B1EFDD14D
:105B7000C2F800C00B465B1EFDD16D1EF3D15EB1B5
:105B8000C7F800C00B465B1EFDD1C2F800C00B4633
:105B90005B1EFDD1761EF2E7DAF8045025F0706541
:105BA000CAF80450DAF8045045F04075CAF80450B9
:105BB0004D46C7F80090B8F1000F0FD0A3070DD4E1
:105BC0003D602124C7F800C00B465B1EFDD1C2F822
:105BD00000C00B465B1EFDD1641EF3D115600FE7BC
:105BE000100C01401C030020F0B5144C0023DFF81A
:105BF00048C04FF480471A46ACF1040E7E10656829
:105C000016E012B911F8013B0822DC0702D0CEF8E9
:105C1000007001E0CCF80070CCF800602C46641EE7
:105C2000FDD1CEF800602C46641EFDD15B08521EEB
:105C3000401EE6D2F0BD0000140C01401C03002001
:105C40000CB50022264800920192016841F480318F
:105C500001604FF4A063016801F4003101910099E3
:105C6000491C0091019911B900999942F3D1016839
:105C7000890333D5012101911A490A6842F01002C3
:105C80000A600A6822F003020A600A6842F002020F
:105C90000A604168416041684160416841F4806147
:105CA0004160416821F47C114160416841F4E81190
:105CB0004160016841F08071016001688901FCD593
:105CC000416821F003014160416841F002014160F7
:105CD0004168C1F381010229FAD10CBD01920CBDCA
:105CE00000100240002002400F4810B5016841F04A
:105CF0000101016041680D4A1140416001680C4A90
:105D000011400160016821F480210160416821F4A3
:105D1000FE0141604FF41F018160FFF791FF0549CB
:105D20004FF00060086010BD001002400000FFF856
:105D3000FFFFF6FE08ED00E070B52A4D6021284611
:105D400000F072F820B140F26771284600F05CF86C
:105D500040F225542146284600F066F8E0B121467D
:105D6000284600F051F8284600F0ECF8C6B21E486C
:105D700002F012FE0446132804D931461A4802F0F4
:105D80007BFE09E002F00EFF00B3132C04D11322B6
:105D900016A1154802F0C5FE40F227763146284686
:105DA00000F042F800281CD03146284600F02CF8BC
:105DB000134802F002FE134C60B1114802F01EFEBF
:105DC0000146284600F0C2F8012009E0064802F02A
:105DD00015FED2E700223146284600F044F80020A4
:105DE000206070BD004400405C2400203C444150D1
:105DF0004C696E6B3A4F766572666C6F773E0A003F
:105E00004C220020E40100200A0A01219140C943EC
:105E1000018070470029818902D041F4005101E0DE
:105E200021F400518181704770B501F01F050126F2
:105E30000024C1F3421306FA05F2012B0FD0022B06
:105E40000FD0838A4FEA11210088134206FA01F627
:105E500000EA060001D000B10124204670BD83890C
:105E6000F0E7038AEEE710B5C1F3421301F01F0417
:105E70000121A140012B07D0022B07D01430002AAA
:105E8000026805D00A4304E00C30F8E71030F6E76A
:105E90008A43026010BD000030B50446008A85B018
:105EA0000D464CF6FF710840E98801432182A08924
:105EB0004EF6F3110840A9882A8911436A890243E2
:105EC0001143A181A08A4FF6FF410840A9890143EF
:105ED000A1826846FFF71CFB1948844201D1039850
:105EE00000E00298A189090400EBC00101EB001059
:105EF000296801D5490000E08900B0FBF1F0642277
:105F0000B0FBF2F109010B096FF018056B4300EBD0
:105F10008300A3891D044FF0320306D503EBC000B4
:105F2000B0FBF2F000F0070005E003EB0010B0FB5F
:105F3000F2F000F00F000843208105B030BD0000F2
:105F4000003801408088C0F308007047C1F30801A1
:105F500081807047002070470348D0E90410081A78
:105F600002490988081A70474802002052E60008D2
:105F700070B50B4D0C460346D5E90C0188420BD990
:105F8000401A844200DD044622461846FEF79AFA7B
:105F9000686B2044686300E00024204670BD000068
:105FA00048020020002070472DE9F041194F0C46AF
:105FB0000646D7E90401401A17490988081A00283B
:105FC00002DC0020BDE8F081844200DD0446D7E910
:105FD0000602002590420FD3104B021919448A4241
:105FE0000AD30D1A98462A463146FEF76BFA2E441C
:105FF000641B4046C7F8188034B122463146FEF78C
:1060000061FAB8692044B86139696019014439619D
:10601000D8E700004802002052E600086E27002062
:1060200010B5054C6068002805D10120606000F0C3
:1060300005F80020606010BD480200202DE9F047FF
:10604000244CA06800283ED0D4E90401421AE0683C
:106050004FF0000652EA000137D021461E4FC969B1
:10606000DFF87880DFF878901E4D7AB1A069814220
:1060700005D338888B182844834200D3421A99F8F4
:10608000003038F81300904200DA02461648E66005
:10609000007840F0800002F063FBE1690144E161B7
:1060A0006269024462613B882B448B4200D1E56106
:1060B000216991420BD199F8002038F812108142E1
:1060C00005D10120E060BDE8F087A660FBE7E6604F
:1060D000F9E700004802002052E6000856E60008F2
:1060E0008B0200206E27002050E6000810B50B4CF4
:1060F000206A18B1A06A401CA06210BD0120206275
:10610000606200F00DF8002060622062D4E90C01AA
:106110008842F2D0401AFFF745FF10BD4802002028
:1061200010B5134C1348164B216B0A1A12481B78F2
:106130000088821A114830F8130082420EDB1148A1
:10614000007801F05BFF216B08442063A06A0028FF
:106150000CD0616A002909D1401E06E00120E062EE
:10616000606A002802D0A06A401CA06210BD000036
:1061700048020020AE27002054E6000856E600083A
:106180008B02002051E6000810B50446400702D5F6
:106190002046FFF7ABFF200704D52046BDE810409E
:1061A000FFF73EBF10BD70470020704700207047CA
:1061B00010B50C4800F042F8002812D00948FEF74C
:1061C000D4FA0949020A08704A70020C8A70000E5B
:1061D000C870044802790A7142794A7180798871DD
:1061E000012010BD800200206C26002010B5104850
:1061F0000024104944608460C4600461C0E9054122
:10620000C0E9071444620C498462C0E90B41416350
:10621000048000F138014FF41650FEF7B1FA04483B
:106220000821383004714471817100F019F810BDF3
:10623000480200206E270020AE27002070B5074DD1
:10624000044621462868FEF79BFA2879A0716879F0
:106250006071A8792071012070BD00001403002036
:1062600010B506F047FD03F037FF012010BD10B553
:1062700006F0E8FD012010BD0120704710B504466E
:10628000FEF773FA07490860A079087160794871D0
:10629000207988710020C871BDE81040084606F0DA
:1062A000D9BD00001403002010B511480024114985
:1062B00044608460C4600461C0E90541C0E907141A
:1062C00044620D498462C0E90B4141630480FFF7D9
:1062D000CEFF07494FF416503831FEF751FA044803
:1062E00008213830047144718171FFF7C7FF10BD78
:1062F000480200206E270020AE27002010B5FFF7CF
:10630000D3FF10BD70B51948007800282DD0184C67
:1063100000250126206A50B9D4E90C01884206D133
:106320001449884203D02163E56225626163A06A53
:1063300070B1206A60B9E06A50B92662FFF7F0FEDA
:106340002562D4E90C01884202D0401AFFF72AFEE8
:10635000D4E90101084308D1D4E90401884204D0FA
:106360006660A660FFF76AFE656070BD8902002066
:1063700048020020AE27002010B50B4CDFF82CC0DF
:1063800028B100DF2060002006F0E4FA0AE000DF18
:106390002168401AB0F5967F01D3012000E000206B
:1063A00003F0B2FE012010BD1003002075BA0008F2
:1063B0000020704700207047024910B50880FFF7A1
:1063C0005BFF10BD4802002070B50A4C2046E578FE
:1063D000FEF7CBF965F31F600749FEF7D1F90648D0
:1063E0002179017161794171A1798171FFF746FFCE
:1063F00070BD00006C2600208002002000B503461E
:10640000FEF77CFE43F2300118465DF804EBFEF720
:1064100089BE0000F0B58278224D4179047902F0FE
:106420000F0344EA012116066F682C8802F00F0260
:1064300007EB021204D5491C21F00101146011E0A0
:1064400094603E2909D91F3121F01F014FF0FF341C
:1064500004EB411444F4004403E0491C21F0010121
:106460004C02D4602A880A442A80C07810F00300C5
:1064700006D0012807D0022808D003280AD107E057
:106480004FF4007106E04FF4806103E0002101E069
:106490004FF4C061044A194302EB8300C0F8001CAA
:1064A000F0BD00000402002000500040002802D18E
:1064B0000149D020088070470402002000F05CBC35
:1064C0000949CA1350B101200860002008600B1D63
:1064D00018604FF4E0500860044803E003200860AF
:1064E0000248001D02607047405C004010080140F7
:1064F00010B5094C2078801E08280BD2DFE800F088
:1065000004040A04040A0A04002000F07BF808B11D
:1065100002202070012010BDAC02002010B5002028
:10652000FEF7D6FD012010BD002004F0B3BD10B56C
:1065300006F029F910BD0000044910B5D1E90001A9
:10654000484306F01EF9C83010BD000028020020A4
:10655000C82070470349024809780170012070473C
:106560006C260020AC02002070B5144E124D0024A1
:106570003078032802D006280CD010E004203070B8
:106580007088FFF7D4FF0446706840B9FFF7D4FF66
:10659000044404E007203070FFF7DAFF0446707807
:1065A00028706C70200AA870200CE8703078287170
:1065B00000206871012070BD6C260020AC02002014
:1065C00010B50E4C2078042808D0072805D1FFF715
:1065D000ABFF002801D00220207010BD606828B9F0
:1065E00000F036F80028F8D0012060606188044887
:1065F00000F066F80028F0D00520EDE7AC0200209E
:10660000EE27002000B1012004F044BD0E4910B572
:106610000988884203D90F20FEF75AFD05E00B4A8E
:106620001178022903D0052907D0002010BD0028C9
:10663000F1D050800020506004E008B1508001E0AB
:1066400006201070012010BD5EE60008AC0200209C
:10665000144810B5006803F0D7F804461248102C0F
:1066600081681248416018D2DFE804F00817171754
:106670001717170B0B0B0B0B0B0D0D1201210170D4
:106680000DE0062000E00420FEF722FD3CB102E010
:106690000320FEF71DFD002010BD0E20F4E70120B1
:1066A00010BD000060E20008280200200801002060
:1066B000024903200870012070470000AC0200204E
:1066C00070B5144D0E460A460146686803F00EF890
:1066D0000446102C19D2DFE804F00818181818180E
:1066E000180C0C0C0C0C0C0E0E136868304468600F
:1066F0000DE0062000E00420FEF7EAFC3CB102E0D9
:106700000320FEF7E5FC002070BD0E20F4E7012019
:1067100070BD00000801002010B50B4C0B48A2888A
:106720000078824200D902461AB90749002014397C
:1067300008718020216802F013F82168014421606B
:10674000A188081AA08010BD9C02002032E6000833
:1067500010B5064C0020A288216801F04FFC21688A
:1067600001442160A188081AA08010BD9C0200206D
:1067700070470021FEF7D6BC43F22001FEF7D2BCE1
:106780002DE9F047714F0446A7F1080580074FF047
:106790000009A5F1140622D501F0ACFF3878C00934
:1067A000FFF7E6FFF888A8803878C0F3411121B1DF
:1067B00001295AD0022972D168E07978DFF89081F6
:1067C0000C296CD2DFE801F0060C6B136B18276BF9
:1067D0002B31384601F038FD1FE0FFF79DFF6AE0DE
:1067E000002005E001F096FFD8F8000039E0012014
:1067F00001F06AFDC0B3F5E710F01F0F4FD1B87874
:10680000012140F08000307000F07F0001F064FF53
:1068100001F080FF4FE001F01BFC28B3DDE710F032
:106820001F0F3CD149481B3812E001F09DFDD8B143
:1068300001F070FF474813E000F01F0001282ED13F
:10684000707888B13879B178884228D242490844B2
:106850002860C2E701F04EFE30B101F05BFF3F4817
:10686000006840B3804726E019E010F01F0016D002
:10687000012814D100F06EF9E8B900F0C1F9D0B9DF
:1068800000F0CAF8B8B900F019F907E010F01F0FCE
:1068900005D100F0E9F970B900F036FA58B9387846
:1068A000000603D4F88808B1002000E0802001F041
:1068B0001DFFA5F80490600724D5387800061FD482
:1068C000A888F8B1FFF744FFA888D8B93878C0F392
:1068D000411179B101290DD110F01F000AD0012812
:1068E00008D100F081F868B900F03AF850B900F02A
:1068F00063F838B9802001F0F9FEA5F8049001E0B2
:1069000001F00EFF200712D53878000606D5A888BA
:10691000317908430BD0FFF7FFFE08E0307801061D
:1069200005D500F07F003070002101F0D5FE600633
:1069300002D50020FFF762FD200604D5BDE8F04730
:106940008020FFF75BBDBDE8F0870000A4020020B7
:10695000BCE60008B4E60008F4010020B8E6000830
:1069600010B51249124A08791278904203D0114AA0
:106970001278904217D1487820B1022805D02028FB
:1069800011D10DE0FFF714FD05E0C878897841EAE0
:106990000020FFF70FFD30B101F0BCFE012010BD5B
:1069A000FFF712FDF7E7002010BD0000A402002051
:1069B0004EE600084FE6000810B50948094A01797B
:1069C0001278914209D14078012806D1FFF770FE74
:1069D00018B101F09FFE012010BD002010BD000085
:1069E000A40200205CE6000810B50948094A0179B4
:1069F0001278914209D14078092806D100F0C0FBF5
:106A000018B101F087FE012010BD002010BD00006C
:106A1000A402002033E6000870B52349234A087910
:106A20001278904203D0224A127890423AD11E48FE
:106A30004978204CC27883781F4D43EA022004290C
:106A40001FD007DC79B101290FD002290BD003290F
:106A500028D111E0202906D0212919D022291AD0C5
:106A600023291FD11AE02C6010E0FFF79FFB05E0FF
:106A70002C60FFF751FE09E0FFF796FB0028F7D1E5
:106A800010E0FFF767FA0BE001F044FE012070BD53
:106A9000FFF78EFBF2E7FFF78FFC01E0FFF76CFCDE
:106AA0000028F1D1002070BDA40200204EE60008AD
:106AB0004FE600086C2600209C02002070B5204C98
:106AC000204920790978884237D160781E4E1F4DC1
:106AD000072832D2DFE800F0311831042B0F2800EC
:106AE000FFF742FD48B306202E60A880FFF714FE92
:106AF000FFF766FD16E0FFF72DFDF0B101202E60D7
:106B0000A880FFF709FE0DE0E079A17941EA0020B5
:106B1000FFF77CFD88B1E079A17951EA002009D026
:106B20000B482860012070BDFFF7E2FC01E0FFF791
:106B3000F5FC10B101F0EEFDF4E7002070BD00009F
:106B4000A40200205CE600086C2600209C020020C5
:106B5000EE2700202DE9F041224E234930790978B3
:106B600088423CD17078214C214D224F0C2836D2DE
:106B7000DFE800F03506212C353535353516243162
:106B800000F01AFA58B3F078012802D0032803D095
:106B900003E01948206000E02560FFF7BDFD12E02A
:106BA000F078022802D0032803D00CE013482060BC
:106BB00009E0256007E000F0E7F909E000F0BAFA23
:106BC0000BE001F0A7FD0120BDE8F08100F0EAF93B
:106BD00028B12760E1E700F0C9FA0028F1D10020D0
:106BE000F2E70000A402002033E600089C02002027
:106BF000000200206C260020AD260020EE2600209A
:106C000010B51548154A01791278914222D10146F2
:106C10004278C8788B788C7943EA0020CB79FE2AB9
:106C200044EA032109D0FF2A14D198B991B901F09F
:106C300029F978B101F06EFD0AE058B9012909D1AE
:106C400000F0F4FD30B1074905480860FFF764FD26
:106C5000012010BD002010BDA402002044E6000861
:106C60006C2600209C02002070B5204D2049002495
:106C700068780978884236D1687929791D4B41EACC
:106C80000020012802D002282DD106E01A48186001
:106C9000C178807840EA01210FE01849AE7816B338
:106CA000002003E00A7802B11144401C421C9642C5
:106CB000F8D8087890B119600978E879AA790124A0
:106CC00042EA002088420BD90D4899800078401E86
:106CD000014206D10B490120087002E0002402E0C5
:106CE0009880FFF719FD204670BD0000A402002027
:106CF0005AE600089C02002006EB000813EB00088F
:106D000032E600088C02002010B5154A154900240F
:106D100050780978884220D15079117941EA0020D1
:106D200007281AD1114B104801241860417A007AC3
:106D300040EA0121D079927942EA0020884209D9BB
:106D40000B4899800078401E014204D10949012076
:106D5000087000E09880FFF7DFFC204610BD0000BF
:106D6000A40200205BE600080CE700089C0200205B
:106D700032E600088C020020074800214170C16003
:106D800001614161418081808161C161C180018176
:106D90000162418170470000B40200202DE9F047F4
:106DA000474EB0887188484FDFF818817D1C002459
:106DB000884216D3B069A0B97461B48001233978D0
:106DC0007A1C184606F0A6F97080708848B1776181
:106DD00098F80000012801D8756102E07088401C15
:106DE000708070884FF00109B0BBF06808B1F460A2
:106DF00032E0316981B398F8000001280DD83C7069
:106E0000B48002237A1C0021012006F083F97080EF
:106E1000708800B1756134611EE03D78C846202D50
:106E200000D3002508FA05F0084244D0681CC1B21E
:106E30003970B48002237A1C012006F06BF970804F
:106E4000708818B177617088401C7080306908FACA
:106E500005F820EA080030617088B169084328D03D
:106E60007088B188DFF86880401A85B2174F98F8AB
:106E7000000037F81000A84200D2054615482A46FF
:106E80007169007840F0800001F06AFC7069124975
:106E900028447061B088284480B2B0800988884254
:106EA0000CD298F8000037F81000A84206D1C6F8B6
:106EB0001890BDE8F0876D1CEDB2B0E7B461F8E75B
:106EC000B40200203EE60008AC2600203AE60008A6
:106ED0008B02002034E6000840E60008F8B51B4CA1
:106EE0001B4D1C4E2089002710B9E5613188E180D7
:106EF000E1880A1A1848E169007801F07FF8000477
:106F0000E169000C0144E161218901448BB22381D4
:106F100009D031888B4206D2114A1049127831F8D3
:106F20001210814210D90F480178012001290090E8
:106F300003D80021064A022003E029786A1C0220B7
:106F40005B1E06F09DF92781F8BD0000B402002009
:106F5000ED26002042E6000835E600083AE6000883
:106F60008B0200203FE6000810B50446000702D55A
:106F70002046FFF713FF600704D52046BDE8104008
:106F8000FFF7ACBF10BD0000034804498078085CDF
:106F90000349087001207047A4020020FE01002070
:106FA0006C26002010B506F0B3F8024908700120E5
:106FB00010BD00006C2600200B4910B5C8780022D7
:106FC000012804D0022804D0032806D103E0074A90
:106FD00002E0002010BD064A521C8978002306F00A
:106FE00099F8012010BD0000A4020020AC2600206A
:106FF000FF0100202DE9FC5F4548007800287DD086
:10700000444D042300262978B146481C2870424884
:10701000007800EB400293405B1E0192994202DB34
:1070200085F8009001263D4A00241188FF2901D2ED
:10703000491C11803A4931F81000384900900988FC
:10704000884200D1012439490020DFF8D8804FF070
:10705000010BDFF8D4A091F800E045E0002276B102
:107060001AF800105346FF2901D2491C195418F888
:10707000001021B11AF800308B4200D3012201998F
:1070800018F8007002238B4007FA03F1009B994225
:1070900002DA0FB1012300E000233CB133B1D5F88F
:1070A00010C00BFA00F141EA0C0129612049095C8A
:1070B0008F420ED01AF800708F4208D3D5F810C056
:1070C0000BFA00F747EA0C072F6185F8009008F8E3
:1070D00000103AB123B92A690BFA00F11143296172
:1070E0000AF80090401CC0B27045B7D314B10B49E8
:1070F000A1F800902869002808D000E006E0688820
:10710000002803D1BDE8FC5FFFF748BEBDE8FC9F47
:1071100089020020B40200208B020020FA01002026
:1071200036E60008FD010020FC0100203EE60008D4
:10713000FE010020094809498078C97810B1084A41
:10714000815409E0084A0020064B127802E01954E5
:10715000401CC0B29042FAD301207047A402002024
:10716000FD010020FE0100203EE60008034810B5A6
:10717000807806F083F8012010BD0000A4020020F2
:1071800038B50D490022C878012804D0022804D05F
:10719000032806D103E0002038BD084A00E0084A71
:1071A000521C00230093CB798C79897844EA03231D
:1071B00006F066F8012038BDA4020020ED2600206C
:1071C000FF0100202DE9F0473B4D2C6860050AD5F2
:1071D00001F028FA06F01AF93848006800B1804733
:1071E0006FF480602860200508D501F0A3FA3448C8
:1071F000006800B180476FF400602860E00408D5A3
:1072000001F0A4FA2F48006800B180476FF4805065
:107210002860A00506D52C48006800B180476FF4AF
:1072200000702860294E600406D5316809B102203B
:1072300088476FF480402860DFF89490254FA004C1
:1072400006D5316809B1012088476FF400502860E5
:10725000A8464146D8F80000020427D56FF4004242
:107260000A6000F00F0509EB8506D6F8004C2004F3
:107270000ED540F68F7104EA0100C6F8000C57F8ED
:10728000251029B1200501D5022000E004208847FF
:107290002006DED548F60F700440C6F8004C57F8BB
:1072A00025100029D5D008208847D2E7BDE8F0474F
:1072B0001420FEF7A4B80000445C004060E600081B
:1072C00064E6000868E600086CE6000870E600085E
:1072D0000050004074E6000810B50020FEF768F981
:1072E0000648C16941F40001C1611420FEF787F826
:1072F00003494FF40040086010BD00000010024038
:107300001408014070B500F01FF900282AD0164873
:107310000224164E04704470032034633070144805
:107320000546FDF722FA022808D9114920461F39DF
:10733000FDF726FA29462046FDF722FA0D48224697
:107340000949007840F0800001F00AFA2846FDF76C
:107350000CFA316B401A2946FDF712FA0449012054
:107360000839087370BD00002E270020D8020020C5
:10737000DF2C002045E60008114910B508780228E6
:1073800008D0032810D0042812D0052801D10020ED
:10739000087010BD0B48C07B282801D0A828F8D160
:1073A000BDE8104000F086BABDE8104000F0AABD6C
:1073B0000548007840F0800000F0BEFDF4E70000D2
:1073C000D8020020B82C002045E60008204A10B55D
:1073D000117869B301290ED01E48052900781BD009
:1073E00007292BD000F0A8FD1B4902200873BDE837
:1073F000104000F087BD18481F38C07B2A2803D0F2
:107400002F2805D0AA2822D1BDE8104000F030BBBB
:10741000BDE8104000F0BCBA012181400F4800686F
:10742000014201D0012000E0002040F2414200E092
:1074300009E0BDE810400AA101F016BA0020107062
:10744000106B1F2803D1BDE8104000F0E9B810BD53
:10745000D802002046E60008D72C00209402002025
:107460002E2E5C2E2E5C2E2E5C736F757263655C07
:107470007573625C6D73635C757362645F6D736377
:107480002E63000010B5134C6068E06008B1012065
:1074900010BD1148FDF769F9A0B10F480838007B0D
:1074A000000604D50D48007840F0800008E00A4846
:1074B0001F30FDF75AF9216B884203D00848007845
:1074C00000F03AFD044901201731087300F01AFD5D
:1074D000002010BDD8020020C02C002045E6000886
:1074E00046E60008134810B5007900F08F01080641
:1074F00005D501F00F004FF48032824001E00122F7
:107500008A400D48007840F080048C4210D10B482E
:10751000006810420CD00A48FDF727F90949884253
:1075200006D12046BDE810400D22054901F018B9EA
:1075300010BD0000A402002045E6000894020020CF
:10754000D72C00205553425370B50B48FDF70DF969
:10755000094C0225173440B1A4F11F00007B00063E
:1075600008D40648007800F0E7FC257300F0CAFC58
:10757000002070BD012070BDC02C002046E6000830
:1075800070B51148FDF7F1F8104C216B884202D814
:107590002063032000E0042020700D480D49226B79
:1075A000007840F0800001F0DBF807481F30054606
:1075B000FDF7DBF8216B401A2946FDF7E1F8024997
:1075C00000201731087370BDC02C0020D8020020A5
:1075D00045E600082E270020064810B50288074817
:1075E0000549007800F00AFD05490863BDE8104030
:1075F000FFF7ECBE4CE600082E27002046E6000808
:10760000D802002010B50446400702D50020FFF73D
:10761000E3FF200703D5BDE81040FFF7ADBE10BD66
:107620002DE9F05F7A4E326B1F2A01D2134600E03B
:107630001F230020774D784902E00C5C2C54401C3D
:107640009842FAD3DFF8D8810127DFF8D0A198F863
:1076500000001F2A40F0800B69D16E48FDF785F8C5
:107660007049884263D1281DFDF77FF8694C1F34AB
:10767000211DFDF785F8A4F11700FDF776F804F158
:107680000801FDF77DF8687B18B9A87B08B11028C0
:1076900001D9277389E0E87B4FF002092A283ED000
:1076A00022DC1A2850D00FDC0428F2D006DCE8B324
:1076B0000328EED1BDE8F05F00F0A2BB1228E8D1AC
:1076C000BDE8F05F00F0BAB8232845D007DC1B28DE
:1076D00036D01E28DDD1BDE8F05F00F0DDB82528EA
:1076E0003ED02828D5D147E09E2841D00FDC552830
:1076F000CFD004DC2F2853D03528CAD103E05A2834
:1077000026D09128C5D1BDE8F05F00F045BCA12886
:107710002AD0A3285CD0A8282ED0AA28B9D100F05E
:10772000ABFA002806D0287B000601E004E053E015
:1077300049D43770BDE8F09FBDE8F05F00F034BC7D
:10774000BDE8F05F00F00EBCBDE8F05F00F064BA89
:10775000BDE8F05F00F02CBABDE8F05F00F012BBAE
:10776000BDE8F05F00F0E6BABDE8F05FFFF7CABD24
:10777000BDE8F05F00F09ABB00F07EFA0028D9D097
:10778000287B000605D586F80090BDE8F05F00F084
:1077900091B89AF8000000F0CFFB84F80C9004E058
:1077A000287C800705D400202073BDE8F05F00F03E
:1077B000A9BB00F061FA0028BCD0287B000602D4E7
:1077C00037703762B6E798F8000040F08000E2E7D3
:1077D000584600F0B1FB5CE74446584600F0ACFB6D
:1077E0002078114C00F00F014FF480308840216860
:1077F0005546084320609AF8000000F09DFB287869
:1078000087402068074306202760307092E7000019
:10781000D8020020B82C00202E27002046E60008C1
:1078200045E60008555342439802002002490020D3
:1078300008700120704700006C26002010B5FFF78B
:1078400083FE002820D0114B002080211870597031
:1078500002219970D97020241C7158719871D871C7
:107860000B48016808200A7812B11A54491C00E03C
:107870001C54401CC0B22428F5D3064924200863B8
:10788000BDE81040FFF77CBE10BD00002E27002091
:10789000F0010020D80200200548C07CC107044840
:1078A00000F11F0000D00121017300F02BBB00008C
:1078B000B82C00202DE9F041304D314FDFF8C48065
:1078C000A969686A002688420AD33878002440F003
:1078D000800000F031FB88F80C6000F013FB08E03A
:1078E0002A492948097830F81140E86A844200D3CF
:1078F0000446FFF7C7FD00B90024A86A68B374B155
:10790000A96AE86922460144387840F0800000F016
:1079100027FFA86A2044A862E86A001BE862D5E94C
:107920000410AA6A4143914203D1AE62696A0844D5
:107930006862144808300746FCF717FF001B3946F9
:10794000FCF71EFF002C06D0E86A002803D10320B4
:10795000287088F80C60BDE8F081002CDFD0E96A5F
:1079600028690144491EB1FBF0F26869824200D9DE
:107970000246E969686A05F003FDC1E7D802002004
:1079800045E60008D72C002048E600088B020020BE
:107990002DE9F041324EDFF8CC800025B169706AE4
:1079A000884208D330483563007800F0C5FA88F87B
:1079B0000C5000F0A7FAFFF765FD20B1306B10B353
:1079C000B06A10B10FE035631DE0F16A306901441F
:1079D000491EB1FBF0F27069824200D90246F1699A
:1079E000706A05F0CDFC0020204A336BB16A08E0D4
:1079F000F7690C183C5D175CBC4201D0356202E0AF
:107A0000401C9842F4D3346BB06A0119B162F06A39
:107A1000071BF762D6E9042042438A4203D1B562CC
:107A2000716A084470620F4808300546FCF79DFEF5
:107A3000001B2946FCF7A4FE002C0ED017B13078AD
:107A400005280AD1306A30B1002088F80C00BDE862
:107A5000F04100F057BA0120F7E7BDE8F0810000DF
:107A6000D8020020D72C002046E600082E27002050
:107A70002DE9F041DFF80481414F0026D8F81810B5
:107A8000D8F82400884208D33E48C8F8306000780F
:107A900000F052FA3E7300F035FAFFF7F3FC08B934
:107AA000C8F83060D8F83010D8F828000844D8F862
:107AB0001010884207D9BDE8F0414FF4807232A11E
:107AC000002000F0D1BE0020384907E0D8F8283067
:107AD000D8F81C400A5C0344401CE254D8F830201B
:107AE0009042F3D3D8F8280011000844C8F82800C1
:107AF000D8F82C20A2EB0102C8F82C2022D0454651
:107B000092B988B129690844401EB0FBF1F4686954
:107B1000844200D904462246E969686A05F04AFCB5
:107B2000AE62686A20440CE0D5E9041251438142F8
:107B300008D1E969686A05F03DFCAE626969686A66
:107B4000084468620E4808300546FCF70EFED8F877
:107B500030402946001BFCF713FE002C0BD0D8F850
:107B60002C0018B198F80000052804D13E73BDE838
:107B7000F04100F0C7B9BDE8F0810000D802002054
:107B8000D72C002046E600082E2E5C2E2E5C2E2ED2
:107B90005C736F757263655C7573625C6D73635C57
:107BA000757362645F6D73632E6300002E2700207F
:107BB00070B5FFF7C9FC002826D0FFF763FC00284A
:107BC00022D01248002106220170114B42708170B0
:107BD0001A7A0824D201C270017141718171C17198
:107BE0000C481C630546FCF7C0FD082808D9094964
:107BF00020461F39FCF7C4FD29462046FCF7C0FD8E
:107C0000BDE87040FFF7BCBC70BD00002E2700200F
:107C1000D8020020DF2C002070B5FFF795FC00286B
:107C200022D0FFF72FFC00281ED01048032100228D
:107C300001700F49427004240B7ADB018370C2701B
:107C40000C480C630546FCF790FD042808D9094947
:107C500020461F39FCF794FD29462046FCF790FD8D
:107C6000BDE87040FFF78CBC70BD00002E270020DF
:107C7000D8020020DF2C00202DE9F0412948FCF734
:107C800074FD284D00BA113D20F0FF04287D264EDA
:107C900004430020C6E90940E87B2F280AD004DC11
:107CA00028280BD02A281CD104E0A82810D0AA2804
:107CB00017D109E0FFF7E6FB00282FD0E87DA97D6A
:107CC00041EA002044BA0CE0FFF7DCFB002825D095
:107CD0001448001DFCF749FD00BA20F0FF04287E7F
:107CE0000443306944430F48F4620938FCF73DFD12
:107CF0000C4F01260E3768B1A04211D0287B000638
:107D000004D50A48007840F0800001E00848007877
:107D100000F012F93E7300F0F5F80020BDE8F081A4
:107D20000120FBE7C92C0020D802002045E600080E
:107D300046E6000810B5FFF707FC00281CD0FFF747
:107D4000A1FB002818D00D4A0D489169491E0B0E61
:107D500003700B0C43700B0A8370C17011690B0E1A
:107D600003710B0C43710B0A8371C17108201063FE
:107D7000BDE81040FFF704BC10BD0000D802002091
:107D80002E27002070B5FFF7DFFB002830D0FFF76B
:107D900079FB00282CD017480021174A0170417048
:107DA00081700821C17091690C240B0E03710B0CBA
:107DB00043710B0A8371C1710221017211690B0CAD
:107DC00043720B0A8372C1720C4814630546FCF7B8
:107DD000CCFC0C2808D9094920461F39FCF7D0FCF7
:107DE00029462046FCF7CCFCBDE87040FFF7C8BB35
:107DF00070BD00002E270020D8020020DF2C0020BC
:107E000010B5FFF7A1FB002835D01B4870211B4B94
:107E1000017000214170DC685A6832EA040406D01F
:107E200006248470282404734173DA6008E0DAB110
:107E3000134A127BE2B10522827020220273417341
:107E4000C1700171417181710A22C2710172417266
:107E50008172C1728173C1730174417412201863FD
:107E6000BDE81040FFF78CBB022282703A22E5E7A2
:107E700081700173E3E710BD2E270020D802002097
:107E8000D72C0020054910B5002008600449FCF7F4
:107E900077FC044907200870012010BD98020020DB
:107EA000D72C0020D8020020FFF7ECBF70B5FFF7F9
:107EB0004BFB00281DD00F4820220021027041708A
:107EC0000D4CC1770320226320700C4809490078CB
:107ED00040F0800000F044FC09480546FCF745FCF2
:107EE000216B401A2946FCF74BFC05490120083953
:107EF000087370BD2E270020D802002045E6000838
:107F0000DF2C002010B508490848FCF739FC084868
:107F10000D220549007840F0800000F021FC054961
:107F20000520087010BD0000D72C00205553425387
:107F300045E60008D802002010B5044600F0D6FB44
:107F4000200605D504F00F014FF48030884001E091
:107F50000120A04002490A681043086010BD0000DB
:107F6000940200200A4810B5817C00F11F0429B159
:107F700001202073BDE81040FFF7C4BFC07C054955
:107F800000F00100486005F013FA0020F1E700005E
:107F9000B82C0020D8020020024900200873FFF707
:107FA000B1BF0000D72C002010B51048FCF7DDFB56
:107FB0000E4C173478B1A4F11F00007B000604D5E5
:107FC0000B48007840F0800001E00A480078FFF795
:107FD000B3FF012004E0FFF755FA002805D0002088
:107FE0002073BDE81040FFF78DBF10BDC02C0020EE
:107FF00045E6000846E600087047000070B5114AE3
:10800000054600F00F0052680F4B02EB001082682B
:10801000808903EB4203C0F309040022661C07E0D9
:1080200033F8040B01F8010B000A01F8010B521C94
:10803000B2EB560FF4D34FF440512846FDF772F8D7
:10804000204670BD0402002000600040FFF74ABADD
:108050007CB54F4EA6F11C05307805F1140410F0E4
:108060001F0002D001286CD17BE04A49F0780B78E0
:1080700047491C39CA781C310628897810D006DC9B
:10808000012809D0022814D003287FD141E0072815
:108090002AD00F287AD155E03F48206012205EE0B8
:1080A000002B73D01AB13D4820600A2057E03C48AD
:1080B000FAE70BB9012A69D01AB13A4800900020BA
:1080C0000BE03948FAE7009A13782BB1D378967809
:1080D00046EA03231A440092401C8142F3D10098DF
:1080E000017871B3206036E05BB31AB12F4800907D
:1080F00000200BE02E48FAE7009A13782BB1D378D2
:10810000967846EA03231A440092401C8142F3D138
:10811000E5E728480090032901D0002008E001F09D
:1081200015FE0BE000990A780AB111440091401C39
:10813000B1788142F6D10098017811B120600078C1
:108140000DE023E01C48007800281ED01B4800905A
:1081500020600178D1B1C178827842EA0120019093
:1081600005E001A9684600F02DF800280DD0A1888F
:108170000198814208D9124980B2A0800978491E2D
:10818000084201D10120287101207CBD00207CBD66
:10819000A40200202DE60008E6E6000802E7000839
:1081A000F8E6000884E80008EFE70008AEE90008F8
:1081B00019E9000844EA00082EE60008B6E70008BE
:1081C00032E6000830B5164A164B154CD278164DDB
:1081D00024791B78212A02D0222A1ED114E09C4245
:1081E0001BD1124A1378124A12780BB9012A14D003
:1081F00042B1104A026010460F4A128810442860AB
:10820000092007E00D4AF5E79C4206D10C4828609A
:108210000C4800880860012030BD002030BD0000FF
:10822000A402002033E600089C0200202DE600088E
:108230008B02002084E80008E4E60008EFE700086D
:10824000C0E60008E2E6000870B51D481C4C007846
:10825000A4F1080410F01F000AD0194AA4F1140573
:10826000184B69781279012806D0022826D109E036
:108270001348163820601FE001B3A87882421DD24F
:10828000002015E002F08F00020605D500F00F0671
:108290004FF48032B24001E00122824009B9000768
:1082A0000CD1A868104209D0E868104000D0012025
:1082B0001870000A58702360012070BD002070BD46
:1082C000A40200206C26002070B5264B02461946F9
:1082D0001878498810F01F00A3F11C0604D001286B
:1082E00029D0022827D111E0012924D132B101205F
:1082F00000F034FAF08840F0020005E0002000F0C1
:108300002DFAF08820F00200F08029E0187900F0C2
:108310008F04200605D504F00F004FF4803585400A
:1083200001E00125A540707828B1200703D0B0688E
:10833000284200D009B1002070BD2AB1204600F0CB
:10834000D5F9F06828430AE03069284208D1204670
:10835000FEF754F82046FFF779FEF068A843F06076
:10836000012070BDA40200202DE9F05F5B480026CB
:10837000017811F01F0F6FD1584F80781C3FB14624
:108380004FF0010A4FF4803B00287BD0544801781D
:108390003846C07809B901285ED008B1514C6CE06C
:1083A000514C6AE06078022804D0042847D00528A0
:1083B00061D146E049486179807881423AD178704C
:1083C00020794B49B8700020484A098802E002F839
:1083D0000090401C8842FAD30125B8460AFA05F0FD
:1083E000D8F80810084202D02846FEF7C2F9D8F89B
:1083F00008100BFA05F0084203D045F08000FEF7A4
:10840000B8F96D1C102DE9D34FF00110C8E902092D
:108410000120C8F81090FEF749F8E0794006B8F856
:10842000060002D540F0010001E020F00100A8F8AC
:10843000060020E0E078A17841EA00201CE0E67820
:1084400019E0C6B9A07800F08F05280605D505F01B
:108450000F010BFA01F002E03AE00AFA05F0B96800
:1084600001432046B960FDF7D5FF2846FEF784F9A1
:10847000284600F021F9207804442078002891D182
:1084800021E0FFE74D4687F8019001245E46B96878
:108490000AFA04F0084202D02046FEF76AF9B968E9
:1084A00006FA04F0084203D044F08000FEF761F9B8
:1084B000641C102CEBD34FF00110C7E9020500201B
:1084C0003D61FDF7F3FF054879788078884202D056
:1084D0000020BDE8F09F0120FBE70000A40200207F
:1084E0002DE6000884E80008EFE70008F40100200A
:1084F00030E600082DE9F84F454800273E46007851
:10850000BA4600F01F00B94601287ED140491C3907
:108510004878002876D0002000903E48027808462F
:10852000C0780AB9012870D08B4608B13A4C65E092
:108530003A4C63E06078022804D004280CD0052867
:108540005AD11BE061799BF80100814254D0E07858
:10855000A17841EA002050E02D48A778E67801791B
:108560004FF00009B94247D18078B04244D1012090
:1085700000902B4810F807A0C6553DE02449087923
:10858000B84239D1A07800F08F085FEA086005D5BD
:1085900008F00F004FF48035854002E0012505FA10
:1085A00008F58878B04215D1DBF808102046294339
:1085B000CBF80810DBF80C10A943CBF80C10FDF732
:1085C00029FF4046FEF7D8F8404600F075F849EA22
:1085D000050911E056450FD119EA050F0CD1DBF85A
:1085E00008104046A943CBF80810DBF80C10A9434B
:1085F000CBF80C10FEF7BDF8207804442078002852
:1086000098D10098BDE8F88FFFE70020FAE7000056
:10861000A40200202DE6000884E80008EFE7000827
:10862000F40100201C48002202601C48006818B1B8
:108630004FF40050410001E0002001460843184972
:108640000968002901D04FF4007140EA010002D00E
:108650004FF4807101E04FF0000140EA0100114940
:1086600040F41C40086011480F494FF0500302606D
:1086700048684FF09002036082604FF0D0020A8099
:1086800048F2FF71C1600A494FF448500860094937
:108690004FF0800008607047445C004070E60008BE
:1086A0006CE60008405C004004020020505C004082
:1086B000005C00404C5C0040FCF720BD10B5FDF7AD
:1086C0001DFEBDE81040FFF7EFBB10B5FEF792FCB2
:1086D000BDE81040FDF716BE002903D1024940F065
:1086E00080000860704700004C5C004041F21001BF
:1086F000FCF718BD082202490020FFF77FBC0000EC
:10870000A4020020024881684FF4007001F092BC7E
:10871000F000002000221146802000F021B8000067
:108720000248034902780020FFF768BC32E60008DF
:108730006C2600200448016841F0080101600168CE
:1087400041F0040101607047405C0040024801684C
:1087500021F0080101607047405C00407047000054
:10876000F0B5174F154606467A6800F00F0002EB89
:108770000012144B126803EB420400236A1C08E049
:1087800091F801C011F802EB5B1C4EEA0C2C44F886
:1087900004CBB3EB520FF3D3796801EB00114D60BA
:1087A000094901EB8000D0F8000CC0F3011001284A
:1087B00003D030213046FCF7B5FC2846F0BD000060
:1087C0000402002000600040005000404FF4802070
:1087D000FCF7C2BC4FF0E0214FF48010C1F88001DB
:1087E000FFF790BF10B5002A06DA22F00042D21D32
:1087F00022F00703102203E0D21C22F003030C2214
:1088000013B19C188C4201D9012010BD02440144CF
:108810008360C0E90021C91AD018884202D81060CC
:108820000246F9E70020106010BD000010B50446B4
:1088300003F084F9002805D04FF6FF71DFF808C077
:10884000206800DF10BD00009DB5000810B504468B
:1088500003F074F9002803D0DFF808C0206800DFB7
:1088600010BD0000EDB400082DE9F04116460F469A
:1088700000281CD1EFF3108000F0010572B6002330
:108880001A461946184600F0EFF9040003D13146A4
:10889000384600F02BFA05B962B6002C07D1EFF389
:1088A0000380C00603D1BDE8F04105F079B8BDE80A
:1088B000F081000010B524220D490E48FBF7D2FECE
:1088C00005F044F90C4805F03BF904F041FF0B4971
:1088D0000B4A0C4B08604FF40071B0FBF1F01160D3
:1088E000094901221A60086009490848086010BD5A
:1088F00098E20008981600202D9100080C03002033
:10890000E8020020EC020020F00200209814002071
:10891000F402002008B50028009001D0401EFAE7BC
:1089200008BD00B591B0FDF717FB402801D94020E4
:1089300000E060B181B2684604F07CFA010006D024
:108940006846FDF731FB10B1002001F0A1FB04F0F7
:1089500001FB0146402801D9402100E059B1684699
:10896000FDF706FB38B181B2684604F0D1FA10B1C8
:10897000002001F08DFB01F0AFFB11B000BD000045
:10898000044841788078814201D00120704700205E
:10899000704700008C01002030B50546EFF31080D1
:1089A00000F0010472B6284600F007F8A968081A1A
:1089B000401E002C00D162B630BDEFF3108101F0F3
:1089C000010372B6D0E900128A4201D3501A02E0C4
:1089D00080681044401A002B00D162B67047EFF354
:1089E000108313F0010F72B6C0E902214FF00001AD
:1089F0000160416000D162B67047000070B5044666
:108A0000EFF3108000F0010572B6D4E9000188424E
:108A100001D0012000E0002043220EA1FFF724FF37
:108A2000E16820680E5C401C2060A16888420CD37D
:108A300002D14FF0010001E04FF000004FF048027A
:108A400004A1FFF711FF0020206005B962B630468F
:108A500070BD00002E2E5C2E2E5C2E2E5C736F756A
:108A60007263655C6461706C696E6B5C6369726390
:108A70005F6275662E63000070B50446EFF31080E8
:108A800000F0010572B66268E06881546068401CBD
:108A90006060A16888420CD302D14FF0010001E070
:108AA0004FF000004FF0310209A1FFF7DDFE00207A
:108AB0006060D4E90001884201D0012000E000207C
:108AC000362203A1FFF7D0FE002D00D162B670BDA3
:108AD0002E2E5C2E2E5C2E2E5C736F757263655C81
:108AE0006461706C696E6B5C636972635F6275660A
:108AF0002E6300002DE9F04114460E460746FFF7AD
:108B00005CFF844200D220460546002404E038463B
:108B1000FFF774FF3055641CAC42F8D32846BDE81B
:108B2000F0812DE9F04114460E460746FFF734FF69
:108B3000844200D220460546002404E0315D3846D8
:108B4000FFF79AFF641CAC42F8D32846BDE8F081D9
:108B500010B508494FF400742246A1F11000FFF748
:108B60003EFF22460449BDE81040A1F11000FFF786
:108B700036BF00005C2200206C24002000F0B6BB51
:108B800000F0B4BB02488079002800D00120704773
:108B90009C2C00200248C079002800D0012070479A
:108BA0009C2C00200248007A002800D00120704749
:108BB0009C2C00202DE9F0414B212148FBF78CFD36
:108BC0004B272048FBF7D1FD1F4E1E4C1C4DB042D9
:108BD00015D16079217941EA00234B2B01D21A4645
:108BE00001E04FF04B0201D91F4601E04FF04B0767
:108BF00014491348FBF766FC002085F847004B2119
:108C00001048FBF769FD0F493046FBF7B9FD2771A6
:108C1000380A60714122E91DE01DFBF753FC95F80D
:108C2000490015F8481F41EA002204F8482F100AAD
:108C30006070A878A070BDE8F04100F08BB800002B
:108C4000502C0020004F0020646C766B10B5054C52
:108C50004121E01DFBF740FD002004F8480F607043
:108C600010BD0000004F00202DE9F0471A4F81464B
:108C70001D4616468846F81DFBF7AEFB441C5FEA0E
:108C8000090002D04146FBF727FD002006B13080E5
:108C900005B12870F87900281CD0444502D8F91D88
:108CA000224604E0A4EB0800C1194246C91DB9F1EF
:108CB000000F06D097F8490097F8483043EA0020A3
:108CC000308016B14846FBF7FDFB15B197F84A0016
:108CD00028700120BDE8F087004F0020024880790D
:108CE000002800D001207047004F00202DE9F041FE
:108CF00088460746FBF770FB124D441C412631465F
:108D0000E81DFBF7E9FC412C02D83946224602E077
:108D1000413CE11932462C46E81DFBF7D3FB84F8B1
:108D200048804FEA182084F8490000F011F908B192
:108D3000012003E000F00EF900B1022084F84A009F
:108D4000BDE8F081004F00200149887170470000A4
:108D5000004F002070B5002211461046FBF790FD31
:108D6000092221492148FBF7ADFB214C227810460E
:108D7000627840EA0220A278E17840EA02401D4D84
:108D800040EA0160A8420FD16079217941EA0020D0
:108D9000092804D26079217941EA002200E0092201
:108DA00013491248FBF78EFB10492846FBF7E8FCF5
:108DB0000E490920888020780146607841EA002128
:108DC000A07841EA0041E07841EA0061A94205D17A
:108DD0006079217941EA0020092804D2BDE8704079
:108DE000024801F0C1BC70BD5AEB00089C2C002069
:108DF00000F00108646C766B02498871084601F046
:108E0000B3BC00009C2C00200249C871084601F048
:108E1000ABBC00009C2C002002490872084601F0FF
:108E2000A3BC00009C2C00202DE9F0410F46064613
:108E30004FF0FF340025DFF83C8012E0705D082120
:108E400002F0FEF884EA006408204146002C02DAB1
:108E500081EA440400E06400401E10F0FF00F5D1F8
:108E60006D1CBD42EADB2021204602F0E9F8C04338
:108E7000BDE8F081B71DC1042DE9F0410E4617464B
:108E80002021C04302F0DCF804460025DFF83C80D6
:108E900012E0705D082102F0D3F884EA0064082033
:108EA0004146002C02DA81EA440400E06400401EDE
:108EB00010F0FF00F5D16D1CBD42EADB20212046F9
:108EC00002F0BEF8C043BDE8F0810000B71DC10448
:108ED00070B514460D460646B2F5806F07D24FF4C2
:108EE000EE720AA10020FFF7BFFC022070BD00F067
:108EF000F1FB08B10E2070BD2A462146304600F035
:108F00002FFD0028F7D01C2070BD00002E2E5C2EF7
:108F10002E5C2E2E5C736F757263655C6461706C81
:108F2000696E6B5C647261672D6E2D64726F705C2C
:108F30006961705F666C6173685F696E74662E63E9
:108F400000000000C10600F00F0000D40930704797
:108F5000002070470120704710B500231A4600F02A
:108F6000FDF9002800D0012010BD10B504F004FB6D
:108F7000012800D0002010BD2DE9F041154E144D00
:108F80004FF000643078012806D04FF49B7212A194
:108F90000020FFF769FC09E0B078022748B14FF4E0
:108FA0009E720DA10020FFF75FFC37700220BDE824
:108FB000F081204600F02CF810B137701E20F6E743
:108FC00004F58064AC42F4D30120B0700020EEE7D9
:108FD00000400008680100202E2E5C2E2E5C2E2EF4
:108FE0005C736F757263655C6461706C696E6B5CF9
:108FF000647261672D6E2D64726F705C6961705F61
:10900000666C6173685F696E74662E6300000000B1
:1090100070B5204E04463078012805D0FE221EA1EE
:109020000020FFF721FC18E04FF48060B4FBF0F162
:1090300000FB1141022511B14FF4837208E0F17871
:1090400069B1D6E902121144A14208D040F20D12D2
:1090500011A10020FFF708FC3570022070BD1C4AEA
:109060001C49944201D38C4211D30121F170C6E90D
:109070000240204600F098FF222803D00028EDD0BF
:10908000357070BD204600F025FB0028F9D0357002
:109090001D2070BD680100202E2E5C2E2E5C2E2E11
:1090A0005C736F757263655C6461706C696E6B5C38
:1090B000647261672D6E2D64726F705C6961705FA0
:1090C000666C6173685F696E74662E6300000000F1
:1090D0000040000800F001084FF480607047000075
:1090E00010B5242804D2064951F82000002805D1E3
:1090F000832204A10020FFF7B7FB0AA010BD0000E7
:1091000090E100082E2E5C2E2E5C2E2E5C736F7567
:109110007263655C6461706C696E6B5C6572726FC2
:10912000722E630000000000704700002DE9F0413E
:109130001E4615460C46074604F09CFD2B48017F51
:10914000032951D0022C0CD0ECB1012C4CD1016878
:10915000A94249D1407F98B3BDE8F041032003F014
:1091600023BD0068A8423FD1304604F0CDFA044642
:10917000304604F0CDFA0646384602F09FFE03461C
:109180002246314617E0384602F098FE03282BD0DD
:10919000304604F0B7FA800726D4384602F08EFE37
:1091A0000746304604F0B0FA0446304604F0B0FA00
:1091B00001463B4622462846BDE8F04103F0A8BCE4
:1091C00024220B490948FBF74DFA03F0CDFA094870
:1091D0008178012903D14178022900D181700348A7
:1091E000DFF814C0243000DFBDE8F08198160020BD
:1091F00098E200088C010020EDB400082DE9F04150
:109200001B4E04461746B07F8846550258B929467A
:10921000404602F00FFE032802D0214603F024FC52
:10922000B07F00280FD07068A0420CD8B068A04270
:109230000BD008D9F068401C00D1F460F068A0425F
:1092400000D20446F460BDE8F081B0692A461044BB
:10925000B061E019B060F07F20B1BDE8F0410020BE
:1092600003F0A2BC41462046BDE8F04103F0A4BB98
:1092700098160020F0B518A185B00968049102780D
:10928000002104AB5C5C944224D0491C0329F9D32F
:1092900012A1002291E878006F46815C8DE8780089
:1092A000A1F1610CBCF1190F14D9202901D20529B3
:1092B00010D14FF0000C17F80CE08E450AD00CF1DD
:1092C000010CBCF1100FF6D3521C0B2AE5D3012080
:1092D00005B0F0BD0020FBE7E5002000222A2B2C82
:1092E0002E2F3A3B3C3D3E3F5B5C5D7C70B50D4DA7
:1092F00000202C7874B100212970A97809B100F000
:10930000DFFA022C05D06978032902D0002800D1A9
:10931000212070BD40F2331203A10020FFF7A4FA10
:10932000022070BD3C0100202E2E5C2E2E5C2E2EC5
:109330005C736F757263655C6461706C696E6B5CA5
:10934000647261672D6E2D64726F705C666C617300
:10935000685F6465636F6465722E63003EB51D4689
:109360000446302901D3012000E00020402211A151
:10937000FFF77AFA0C2204F120016846FBF7A2F805
:109380001949019888420BD118490098884201D1A7
:1093900002203EBD1549FC39884208D101203EBD5E
:1093A000204604F0C3F800B90DB103203EBD0020F3
:1093B0003EBD00002E2E5C2E2E5C2E2E5C736F7533
:1093C0007263655C6461706C696E6B5C647261672A
:1093D0002D6E2D64726F705C666C6173685F64657E
:1093E000636F6465722E6300089996978F9E939BB6
:1093F0002DE9FF5F4FF00006DDF838905FEA0308C3
:1094000093460746344613D05FEA090010D0002087
:10941000C8F800000546C9F80000FFF799FDDFF81D
:1094200094A088B12448022F04D0032F0AD027E04B
:10943000652238E0BBF1000F04D00199814201D0D0
:1094400018261DE0054612E0FFF784FDB8B1012F94
:1094500002D0032F0ED013E04FF00061BBF1000FDC
:1094600004D00198884201D0172609E00D46DAF8A9
:10947000004005E0114885681148046800E019269D
:10948000FFF788FB08B9012F04D02EB1304604B095
:10949000BDE8F09F1926F9E724B1C8F80050C9F8D3
:1094A0000040F3E79D2207A10020FFF7DDF902202D
:1094B000EDE7000094E200080040000828020020C8
:1094C00060E200082E2E5C2E2E5C2E2E5C736F75D3
:1094D0007263655C6461706C696E6B5C6472616719
:1094E0002D6E2D64726F705C666C6173685F64656D
:1094F000636F6465722E630010B50C4C207830B138
:10950000AC220BA10020FFF7AFF9022010BDFF2213
:1095100030211448FBF7D8F801202070002060703B
:109520006060A060E060A070E07010BD3C010020B1
:109530002E2E5C2E2E5C2E2E5C736F757263655C16
:109540006461706C696E6B5C647261672D6E2D6412
:10955000726F705C666C6173685F6465636F64658D
:10956000722E63001C0C00202DE9FE4F474F05466C
:10957000894638781446012807D0C12244A100202A
:10958000FFF772F90220BDE8FE8FF8784FF0010A6C
:1095900018B9BD60FD6087F803A0B8784FF00308E4
:1095A000002852D1F868854201D1012100E0002154
:1095B0002044F86031B37868C0F13006A64200D983
:1095C00016464049324608444946FAF77BFF786818
:1095D000A41B3044B1443544786030282BD302D1E9
:1095E0004FF0010001E04FF000004FF0E30228A12E
:1095F000FFF73AF9D7E9011201233248FFF7AEFE2F
:10960000787001E087F8018001A8009002AB012288
:109610007878B968FFF7ECFEE8B9B878FC2280F0FA
:1096200001001BA1FFF720F9019800F0EDF890B9B7
:1096300087F802A001E0B87880B1D7E9012021497C
:1096400000F054F838B9B87840B122464946284667
:1096500000F04CF810B187F8008094E77878012882
:1096600004D0022804D003280DD103E0164803E0FB
:10967000164801E01648C0682919814203D3022028
:10968000387010207FE700207DE700003C010020BB
:109690002E2E5C2E2E5C2E2E5C736F757263655CB5
:1096A0006461706C696E6B5C647261672D6E2D64B1
:1096B000726F705C666C6173685F6465636F64652C
:1096C000722E63001C0C00200040000800F001080E
:1096D0002802002010B5EFF3108101F0010472B6EA
:1096E000FBF7D3F8002C00D162B610BD2DE9F84F7E
:1096F000364E04460025707817468846012805D066
:109700007B2233A10020FFF7AFF80BE070694FF028
:10971000020A844209D283222DA10020FFF7A4F877
:1097200086F801A00220BDE8F88FF0784FF0010B19
:1097300048B9204602F07EFA050002D086F801A062
:1097400042E086F803B0B1464E46D6E901028118E0
:10975000A14214D8B1698B682A499847050002D004
:1097600089F801A030E0B168FF2226480091FAF79D
:10977000ABFF86F802B071680098084470600FB3C0
:10978000D6E903010844A04204D8204602F052FA68
:109790000500E5D17068B168B146201A0E1AB742CB
:1097A00000D23E461749324608444146FAF78AFE3F
:1097B00036B1002089F802003444B044BF1BC3E72F
:1097C0000120F7E7C9F814402846ACE74C01002017
:1097D0002E2E5C2E2E5C2E2E5C736F757263655C74
:1097E0006461706C696E6B5C647261672D6E2D6470
:1097F000726F705C666C6173685F6D616E616765E6
:10980000722E63004C0C002070B51E4D0446687823
:1098100008B1472224E014B3606800B3A068F0B137
:10982000E068E0B12069D0B16069C0B1A069B0B1B1
:10983000FF224FF480611448FAF746FF0126AE700C
:109840000020E8706860A860E8602861C5E9050448
:1098500020688047040008D1287838B110E04D22F4
:109860000AA10020FFF700F8022070BDA869006976
:109870008047040004D0A86940688047204670BD36
:109880006E70FBE74C0100204C0C00202E2E5C2E4D
:109890002E5C2E2E5C736F757263655C6461706CF8
:1098A000696E6B5C647261672D6E2D64726F705CA3
:1098B000666C6173685F6D616E616765722E6300CF
:1098C00070B5184C0025607810B1012807D00FE062
:1098D000CB2215A10020FEF7C7FF022070BDA078A3
:1098E00030B9A0691D498368D4E90102984705464B
:1098F000A069406880470646FF224FF48061174800
:10990000FAF7E2FE0120A0700021E1706160A16021
:10991000E1602161616161700EB1304670BD284621
:1099200070BD00004C0100202E2E5C2E2E5C2E2ED1
:109930005C736F757263655C6461706C696E6B5C9F
:10994000647261672D6E2D64726F705C666C6173FA
:10995000685F6D616E616765722E63004C0C00205C
:1099600010B5EFF3108303F0010472B6FAF792FF1B
:10997000002C00D162B610BD03460122014900202F
:1099800018470000C81600202DE9F0411C4D28683A
:1099900020F00F002860286840F0080028604FF091
:1099A0000108C5F810800520FEF7B4FF144E0836F4
:1099B0003068144F40F30004641C3878A04206D08D
:1099C0000CB1002000E0022002F0C4FF3C709CB902
:1099D0003068C00710D00020296821F00F012960ED
:1099E000296841F007012960054A1032C2F8008059
:1099F00020B10020BDE8F0810120EDE70120F9E76A
:109A0000000C0140B80100202DE9F843394CA06951
:109A100040F01C00A06101210846FBF76DFD01210B
:109A20003548FBF76DFCA06940F00400A0613348A5
:109A30004FF400440460DFF8C480ADF80040032513
:109A40008DF802501026A8F114088DF803606946BD
:109A50004046FBF706FC0620FBF7A4FDE011ADF83D
:109A600000008DF8025018208DF80300694640462A
:109A7000FBF7F7FBA711ADF800708DF802508DF8D9
:109A8000036069464046FBF7ECFB39464046FBF76E
:109A900063FC0120ADF800004820194F8DF8030049
:109AA00069463846FBF7DDFBFFF752FAADF8004098
:109AB0008DF802508DF8036069463846FBF7D1FBFC
:109AC00021463846FBF748FC0E48FEF723FFFFF718
:109AD0005BFF00280BD1BFF34F8F0B4801680B4A87
