:020000040800F2
:10000000B837002001010008091F0008091F000877
:10001000091F0008091F0008091F00080000000050
:10002000000000000000000000000000091F0008A0
:10003000091F000800000000091F0008190100083E
:100040001B0100081B0100081B0100081B01000820
:100050001B0100081B0100081B0100081B01000810
:100060001B0100081B0100081B0100081B01000800
:100070001B0100081B0100081B0100081B010008F0
:100080001B0100081B0100081B0100081B010008E0
:10009000CD6400081B0100081B0100081B010008BB
:1000A0001B0100081B0100081B0100081B010008C0
:1000B000154400081B0100081B0100081B01000873
:1000C0001B0100081B0100081B0100081B010008A0
:1000D0001B010008014900081B010008F549000840
:1000E0001B0100081B0100081B010008DFF80CD0F1
:1000F00000F0DEFA004800472D7B0008B8370020EA
:100100000648804706480047FEE7FEE7FEE7FEE7B1
:10011000FEE7FEE7FEE7FEE7FEE7FEE7B543000881
:10012000ED00000840EA01039B0703D009E008C97D
:10013000121F08C0042AFAD203E011F8013B00F8AC
:10014000013B521EF9D27047D2B201E000F8012BF8
:10015000491EFBD270470022F6E710B513460A4647
:1001600004461946FFF7F0FF204610BD421C10F868
:10017000011B0029FBD1801A704710B5002200E056
:10018000521C835C8C5CA34201D1002BF8D1D8B205
:10019000E1B2401A10BD2DE9F05F93460F4680464C
:1001A0000446002606F0B2FAD0F80090824614F811
:1001B000015B2DB100F070F80068405DC007F6D11A
:1001C0002B2D02D02D2D1AD0641E0021CAF800104C
:1001D0005A463946204600F063F8014627B1386890
:1001E000A04201D1C7F80080DAF80000022809D047
:1001F000CAF80090700505D54842BDE8F09F46F466
:100200008066E2E70846F8E730B50B460146002075
:100210002022012409E021FA02F59D4205D303FAC8
:1002200002F5491B04FA02F52844151EA2F1010249
:10023000F1DC30BD2DE9F05F0546002092469B467B
:1002400088460646814640241BE0284641464746EC
:10025000224600F04EFA53465A46C01A914110D336
:1002600011461846224600F035FA2D1A67EB0108B0
:100270004F4622460120002100F02CFA17EB00091E
:100280004E41201EA4F10104DFDC484631462A46D7
:100290004346BDE8F09F0000004870473C860008D8
:1002A0002DE9F05F82460078002715468B460AF15B
:1002B0000104B946302801D09DB113E014F8010BB8
:1002C0000127782803D0582801D045B10AE00DB1A4
:1002D000102D07D10027102514F8010B02E0082586
:1002E00000E00A250026B0460EE005FB080005FBED
:1002F00006F1012701EB10461FFA80F8B6F5803FA2
:1003000000D3B94614F8010B294600F014FA00286E
:10031000EBDABBF1000F05D00FB1641E00E05446CC
:10032000CBF80040B9F1000F06D006F0EFF902213A
:100330000160C81EBDE8F09F48EA0640FAE72DE9D3
:10034000FE4F804681EA0300C00F0C46009021F06A
:10035000004123F00045B8EB0200A94105D2404618
:10036000214690461C460B46024623F000401043AF
:1003700047D0270DC7F30A00C3F30A510290401A71
:10038000019040286BDAC3F3130040F4801B0098FF
:10039000924620B10023D2EB030A63EB0B0B0198CA
:1003A0005946C0F14002504600F094F906460D4609
:1003B00050465946019A00F0ACF910EB0800614133
:1003C000002487EA115284EAE7731A4340D0009A66
:1003D00062B3019A012A4FEA075215DC001B61EB58
:1003E00002014FF0004202EA0752CDE90042001C30
:1003F00041F5801132462B4600F0BAF903B0BDE852
:10040000F08F40462146F9E7001B61EB0201001C1A
:1004100041F5801300185B412018A2F5001747EB47
:10042000030140EAD570B6196D4111E06D084FEA3D
:10043000360645EAC0754FEA0752001B61EB020120
:10044000001C41F5801149084FEA30000019514164
:1004500032462B4603B0BDE8F04F00F07AB9009861
:10046000012240000023D0EB020263EBE07300980E
:1004700021464FEAE074B8EB000061EB0401E9E7C4
:1004800083F000435BE781F0004158E72DE9FE4F20
:1004900081EA030404F0004421F0004100944FF08D
:1004A000000B23F0004350EA01045ED052EA03043B
:1004B0005BD0C3F30A54C1F30A552C44A4F2F334BD
:1004C0000194A0FB0254C1F3130141F48011C3F362
:1004D000130343F4801301FB024400FB034E840A20
:1004E000970A44EA815447EA8357A4FB07680295B8
:1004F0008D0A05FB07854FEA932C04FB0C54270556
:10050000029D4FEA065847EA1637B5EB08056EEB31
:10051000070C870E920E47EA811742EA8312A7FB67
:100520000201B6EB0B0164EB00042B0D43EA0C3324
:100530005E1844EB1C50DA465146E7FB0201C5F356
:1005400013044FEA0B3343EA14534FEA0432019C7D
:1005500043EA0603A4F10C040294009CCDE900B424
:1005600000F006F903B0BDE8F08F00200146F9E77E
:100570002DE9F04D81EA030404F0004B21F0004521
:1005800014464FF0000A23F0004150EA050220D043
:1005900054EA01021DD0C5F30A570246C5F31303FE
:1005A000C1F31300C1F30A5640F4801543F48013DD
:1005B000A7EB0608101BD64608F2FD3873EB0500C2
:1005C00002D308F1010801E092185B41B8F1000F75
:1005D00003DA00200146BDE8F08D00204FF48011C1
:1005E000064684460EE0171B73EB050705D3121B66
:1005F00063EB050306434CEA010C49084FEA30005F
:1006000092185B4150EA0107EDD152EA030012D083
:1006100082EA040083EA0501084305D0101BAB41C0
:1006200006D20122002306E000224FF0004302E040
:100630006FF0010253101AEB06004CEB085110EB5F
:100640000A0041EB0B01BDE8F04D00F082B8C1F3A8
:100650000A52C1F3130140F2FF3341F480119A4270
:1006600002DA00200146704740F233439A42A2F278
:10067000334202DC524200F03CB800F02BB80000DC
:1006800030B5041E71F1000404DB4FF00044404219
:1006900064EB0101141E73F1000405DB1C464FF0EE
:1006A0000043524263EB0403994208BF904230BDBD
:1006B000064C074D06E0E06840F0010394E80700AF
:1006C00098471034AC42F6D3FFF714FDEC870008CE
:1006D0000C880008202A04DB203A00FA02F10020EE
:1006E00070479140C2F1200320FA03F31943904070
:1006F0007047202A04DB203A21FA02F000217047DB
:1007000021FA02F3D040C2F1200291400843194679
:100710007047202A06DBCB17203A41FA02F043EA61
:10072000E07306E041FA02F3D040C2F120029140AA
:100730000843194670473A2800D2303820F020028A
:10074000412A01D3A2F13700884201D34FF0FF3094
:10075000704710B5141E73F1000408DA401C41F113
:10076000000192185B411A4301D120F0010010BD35
:100770002DE9F04D92469B4611B1B1FA81F202E0AB
:10078000B0FA80F220329046FFF7A4FF04460F46ED
:1007900040EA0A0041EA0B0153465A46084313D087
:1007A000114653EA010019D0C8F140025046FFF744
:1007B000A0FF05460E46504659464246FFF78AFFBF
:1007C000084305D0012004E020463946BDE8F08DFD
:1007D0000020054346EAE0762C4337430A98630538
:1007E000E40AA0EB08000022FD0A44EA47540A305C
:1007F00002D500200146E9E7010510196941DDE94C
:10080000084500196941BDE8F04DA2E770B58C18A4
:1008100010F8015B15F0070301D110F8013B2A1114
:1008200006D110F8012B03E010F8016B01F8016B01
:100830005B1EF9D12B0705D40023521E0DD401F8FD
:10084000013BFAE710F8013BCB1A921C03E013F8C6
:10085000015B01F8015B521EF9D5A142D8D30020FB
:1008600070BD000008B51348806940F01D001149B3
:1008700088610121104801F02FFA1049104801F059
:10088000A0F91049104801F09CF91049104801F0F6
:1008900098F94FF48050ADF8000004208DF8030063
:1008A00003208DF802006946074801F08AF902F03A
:1008B0007BFC08BD00100240000230009883000855
:1008C000000801409C830008000C0140A083000840
:1008D0000010014070B506460D46307808B9012475
:1008E00000E03478012C02D0022C0CD105E001206C
:1008F0000949087002F05EFE09E00220064908700E
:1009000002F01EFE03E000202870012070BD00BF31
:100910002C700120FAE700008C03002018B5024675
:100920000B461078547840EA04210C4800680C4CBF
:10093000B0FBF4F0801C0324B0FBF4F04143084604
:10094000009000BF00BF009C641E0094002CFAD1F0
:1009500000BF00201870012018BD0000000000201A
:1009600040420F0010B5044600200449087002F010
:100970000FFE00202070012010BD00008C0300201D
:1009800002460020052A1AD008DC012A0FD0022ACC
:100990000ED0032A0DD0042A21D10BE0062A0FD055
:1009A000F02A0ED0FE2A16D0FF2A18D10DE016E04C
:1009B00015E014E00B4B1B680B6004200FE00EE009
:1009C0000DE003230B70012009E040230B7000238E
:1009D0004B70022003E040230B70012000BF00BFDA
:1009E00070470000A483000870B504460D46134804
:1009F0000078022804D000BFFF202870012070BDBD
:100A000021780E48C175C07D0C49897D884200DB84
:100A1000F2E7082001F0AEFA6078A17840EA012000
:100A2000E17840EA0140217940EA0166304602F06F
:100A300019FA002028700120E1E700008C03002053
:100A4000F0B502460E4612F8013B114883750025A9
:100A5000002109E012F8014B0D48183044540830C9
:100A600020F811502544491C9942F3D3002108E095
:100A700007481830405C2D1A0548303020F81150D6
:100A8000491C9942F4D3002030700120F0BD0000D1
:100A90008C03002070B506460C46114800780228E9
:100AA00004D000BFFF202070012070BD31780C48B9
:100AB000C175C07D0A49897D884200DBF2E70E20BE
:100AC00001F058FA01F080FC0546002020706570A6
:100AD000280AA070280CE070280E20710520E4E799
:100AE0008C0300202DE9F04704460D46002005F850
:100AF000010B4FF0010814F8019B12E014F8017B80
:100B00002A462146384601F053FD07F03F0606B954
:100B10004026F01DC608344407F0800008B1354473
:100B2000B0445FEA0900A9F10109E7D14046BDE8F8
:100B3000F08700002DE9F04F87B006460C460020F4
:100B400005900025A346A41CD9490870814604904D
:100B500016F8011BD748C175C07DD649897D8842EA
:100B600000DB9BE116F8010B069048E116F8017BCB
:100B700007F0010008B10B2000E00A20824607F0D0
:100B80000200002879D00498002846D0C948B0F85F
:100B90000A80D14514D107F0100088B900BFF8B21F
:100BA00001A901F059FD0546022D24D15FEA080094
:100BB000A8F101081FD0BE4800780028EFD01AE045
:100BC000B9F10A0F04D04FF00A09484601F0D2F9F2
:100BD00000BF01A90E2001F03FFD0546022D08D1FE
:100BE0005FEA0800A8F1010803D0B14800780028A6
:100BF000EFD000200490012D00D006E1019804F808
:100C0000010B0198000A04F8010B0198000C04F88C
:100C1000010B0198000E04F8010B07F010000028EA
:100C200060D03078717840EA0120B17840EA014024
:100C3000F17840EA01600390361D9E488089029059
:100C4000D14503D0D146484601F094F99948B0F80F
:100C50000A8000BFF8B2002101F0FEFC0546022D1B
:100C600008D15FEA0800A8F1010803D09048007895
:100C70000028EFD0012D01D0C7E056E000BF8D481D
:100C8000B0F80A8000BFF8B201A901F0E5FC054602
:100C9000022D08D15FEA0800A8F1010803D08448BA
:100CA00000780028EFD0012D00D00EE081480069C7
:100CB000019908400399884207D00298411E029189
:100CC00018B17B4800780028D9D000BF7948006966
:100CD000019908400399884201D045F01005012D83
:100CE00022D092E0049800281ED1D14503D0D146ED
:100CF000484601F03FF96F48B0F80A8000BFF8B2EB
:100D0000002101F0A9FC0546022D08D15FEA080088
:100D1000A8F1010803D0664800780028EFD0012D23
:100D200000D072E00120049062E0049878B3B9F139
:100D30000A0F04D04FF00A09484601F01BF95D483C
:100D4000B0F80A8000BF01A90E2001F085FC05461D
:100D5000022D08D15FEA0800A8F1010803D0544829
:100D600000780028EFD0012D00D04EE0019804F863
:100D7000010B0198000A04F8010B0198000C04F81B
:100D8000010B0198000E04F8010B0020049030784C
:100D9000717840EA0120B17840EA0140F17840EAF8
:100DA00001600190361D07F0200020B141480199F3
:100DB000016101251CE0D14503D0D146484601F030
:100DC000D9F83C48B0F80A8000BFF8B201A901F098
:100DD00043FC0546022D08D15FEA0800A8F101088E
:100DE00003D0334800780028EFD0012D00D00CE06C
:100DF0000598401C05902E48007800B105E0069843
:100E0000411E069100287FF4B1AE00BF012D44D1F0
:100E1000B9F10A0F04D04FF00A09484601F0AAF8C8
:100E2000049830B32348B0F80A8000BF01A90E200F
:100E300001F012FC0546022D08D15FEA0800A8F176
:100E4000010803D01A4800780028EFD0012D00D007
:100E500024E0019804F8010B0198000A04F8010B42
:100E60000198000C04F8010B0198000E04F8010B26
:100E700013E01048B0F80A8000BF00210E2001F0F6
:100E8000EBFB0546022D08D15FEA0800A8F1010836
:100E900003D0074800780028EFD000BF05988BF8F2
:100EA00000008BF80150A4EB0B0007B0BDE8F08FF9
:100EB000CC0000208C0300202DE9FC5F04460D4689
:100EC0004FF0000B0026A946ED1C00206349087076
:100ED00014F8011B6248C175C07D6149897D884253
:100EE00000DBAEE02078617840EA0128A41CB8F16C
:100EF000000F00D1A5E014F8017B07F0010008B154
:100F00000B2000E00A200090009801F033F807F071
:100F1000020000284FD05248B0F80AA000BFF8B233
:100F2000002101F099FB0646022E08D15FEA0A0073
:100F3000AAF1010A03D0494800780028EFD0012E19
:100F400000D07EE031E0B8F1000F06D100980A2809
:100F500002D00A2001F00EF80E274148B0F80AA08E
:100F600000BFF8B201A901F077FB0646022E08D1B6
:100F70005FEA0A00AAF1010A03D038480078002885
:100F8000EFD0012E00D05CE0019805F8010B01982C
:100F9000000A05F8010B0198000C05F8010B0198F7
:100FA000000E05F8010B0BF1010B5FEA0800A8F138
:100FB0000108C8D144E024E02078617840EA0120AB
:100FC000A17840EA0140E17840EA01600190241DE7
:100FD0002348B0F80AA000BFF8B201A901F03CFB19
:100FE0000646022E08D15FEA0A00AAF1010A03D0E0
:100FF0001A4800780028EFD0012E00D021E00BF134
:10100000010B5FEA0800A8F10108D5D100980A2871
:1010100002D00A2000F0AEFF1148B0F80AA000BFCD
:1010200000210E2001F018FB0646022E08D15FEACF
:101030000A00AAF1010A03D0084800780028EFD07E
:1010400000BF89F800B04FEA1B2089F8010089F839
:101050000260A5EB0900BDE8FC9F0000CC00002069
:101060008C03002070B504460D46207810B101288D
:1010700010D107E0627802F001000B4A1268116893
:1010800088470BE0627802F00100074A1268516855
:10109000884703E0FF202870012070BD00BF0020BA
:1010A00028700120F9E70000C800002070B506464E
:1010B0000D463078802807DB30789F2804DC2946ED
:1010C000304600F0C3F870BD307805F8010B16F813
:1010D000010B172874D2DFE800F00C141A205A60B4
:1010E0007BAF96252BAFAFAFAFAF30363C42484E0B
:1010F00054003078691CFFF743FC04462C70A01C98
:10110000E1E729463046FFF7ADFF044699E029465E
:101110003046FFF7DFFB044693E02846FFF722FC4A
:1011200004468EE029463046FFF7F8FB044688E087
:10113000284600F090F8044683E02946304600F047
:101140006BFB04467DE02946304600F02BFB04464D
:1011500077E02946304600F00FFC044671E029464E
:10116000304600F09FF804466BE029463046FFF712
:10117000B9FC044665E029463046FFF761FC0446A9
:101180005FE029463046FFF785FC044659E02946D2
:10119000304600F01BFC044653E02B480078012841
:1011A00002D002280DD105E02946304600F08CF827
:1011B00004460BE029463046FFF7BCFC044605E038
:1011C0003AE0002028706870022400BF00BF38E0B9
:1011D0001D480078012802D002280CD105E02946DC
:1011E000304600F023FA04460BE029463046FFF76C
:1011F00063FE044605E0002028706870A870032490
:1012000000BF00BF1DE010480078012802D002286E
:101210000CD105E02946304600F024F8044609E0E8
:1012200029463046FFF7E0FB044603E0FF20287024
:10123000022048E700BF04E0FF2005F8010C012070
:1012400041E700BF601C3EE78C0300200246FF2000
:10125000087001207047014600BF002048700870E8
:101260000220704738B504460D460D480078012825
:1012700003D0FF202870012038BD6078A17840EAB3
:101280000120E17840EA0140217940EA01600090C4
:101290006946002002F078FA002028700120EBE770
:1012A0008C03002010B50246137803F00300401CA5
:1012B000044C2075C3F38004024844750020087074
:1012C000012010BD8C0300202DE9F04F85B00646AB
:1012D0000C46002003900025A146A41CD1490870AB
:1012E00082460290761C16F8010B049047E116F82E
:1012F000018B08F0020000287ED0BAF1000F3CD02C
:10130000C948478908F01100012811D100BF69467A
:10131000404602F039FA0546022D1CD13800A7F1EB
:1013200001018FB217D0BF4800780028EFD012E03B
:1013300000BF69460E2002F027FA0546022D08D1AB
:101340003800A7F101018FB203D0B6480078002819
:10135000EFD04FF0000A012D00D017E1009804F8FB
:10136000010B0098000A04F8010B0098000C04F827
:10137000010B0098000E04F8010B08F01000002883
:101380005AD03078717840EA0120B17840EA0140C3
:10139000F17840EA016B361DA3488089019008F07E
:1013A0000100A8B1A048478900BF0021404602F0D3
:1013B000EBF90546022D08D13800A7F101018FB2E3
:1013C00003D0984800780028EFD0012D00D0DDE050
:1013D00000BF9548478900BF6946404602F0D4F9EE
:1013E0000546022D0AD13800A7F101018FB205D0C0
:1013F0008C480078002800E063E0EDD0012D00D09B
:101400000EE08948006900990840584508D00198C5
:10141000411E89B2019118B1824800780028D8D0C5
:1014200000BF8148006900990840584501D045F047
:101430001005012D42D0A9E07B48478908F0010042
:10144000C8B1BAF1000F39D100BF0021404602F007
:101450009BF90546022D08D13800A7F101018FB292
:1014600003D0704800780028EFD0012D00D08DE027
:101470004FF0010A22E000BF6946404602F084F9BD
:101480000546022D08D13800A7F101018FB203D023
:10149000644800780028EFD0012D00D076E0009855
:1014A00004F8010B0098000A04F8010B0098000CE6
:1014B00004F8010B0098000E04F8010B00200290C4
:1014C00055E0BAF1000F26D05748478900BF69465A
:1014D0000E2002F059F90546022D08D13800A7F177
:1014E00001018FB203D04F4800780028EFD0012DC2
:1014F00000D04BE0009804F8010B0098000A04F8B3
:10150000010B0098000C04F8010B0098000E04F881
:10151000010B4FF0000A3078717840EA0120B17871
:1015200040EA0140F17840EA01600090361D08F081
:10153000200020B13C4800990161012517E03A489C
:10154000478900BF6946404602F01EF90546022D54
:1015500008D13800A7F101018FB203D031480078DB
:101560000028EFD0012D00D010E001200290039858
:10157000401CC0B203902B48007800B106E00498EC
:10158000411EC9B2049100287FF4B1AE00BF012D05
:101590003DD1BAF1000F25D02348478900BF6946E5
:1015A0000E2002F0F1F80546022D08D13800A7F10F
:1015B00001018FB203D01B4800780028EFD0012D25
:1015C00000D025E0009804F8010B0098000A04F808
:1015D000010B0098000C04F8010B0098000E04F8B1
:1015E000010B14E0029890B10F48478900BF002119
:1015F0000E2002F0C9F80546022D08D13800A7F1E7
:1016000001018FB203D0074800780028EFD000BF57
:10161000039889F8000089F80150A4EB090005B08F
:10162000BDE8F08FCC0000208C0300202DE9F84F9E
:1016300004460D464FF0000B0026A846ED1C002086
:1016400056490870641C2078617840EA012AA41C7D
:10165000BAF1000F00D195E014F8017B07F0020009
:1016600000284FD007F00100B0B14D48B0F80A9003
:1016700000BFF8B2002102F087F80646022E08D11A
:101680005FEA0900A9F1010903D044480078002865
:10169000EFD0012E00D075E02EE0BAF1000F03D19B
:1016A00007F0010000B10E273D48B0F80A9000BFD6
:1016B000F8B2694602F068F80646022E08D15FEAE1
:1016C0000900A9F1010903D0344800780028EFD0BF
:1016D000012E00D056E0009805F8010B0098000A92
:1016E00005F8010B0098000C05F8010B0098000E9E
:1016F00005F8010B0BF1010B5FEA0A00AAF1010AE0
:10170000CBD13EE024E02078617840EA0120A17846
:1017100040EA0140E17840EA01600090241D204841
:10172000B0F80A9000BFF8B2694602F02DF80646FC
:10173000022E08D15FEA0900A9F1010903D0174878
:1017400000780028EFD0012E00D01BE00BF1010B38
:101750005FEA0A00AAF1010AD5D11148B0F80A904F
:1017600000BF00210E2002F00FF80646022E08D11D
:101770005FEA0900A9F1010903D0084800780028B0
:10178000EFD000BF88F800B04FEA1B2088F80100B6
:1017900088F80260A5EB0800BDE8F88FCC000020B7
:1017A0008C03002030B502460C461078557840EA8C
:1017B0000520957840EA0540D57840EA05631BB9D5
:1017C000FF202070012030BD11480068B3EB900F5E
:1017D00004D301200F4D6870686014E000200D4DA7
:1017E0006870581E0A4D2D6800EB5500B0FBF3F1F0
:1017F000022905D9891E881C0325B0FBF5F100E0FC
:10180000012104484160002020700120DBE7000036
:10181000000000208C0300202DE9F0470646884692
:1018200034787578B078F17840EA0120317940EA6F
:101830000140717940EA016705F0010038B104F018
:10184000010010B101F0D0FD01E001F0BDFD05F097
:10185000020038B104F0020010B101F01DFE01E0F9
:1018600001F00AFE05F0040010B1A01001F028FEFE
:1018700005F0200010B1601100BF00BF05F080002E
:1018800010B1E01101F042FE002F52D037488742DC
:1018900000D9074600BF00204FF0E021886134489E
:1018A000006878433349B0FBF1F04FF0E021486124
:1018B0000520086100BF00BF05F0010020B101F064
:1018C0008BFD604000B124E005F0020028B101F07A
:1018D000DBFD80EA640000B11BE005F0040028B1E4
:1018E00001F0E2FD80EAA40000B112E005F0200062
:1018F00028B100BF002080EA641000B109E005F0C3
:10190000800028B101F0F6FD80EAE41000B100E0AB
:1019100007E000BF4FF0E0200069C0F3004000285E
:10192000CAD000BF00BF00204FF0E021086100BF17
:1019300000BF01F051FD814601F0A6FD49EA4009D2
:1019400001F0B2FD49EA800901F0C8FD49EAC00092
:10195000002140EA411901F0CDFD49EAC010C4B2AE
:1019600088F800400120BDE8F0870000C0C62D00C7
:101970000000002040420F0070B504460D4614F8E8
:10198000016B0EB94FF480762146304602F0FEFB23
:1019900000202870012070BD10B50948006840087B
:1019A0000849B0FBF1F0801E0749486064210648F1
:1019B000418101200449087501F0EAFD10BD0000D5
:1019C0000000002040420F008C03002002461078E7
:1019D000084B18725078937840EA032305484381F6
:1019E000D078137940EA03230248838100200870ED
:1019F000012070478C03002008B50949096842F2AC
:101A00002832B1FBF2F148430146009100BF00BF0C
:101A1000009A521E0092002AFAD100BF08BD0000B1
:101A20000000002030B500F00F010D4C04EB8103E5
:101A3000D3F8002C00F0800343B148F6CF73134075
:101A4000254605EB8104C4F8003C07E04CF68F7393
:101A50001340034D05EB8104C4F8003C30BD000089
:101A60000050004070B500F00F02104D05EB8204ED
:101A7000D4F8003C00F080045CB101F030045C401C
:101A800048F6BF752C40094E06EB8205C5F8004CA0
:101A90000AE001F440545C404BF68F752C40034E35
:101AA00006EB8205C5F8004C70BD000000500040F8
:101AB00030B5044604254FF4302000F06FF8054699
:101AC000042D17D10C48006940F002000A49086152
:101AD00008464461006940F0400008614FF430203E
:101AE00000F05CF805460448006941F6FD710840C5
:101AF00001490861284630BD0020024004200B49FE
:101B0000C96801F0010109B101200EE00749C96867
:101B100001F0040109B1022007E00449C96801F09D
:101B2000100109B1032000E00420704700200240AA
:101B30000348006940F080000149086170470000D7
:101B40000020024070B504460D460426F00200F065
:101B500025F80646042E11D10948006940F001001D
:101B6000074908612580F00200F018F8064604488D
:101B7000006941F6FE71084001490861304670BDB8
:101B8000002002400248034948600348486070470B
:101B90002301674500200240AB89EFCD00B5024626
:101BA0000423FFF7ABFF034603E0FFF7A7FF03465D
:101BB000521E012B01D1002AF7D102B90523184684
:101BC00000BD2DE9F041024600250026002000233B
:101BD0000024002791F803C00CF00F0591F803C012
:101BE0000CF0100CBCF1000F03D091F802C04CEACD
:101BF000050591F800C0BCF1000F31D01468002039
:101C00002BE04FF0010C0CFA00F3B1F800C00CEA25
:101C100003069E4220D183004FF00F0C0CFA03F70D
:101C2000BC4305FA03FC4CEA040491F803C0BCF180
:101C3000280F06D14FF0010C0CFA00FCC2F814C0BA
:101C40000AE091F803C0BCF1480F05D14FF0010C38
:101C50000CFA00FCC2F810C0401C0828D1D3146054
:101C6000B1F800C0BCF1FF0F34DD546800202EE055
:101C700000F1080C4FF0010808FA0CF3B1F800C0AD
:101C80000CEA03069E4221D183004FF00F0C0CFAA0
:101C900003F7BC4305FA03FC4CEA040491F803C0C3
:101CA000BCF1280F05D100F1080C08FA0CF8C2F8B5
:101CB000148091F803C0BCF1480F07D100F1080C63
:101CC0004FF0010808FA0CF8C2F81080401C0828F0
:101CD000CED35460BDE8F081F0B50A46002300245D
:101CE0000021002500F00046B6F1004F02D11D4E44
:101CF000F16901E01B4E7168C0F3034583B200F443
:101D00004016B6F5401F08D121F07061154E766877
:101D100026F07066134F7E6012E000F48016B6F570
:101D2000801F06D1032606FA05F4A14341F0706135
:101D300006E0460D360103FA06F6B14341F0706144
:101D400022B1460D360103FA06F6314300F0004693
:101D5000B6F1004F02D1034EF16101E0014E716016
:101D6000F0BD0000000001402DE9F05F05460C4683
:101D70004FF0FF0B2878D02872DB2878D7286FDC4B
:101D8000287804F8010B15F8010BD038082868D220
:101D9000DFE800F004121518213356725148076825
:101DA00004F8017B380A04F8010B380C04F8010B25
:101DB000380E04F8010B74E0FFF7E4FE71E0FFF762
:101DC000B7FE6EE02F683846FFF772FE042801D098
:101DD0004FF0FF0B65E0D5F80080AE8806E018F8FC
:101DE000011BFF2902D04FF0FF0B04E03000A6F1E9
:101DF00001018EB2F3D100BF53E02F68AE88382EB8
:101E000002DD4FF0FF0B1AE0AD1D12E015F801AB3B
:101E10002EB115F8011B4AEA012A701E86B25146FE
:101E20003846FFF78FFE042802D04FF0FF0B05E085
:101E3000BF1C3000A6F101018EB2E7D100BF30E037
:101E4000D5F80080AE883E2E02DD4FF0FF0B12E089
:101E5000002004F8010B09E026B998F800B005E06D
:101E600023E01AE018F8010B04F8010B3000A6F18A
:101E700001018EB2F0D114E000BFBFF34F8F1A48BA
:101E8000006800F4E06019490843001D1649086025
:101E9000BFF34F8F00BF00BFFEE7641E4FF0FF0B84
:101EA00000BF00BF84F800B01AE011480068A8B174
:101EB000104A114B1B6802EB8311104A104B1B6830
:101EC00002EB831005F0F2FC8146B9F1000F07D058
:101ED00002200C490860FF20207001E0FF202070E4
:101EE000BDE8F09F002004E00CED00E00000FA05E2
:101EF00014000020381700200801002038070020B7
:101F0000000100202001002072B61749086880F304
:101F1000088800BF01F048F9002412E001F096F9AA
:101F2000FA20FFF769FD01F089F901F06BF9FA2059
:101F3000FFF762FD01F060F94FF47A70FFF75CFD86
:101F4000641C052CEADB00BFBFF34F8F0748006815
:101F500000F4E06006490843001D04490860BFF32F
:101F60004F8F00BF00BFFEE7000000080CED00E04F
:101F70000000FA0510B504460548407818B120461F
:101F800000F008F802E0204600F0A6F810BD0000BE
:101F90008C03002070B5054601F07EFA01F014FABA
:101FA00000BF00BF01F020FA00BF00BF01F00CFA33
:101FB00000BF00BF01F018FA00BF00BF01F05CFADB
:101FC00001F002FA00BF00BF01F00EFA00BF00BF2F
:101FD00001F0FAF900BF00BF01F006FA00BF00BF30
:101FE000012001F06DFA3B48C17D203030F81140EE
:101FF00008E001F0E9F900BF00BF01F0F5F900BF0A
:1020000000BF641E002CF4D13248C17D1830405C02
:10201000441E0CE0E8B201F053FA01F0D5F900BF1C
:1020200000BF01F0E1F900BF00BF6D08641E002C85
:10203000F0D12848C17D303030F811402CB3E8B2DF
:1020400001F03EFA01F0C0F900BF00BF01F0CCF989
:1020500000BF00BF012001F033FA641E08E001F068
:10206000B3F900BF00BF01F0BFF900BF00BF641E9D
:10207000002CF4D101F010FA01F0A6F900BF00BF66
:1020800001F0B2F900BF00BF0DE001F005FAE8B2BF
:1020900001F016FA01F098F900BF00BF01F0A4F9B1
:1020A00000BF00BF00BF01F08FF900BF00BF01F00B
:1020B0009BF900BF00BF01F0DFF901F085F900BF17
:1020C00000BF01F091F900BF00BF012001F0F8F955
:1020D00070BD00008C03002038B5054601F0DCF926
:1020E00001F072F9B7494868009000BF00BF00993D
:1020F000491E00910029FAD100BF01F075F9B149DC
:102100004868009000BF00BF0099491E0091002957
:10211000FAD100BF01F058F9AA494868009000BF01
:1021200000BF0099491E00910029FAD100BF01F0BB
:102130005BF9A4494868009000BF00BF0099491EA0
:1021400000910029FAD100BF01F096F901F03CF9A5
:102150009C494868009000BF00BF0099491E00914B
:102160000029FAD100BF01F03FF996494868009074
:1021700000BF00BF0099491E00910029FAD100BF9D
:1021800001F022F98F494868009000BF00BF009914
:10219000491E00910029FAD100BF01F025F98949B3
:1021A0004868009000BF00BF0099491E00910029B7
:1021B000FAD100BF012001F083F98248C17D2030AF
:1021C00030F811401AE001F0FFF87E4948680090AD
:1021D00000BF00BF0099491E00910029FAD100BF3D
:1021E00001F002F977494868009000BF00BF0099EC
:1021F000491E00910029FAD100BF641E002CE2D1D3
:102200007048C17D1830405C441E1EE0E8B201F009
:1022100057F901F0D9F86B494868009000BF00BF3A
:102220000099491E00910029FAD100BF01F0DCF8A5
:1022300064494868009000BF00BF0099491E0091A2
:102240000029FAD100BF6D08641E002CDED15D4864
:10225000C17D303030F81140002C5AD0E8B201F086
:102260002FF901F0B1F857494868009000BF00BF4E
:102270000099491E00910029FAD100BF01F0B4F87D
:1022800050494868009000BF00BF0099491E009166
:102290000029FAD100BF012001F012F9641E1AE0F2
:1022A00001F092F847494868009000BF00BF0099CC
:1022B000491E00910029FAD100BF01F095F841496B
:1022C0004868009000BF00BF0099491E0091002996
:1022D000FAD100BF641E002CE2D101F0DDF801F05C
:1022E00073F838494868009000BF00BF0099491E44
:1022F00000910029FAD100BF01F076F83149486811
:10230000009000BF00BF0099491E00910029FAD13A
:102310001EE001F0C1F8E8B201F0D2F801F054F883
:1023200028494868009000BF00BF0099491E0091ED
:102330000029FAD100BF01F057F8224948680090FF
:1023400000BF00BF0099491E00910029FAD100BFCB
:1023500001F03AF81B494868009000BF00BF00999F
:10236000491E00910029FAD100BF01F03DF815493E
:102370004868009000BF00BF0099491E00910029E5
:10238000FAD100BF01F078F801F01EF80D49486855
:10239000009000BF00BF0099491E00910029FAD1AA
:1023A00000BF01F021F807494868009000BF00BF56
:1023B0000099491E00910029FAD100BF012001F0C7
:1023C0007FF838BD8C030020F8B501F065F800F007
:1023D000FBFF76494868009000BF00BF0099491E86
:1023E00000910029FAD100BF00F0FEFF6F49486854
:1023F000009000BF00BF0099491E00910029FAD14A
:1024000000BF01F039F800F0DFFF6849486800902C
:1024100000BF00BF0099491E00910029FAD100BFFA
:1024200000F0E2FF61494868009000BF00BF0099DA
:10243000491E00910029FAD100BF00F0C5FF5B4999
:102440004868009000BF00BF0099491E0091002914
:10245000FAD100BF00F0C8FF54494868009000BF9F
:1024600000BF0099491E00910029FAD100BF4F48D2
:10247000C57D1AE000F0A8FF4C494868009000BFF5
:1024800000BF0099491E00910029FAD100BF00F059
:10249000ABFF46494868009000BF00BF0099491E45
:1024A00000910029FAD100BF6D1E002DE2D1002459
:1024B0001F2520E000F088FF3C494868009000BFDD
:1024C00000BF0099491E00910029FAD100BF01F018
:1024D00005F8064600F088FF34494868009000BFC0
:1024E00000BF0099491E00910029FAD100BF44EABB
:1024F000C67464086D1E002DDCD100F0CDFF00F025
:1025000063FF2A494868009000BF00BF0099491E38
:1025100000910029FAD100BF00F0E0FF064600F06C
:1025200063FF22494868009000BF00BF0099491E20
:1025300000910029FAD100BF44EAC67400F044FFBC
:102540001A494868009000BF00BF0099491E0091D9
:102550000029FAD100BF00F047FF144948680090F5
:1025600000BF00BF0099491E00910029FAD100BFA9
:1025700000F082FF00F028FF0C494868009000BF7F
:1025800000BF0099491E00910029FAD100BF00F058
:102590002BFF06494868009000BF00BF0099491E04
:1025A00000910029FAD100BF2046F8BD8C0300201D
:1025B0002DE9F84F04460F46904604F03F0606B951
:1025C000402604F0400010B100F066FF01E000F08A
:1025D00053FF3AE017F801AB00254FF0080928E057
:1025E0000AF0FF0000F06CFF00F0EEFE19494868A9
:1025F000009000BF00BF0099491E00910029FAD148
:1026000000BF00F06BFF834600F0EEFE1149486802
:10261000009000BF00BF0099491E00910029FAD127
:1026200000BF4FEA5A0A6D0845EACB15A9F1010926
:10263000761EB9F1000F01D0002ED1D125FA09F58F
:1026400004F0800008B108F8015B002EC2D1BDE89B
:10265000F88F00008C03002070B504460D46064834
:10266000407820B12946204600F008F870BD294680
:10267000204600F03FF9F9E78C0300202DE9F047F0
:102680000646884600F008FF00F09EFE00BF00BF2F
:1026900000F0AAFE00BF00BF00F0EEFE00F094FEC6
:1026A00000BF00BF00F0A0FE00BF00BF00F08CFE26
:1026B00000BF00BF00F098FE00BF00BF8C48C47D83
:1026C00008E000F081FE00BF00BF00F08DFE00BFFB
:1026D00000BF641E002CF4D1C6F3470000F0F0FEEA
:1026E00000F072FE00BF00BF00F0F8FE074600F0E9
:1026F0007BFE00BF00BF4FEA4709C6F3870000F02A
:10270000DFFE00F061FE00BF00BF00F0E7FE0746FD
:1027100000F06AFE00BF00BF49EA0709C6F3C70020
:1027200000F0CEFE00F050FE00BF00BF00F0D6FE6D
:10273000074600F059FE00BF00BF49EA8709B9F11A
:10274000010F0AD000F0A8FE00F03EFE00BF00BF5F
:1027500000F04AFE00BF00BFA1E006F00200002822
:1027600052D000251F240EE000F02EFE00BF00BF57
:1027700000F0B4FE074600F037FE00BF00BF45EA98
:10278000C7756D08641E002CEED15948817DC07D4F
:10279000081A441E14B300F017FE00BF00BF00F07B
:1027A0009DFE074600F020FE00BF00BF641E08E04B
:1027B00000F00AFE00BF00BF00F016FE00BF00BF21
:1027C000641E002CF4D100F067FE00F0FDFD00BF98
:1027D00000BF00F009FE00BF00BF0DE000F05CFE8E
:1027E00000F0F2FD00BF00BF00F078FE074600F0E9
:1027F000FBFD00BF00BF00BF45EAC775B8F1000F81
:102800004CD0C8F8005049E0D8F800501F240CE024
:10281000E8B200F055FE00F0D7FD00BF00BF00F0A9
:10282000E3FD00BF00BF6D08641E002CF0D13048EE
:10283000817DC07D081A441E14B3E8B200F040FE4A
:1028400000F0C2FD00BF00BF00F0CEFD00BF00BF22
:10285000641E08E000F0B8FD00BF00BF00F0C4FD3A
:1028600000BF00BF641E002CF4D100F015FE00F084
:10287000ABFD00BF00BF00F0B7FD00BF00BF0DE023
:1028800000F00AFEE8B200F01BFE00F09DFD00BF64
:1028900000BF00F0A9FD00BF00BF00BF00BF00F0F7
:1028A00093FD00BF00BF00F09FFD00BF00BF00F020
:1028B000E3FD00F089FD00BF00BF00F095FD00BF03
:1028C00000BF012000F0FCFD0948047A08E000F098
:1028D0007BFD00BF00BF00F087FD00BF00BF00BF51
:1028E0002000A4F10104F2D109F0FF00BDE8F08757
:1028F0008C0300202DE9F8430746894600F0CCFD03
:1029000000F062FDF9494868009000BF00BF0099DF
:10291000491E00910029FAD100BF00F065FDF3497E
:102920004868009000BF00BF0099491E009100292F
:10293000FAD100BF00F0A0FD00F046FDEB49486869
:10294000009000BF00BF0099491E00910029FAD1F4
:1029500000BF00F049FDE5494868009000BF00BF96
:102960000099491E00910029FAD100BF00F02CFD0A
:10297000DE494868009000BF00BF0099491E0091E1
:102980000029FAD100BF00F02FFDD8494868009017
:1029900000BF00BF0099491E00910029FAD100BF75
:1029A000D248C47D1AE000F00FFDD049486800907D
:1029B00000BF00BF0099491E00910029FAD100BF55
:1029C00000F012FDC9494868009000BF00BF00999F
:1029D000491E00910029FAD100BF641E002CE2D1EB
:1029E000C7F3470000F06CFD00F0EEFCBF494868FB
:1029F000009000BF00BF0099491E00910029FAD144
:102A000000BF00F06BFD064600F0EEFCB7494868D9
:102A1000009000BF00BF0099491E00910029FAD123
:102A200000BF4FEA4608C7F3870000F049FD00F0F9
:102A3000CBFCAE494868009000BF00BF0099491E1A
:102A400000910029FAD100BF00F048FD064600F0D1
:102A5000CBFCA6494868009000BF00BF0099491E02
:102A600000910029FAD100BF48EA0608C7F3C70061
:102A700000F026FD00F0A8FC9C494868009000BFCB
:102A800000BF0099491E00910029FAD100BF00F053
:102A900025FD064600F0A8FC94494868009000BF58
:102AA00000BF0099491E00910029FAD100BF48EAF1
:102AB0008608B8F1010F1CD000F0EEFC00F084FC99
:102AC0008A494868009000BF00BF0099491E0091E4
:102AD0000029FAD100BF00F087FC844948680090C3
:102AE00000BF00BF0099491E00910029FAD100BF24
:102AF00057E107F0020000287ED000251F2420E0C7
:102B000000F062FC79494868009000BF00BF00995E
:102B1000491E00910029FAD100BF00F0DFFC0646F3
:102B200000F062FC71494868009000BF00BF009946
:102B3000491E00910029FAD100BF45EAC6756D080B
:102B4000641E002CDCD16948817DC07D081A441EBA
:102B5000002C59D000F038FC64494868009000BF50
:102B600000BF0099491E00910029FAD100BF00F072
:102B7000B5FC064600F038FC5C494868009000BF90
:102B800000BF0099491E00910029FAD100BF641EC0
:102B90001AE000F019FC55494868009000BF00BFDA
:102BA0000099491E00910029FAD100BF00F01CFCD9
:102BB0004E494868009000BF00BF0099491E00912F
:102BC0000029FAD100BF641E002CE2D100F064FCA1
:102BD00000F0FAFB45494868009000BF00BF00992B
:102BE000491E00910029FAD100BF00F0FDFB3F49CA
:102BF0004868009000BF00E02DE000BF0099491E2A
:102C000000910029FAD11EE000F046FC00F0DCFB48
:102C100036494868009000BF00BF0099491E0091E6
:102C20000029FAD100BF00F059FC064600F0DCFB99
:102C30002E494868009000BF00BF0099491E0091CE
:102C40000029FAD100BF45EAC675B9F1000F01D0DD
:102C5000C9F80050A4E0D9F800501F241EE0E8B2E3
:102C600000F02EFC00F0B0FB20494868009000BF47
:102C700000BF0099491E00910029FAD100BF00F061
:102C8000B3FB1A494868009000BF00BF0099491E75
:102C900000910029FAD100BF6D08641E002CDED11E
:102CA0001248817DC07D081A441E002C59D0E8B21C
:102CB00000F006FC00F088FB0C494868009000BF5B
:102CC00000BF0099491E00910029FAD100BF00F011
:102CD0008BFB06494868009000BF00BF0099491E61
:102CE00000910029FAD100BF641E1CE08C03002073
:102CF00000F06AFB5A494868009000BF00BF009985
:102D0000491E00910029FAD100BF00F06DFB544923
:102D10004868009000BF00BF0099491E009100293B
:102D2000FAD100BF641E002CE2D100F0B5FB00F028
:102D30004BFB4B494868009000BF00BF0099491EFB
:102D400000910029FAD100BF00F04EFB44494868C9
:102D5000009000BF00BF0099491E00910029FAD1E0
:102D60001EE000F099FBE8B200F0AAFB00F02CFB9B
:102D70003B494868009000BF00BF0099491E009180
:102D80000029FAD100BF00F02FFB354948680090B8
:102D900000BF00BF0099491E00910029FAD100BF71
:102DA00000BF00F011FB2E494868009000BF00BF33
:102DB0000099491E00910029FAD100BF00F014FBD0
:102DC00027494868009000BF00BF0099491E009144
:102DD0000029FAD100BF00F04FFB00F0F5FA2049BE
:102DE0004868009000BF00BF0099491E009100296B
:102DF000FAD100BF00F0F8FA19494868009000BF06
:102E000000BF0099491E00910029FAD100BF01209E
:102E100000F056FB1248047A19E000F0D5FA104988
:102E20004868009000BF00BF0099491E009100292A
:102E3000FAD100BF00F0D8FA09494868009000BFF5
:102E400000BF0099491E00910029FAD100BF20005F
:102E5000A4F10104E1D108F0FF00BDE8F88300000F
:102E60008C03002038B5054600F016FB00F0ACFAE4
:102E7000CC494868009000BF00BF0099491E0091EE
:102E80000029FAD100BF00F0AFFAC64948680090A7
:102E900000BF00BF0099491E00910029FAD100BF70
:102EA00000F0EAFA00F090FABE494868009000BFCE
:102EB00000BF0099491E00910029FAD100BF00F01F
:102EC00093FAB8494868009000BF00BF0099491EB6
:102ED00000910029FAD100BF00F076FAB1494868A4
:102EE000009000BF00BF0099491E00910029FAD14F
:102EF00000BF00F079FAAB494868009000BF00BFFE
:102F00000099491E00910029FAD100BFA548C47D4F
:102F10001AE000F059FAA3494868009000BF00BFCA
:102F20000099491E00910029FAD100BF00F05CFA17
:102F30009C494868009000BF00BF0099491E00915D
:102F40000029FAD100BF641E002CE2D1002000F05D
:102F5000B7FA00F039FA93494868009000BF00BF03
:102F60000099491E00910029FAD100BF00F03CFAF7
:102F70008C494868009000BF00BF0099491E00912D
:102F80000029FAD100BF00F01FFA86494868009076
:102F900000BF00BF0099491E00910029FAD100BF6F
:102FA00000F022FA7F494868009000BF00BF0099F6
:102FB000491E00910029FAD100BF00F005FA7949B5
:102FC0004868009000BF00BF0099491E0091002989
:102FD000FAD100BF00F008FA72494868009000BFBB
:102FE00000BF0099491E00910029FAD100BF1F249B
:102FF0001EE0E8B200F064FA00F0E6F969494868BA
:10300000009000BF00BF0099491E00910029FAD12D
:1030100000BF00F0E9F963494868009000BF00BFB5
:103020000099491E00910029FAD100BF6D08641E65
:10303000002CDED15B48817DC07D081A441E002C27
:1030400057D0E8B200F03CFA00F0BEF955494868A4
:10305000009000BF00BF0099491E00910029FAD1DD
:1030600000BF00F0C1F94F494868009000BF00BFA1
:103070000099491E00910029FAD100BF641E1AE090
:1030800000F0A2F947494868009000BF00BF0099CE
:10309000491E00910029FAD100BF00F0A5F941496D
:1030A0004868009000BF00BF0099491E00910029A8
:1030B000FAD100BF641E002CE2D100F0EDF900F05F
:1030C00083F938494868009000BF00BF0099491E45
:1030D00000910029FAD100BF00F086F93149486813
:1030E000009000BF00BF0099491E00910029FAD14D
:1030F0001EE000F0D1F9E8B200F0E2F900F064F966
:1031000028494868009000BF00BF0099491E0091FF
:103110000029FAD100BF00F067F922494868009001
:1031200000BF00BF0099491E00910029FAD100BFDD
:1031300000F04AF91B494868009000BF00BF0099A1
:10314000491E00910029FAD100BF00F04DF9154940
:103150004868009000BF00BF0099491E00910029F7
:10316000FAD100BF00F088F900F02EF90D49486847
:10317000009000BF00BF0099491E00910029FAD1BC
:1031800000BF00F031F907494868009000BF00BF58
:103190000099491E00910029FAD100BF012000F0DA
:1031A0008FF938BD8C03002010B50E48806940F0BF
:1031B00008000C49886140200B4908600B490A4807
:1031C0001438FEF7FEFC0748806940F0040005490A
:1031D0008861881506490860064905481438FEF7D5
:1031E000F0FC10BD00100240140C01407483000874
:1031F00014080140788300084020014908607047A6
:10320000140C01404020014908607047100C014037
:1032100000B5024602F0010010B1FFF7F3FF01E034
:10322000FFF7EAFF00BD00000348006880F040009F
:1032300001490860704700000C0C01404FF4807099
:103240000149086070470000140801404FF4807085
:1032500001490860704700001008014000B50246AF
:1032600002F0010010B1FFF7F1FF01E0FFF7E6FF08
:1032700000BD00000348006880F4807001490860C8
:10328000704700000C08014008B54FF4A06000F042
:1032900059F826208DF8000001208DF801008DF8E6
:1032A00002008DF80300684600F014F808BD08B568
:1032B0004FF4A06000F046F825208DF800000120B2
:1032C0008DF801008DF802008DF80300684600F0CB
:1032D00001F808BD70B5002100230F22C47804B3A3
:1032E000154C246804F4E064C4F5E064210AC1F1DB
:1032F0000403CA40447804FA03F18478144021435B
:1033000009010E4C0678A155047804F01F0501242C
:10331000AC4005786D11AD0005F1E025C5F8004120
:1033200009E0047804F01F050124AC40044D067840
:10333000761145F8264070BD0CED00E000E400E099
:1033400080E100E002490143024A11607047000039
:103350000000FA050CED00E070B5002401F07EFAE3
:10336000054605F0040008B144F0400405F00200F1
:1033700008B144F0400405F0010008B144F0100425
:1033800001F08AFA054605F0080008B144F0080487
:1033900005F0040008B144F0020405F0020008B191
:1033A00044F0010401F054FA08B144F00404054863
:1033B0000068604028B1A0B201F008FE08B10148E1
:1033C000046070BDC40000204FF400500149086043
:1033D00070470000140C014002480068C0F3403000
:1033E000704700000C0C01404FF400500149086088
:1033F00070470000100C01400448006800F4804051
:1034000008B1012070470020FCE70000080C0140D3
:1034100000F0010121B14FF48041044A116004E041
:103420004FF48041014A121D11607047100C014099
:1034300000BF0748006820F0706040F00060044959
:1034400008604FF4804002490C31086000BF7047AB
:10345000040C014000BF0748006820F0706040F095
:103460004070044908604FF4804002491031086000
:1034700000BF7047040C01404FF4804001490860D0
:1034800070470000140C014002480068C0F380300F
:1034900070470000080C01404FF48040014908606B
:1034A00070470000100C01400448006800F007005D
:1034B00008B1012070470020FCE700000C08014023
:1034C00000F0010119B10721034A116003E007214F
:1034D000014A121D1160704710080140044800683D
:1034E00000F0050008B1012070470020FCE7000053
:1034F000080801400448006800F0400008B10120BD
:1035000070470020FCE700000808014000F00101BE
:1035100049B100BF0949096821F0706141F080613B
:10352000064A116009E000BF0449096821F0706192
:1035300041F0E061014A116000BF7047000801409E
:1035400010B546F207000E49086040200D4908609A
:1035500000BF0C481438006820F0706040F08060B4
:1035600008491439086000BF074906481438FEF7B7
:1035700028FB064902481038FEF723FB10BD000067
:10358000100C014014080140888300088C83000857
:1035900010B504490448FEF714FB04490448FEF73B
:1035A00010FB10BD90830008000C014094830008BC
:1035B0000008014010B54FF4C0400E49086040209B
:1035C0000D4908600D490C481438FEF7FAFA0C4909
:1035D00008481038FEF7F5FA00BF074814380068AD
:1035E00020F0706040F0806003491439086000BF2B
:1035F00010BD0000100C0140140801408083000839
:103600008483000810B50848806940F0040006492A
:1036100088614FF4004005490860054903481038A7
:10362000FEF7CFFA10BD0000001002401008014064
:103630007C83000829B1064AD2690243044BDA614F
:1036400004E0034AD2698243014BDA61704700000B
:103650000010024029B1064A12690243044B1A6164
:1036600004E0034A12698243014B1A61704700006B
:103670000010024029B1064A92690243044B9A6144
:1036800004E0034A92698243014B9A61704700004B
:103690000010024029B1064AD2680243044BDA60A6
:1036A00004E0034AD2688243014BDA6070470000AD
:1036B0000010024030B500210022002400232D4DCF
:1036C0006D6805F00C0121B1042905D0082923D12A
:1036D00005E0294D056022E0274D05601FE0254DDE
:1036E0006D6805F47012234D6D6805F48034022571
:1036F00005EB92421CB9214D554305600BE01D4D71
:103700006D6805F400351DB11C4D5543056002E0A0
:10371000194D5543056002E0174D056000BF00BF1D
:10372000144D6D6805F0F0010909154D6B5C0568D5
:10373000DD4045600F4D6D6805F4E061090A104DEC
:103740006B5C4568DD4085600A4D6D6805F460512D
:10375000C90A0B4D6B5C4568DD40C560054D6D6861
:1037600005F44041890B074D6B5CC568B5FBF3F56B
:10377000056130BD0010024000127A0000093D00D2
:10378000800100209001002070B504460D460648D7
:10379000407820B12946204600F008F870BD29463F
:1037A000204600F0ABF9F9E78C0300202DE9F04743
:1037B00006468A464FF000080120FFF729FEFFF772
:1037C00003FE00BF00BFFFF70FFE00BF00BF35467E
:1037D0002846FFF71DFEFFF7F7FD00BF00BFFFF70C
:1037E00003FE00BF00BF08EB050000F0FF087510E6
:1037F0002846FFF70DFEFFF7E7FD00BF00BFFFF70C
:10380000F3FD00BF00BF08EB050000F0FF08B51096
:103810002846FFF7FDFDFFF7D7FD00BF00BFFFF70C
:10382000E3FD00BF00BF08EB050000F0FF08F51046
:103830002846FFF7EDFDFFF7C7FD00BF00BFFFF70C
:10384000D3FD00BF00BF08EB050000F0FF084046B5
:10385000FFF7DEFDFFF7B8FD00BF00BFFFF7C4FDB7
:1038600000BF00BF0020FFF7D3FDFFF7ADFD00BF95
:1038700000BFFFF7B9FD00BF00BF0120FFF7C8FD83
:10388000FFF7A2FD00BF00BFFFF7AEFD00BF00BF06
:10389000FFF7CEFD9848047D09E0FFF795FD00BFD6
:1038A00000BFFFF7A1FD00BF00BF601EC4B2002C27
:1038B000F3D1FFF789FD00BF00BFFFF79DFD05466F
:1038C000FFF792FD00BF00BFA946FFF77DFD00BFD7
:1038D00000BFFFF791FD0546FFF786FD00BF00BF63
:1038E00049EA450000F0FF09FFF76EFD00BF00BF89
:1038F000FFF782FD0546FFF777FD00BF00BF49EAED
:10390000850000F0FF09B9F1010F7DD106F002003A
:10391000002842D00027A046202413E0FFF754FDE2
:1039200000BF00BFFFF768FD0546FFF75DFD00BF64
:1039300000BF08EB050000F0FF087F0847EAC577E5
:10394000601EC4B2002CE9D1FFF73EFD00BF00BFEE
:10395000FFF752FD0546FFF747FD00BF00BF88EAAD
:10396000050000F0010008B14FF00809BAF1000F9E
:1039700001D0CAF800706048047D09E0FFF724FD1B
:1039800000BF00BFFFF730FD00BF00BF601EC4B224
:10399000002CF3D1FFF75EFD35E05748047D09E0C8
:1039A000FFF712FD00BF00BFFFF71EFD00BF00BF05
:1039B000601EC4B2002CF3D1FFF74CFDDAF80070A2
:1039C000A046202411E0F8B2FFF722FDFFF7FCFC2F
:1039D00000BF00BFFFF708FD00BF00BF08EB0700F6
:1039E00000F0FF087F08601EC4B2002CEBD14046F7
:1039F000FFF70EFDFFF7E8FC00BF00BFFFF7F4FC88
:103A000000BF00BF00BF00E018E03B48047A7CB173
:103A10000020FFF7FDFC09E0FFF7D6FC00BF00BF68
:103A2000FFF7E2FC00BF00BF601EC4B2002CF3D160
:103A30000120FFF7EDFC4846BDE8F087B9F1020F21
:103A400002D0B9F1040F40D12B48407D80B106F07F
:103A5000020068B1212409E0FFF7B6FC00BF00BFF7
:103A6000FFF7C2FC00BF00BF601EC4B2002CF3D140
:103A70002148047D09E0FFF7A7FC00BF00BFFFF766
:103A8000B3FC00BF00BF601EC4B2002CF3D1FFF72F
:103A9000E1FC1948407D98B106F0020080B9002091
:103AA000FFF7B6FC212409E0FFF78EFC00BF00BF42
:103AB000FFF79AFC00BF00BF601EC4B2002CF3D118
:103AC0000120FFF7A5FC4846B6E70B48007D2130F2
:103AD000C4B209E0FFF778FC00BF00BFFFF784FC29
:103AE00000BF00BF601EC4B2002CF3D10120FFF75D
:103AF0008FFC4846A0E700008C0300202DE9F84F1A
:103B000006468A464FF000080120FFF781FCFFF7C8
:103B10005BFCFD494868009000BF00BF0099491E4A
:103B200000910029FAD100BFFFF75EFCF649486812
:103B3000009000BF00BF0099491E00910029FAD1F2
:103B400000BF35462846FFF763FCFFF73DFCEE4912
:103B50004868009000BF00BF0099491E00910029ED
:103B6000FAD100BFFFF740FCE7494868009000BF6A
:103B700000BF0099491E00910029FAD100BF08EB4F
:103B8000050000F0FF0875102846FFF741FCFFF71D
:103B90001BFCDD494868009000BF00BF0099491E2A
:103BA00000910029FAD100BFFFF71EFCD6494868F2
:103BB000009000BF00BF0099491E00910029FAD172
:103BC00000BF08EB050000F0FF08B5102846FFF71E
:103BD0001FFCFFF7F9FBCC494868009000BF00BF0D
:103BE0000099491E00910029FAD100BFFFF7FCFBA4
:103BF000C5494868009000BF00BF0099491E009168
:103C00000029FAD100BF08EB050000F0FF08F5100D
:103C10002846FFF7FDFBFFF7D7FBBB49486800903C
:103C200000BF00BF0099491E00910029FAD100BFD2
:103C3000FFF7DAFBB4494868009000BF00BF009965
:103C4000491E00910029FAD100BF08EB050000F0E1
:103C5000FF084046FFF7DCFBFFF7B6FBAA494868C0
:103C6000009000BF00BF0099491E00910029FAD1C1
:103C700000BFFFF7B9FBA4494868009000BF00BF30
:103C80000099491E00910029FAD100BF0020FFF7DA
:103C9000BFFBFFF799FB9C494868009000BF00BF3D
:103CA0000099491E00910029FAD100BFFFF79CFB43
:103CB00095494868009000BF00BF0099491E0091D7
:103CC0000029FAD100BF0120FFF7A2FBFFF77CFB20
:103CD0008D494868009000BF00BF0099491E0091BF
:103CE0000029FAD100BFFFF77FFB874948680090A1
:103CF00000BF00BF0099491E00910029FAD100BF02
:103D0000FFF796FB8048047D1BE0FFF75DFB7E49D3
:103D10004868009000BF00BF0099491E009100292B
:103D2000FAD100BFFFF760FB77494868009000BFF9
:103D300000BF0099491E00910029FAD100BF601E02
:103D4000C4B2002CE1D1FFF73FFB6F4948680090F7
:103D500000BF00BF0099491E00910029FAD100BFA1
:103D6000FFF74AFB0546FFF73FFB674948680090AD
:103D700000BF00BF0099491E00910029FAD100BF81
:103D8000A946FFF721FB60494868009000BF00BFCB
:103D90000099491E00910029FAD100BFFFF72CFBC2
:103DA0000546FFF721FB58494868009000BF00BF57
:103DB0000099491E00910029FAD100BF49EA450047
:103DC00000F0FF09FFF700FB4F494868009000BF73
:103DD00000BF0099491E00910029FAD100BFFFF7EA
:103DE0000BFB0546FFF700FB47494868009000BF02
:103DF00000BF0099491E00910029FAD100BF49EA8D
:103E0000850000F0FF09B9F1010F7CD106F0020036
:103E100000287CD000278846202425E0FFF7D4FA2C
:103E200039494868009000BF00BF0099491E0091C1
:103E30000029FAD100BFFFF7DFFA0546FFF7D4FAF1
:103E400031494868009000BF00BF0099491E0091A9
:103E50000029FAD100BF08EB050000F0FF087F0839
:103E600047EAC577601EC4B2002CD7D1FFF7ACFA81
:103E700025494868009000BF00BF0099491E009185
:103E80000029FAD100BFFFF7B7FA0546FFF7ACFAF1
:103E90001D494868009000BF00BF0099491E00916D
:103EA0000029FAD100BF88EA050000F0010008B13E
:103EB0004FF00809BAF1000F01D0CAF8007012489B
:103EC000047D1BE0FFF780FA0F494868009000BFAF
:103ED00000BF0099491E00910029FAD100BFFFF7E9
:103EE00083FA09494868009000BF00BF0099491E45
:103EF00000910029FAD100BF601EC4B2002CE1D1AC
:103F0000FFF7A8FA6EE098E08C030020FFE79E48D8
:103F1000047D1BE0FFF758FA9B494868009000BFFA
:103F200000BF0099491E00910029FAD100BFFFF798
:103F30005BFA95494868009000BF00BF0099491E90
:103F400000910029FAD100BF601EC4B2002CE1D15B
:103F5000FFF780FADAF80070A046202423E0F8B2D8
:103F6000FFF756FAFFF730FA87494868009000BF1C
:103F700000BF0099491E00910029FAD100BFFFF748
:103F800033FA81494868009000BF00BF0099491E7C
:103F900000910029FAD100BF08EB070000F0FF08EC
:103FA0007F08601EC4B2002CD9D14046FFF730FA1A
:103FB000FFF70AFA74494868009000BF00BF0099F3
:103FC000491E00910029FAD100BFFFF70DFA6E4992
:103FD0004868009000BF00BF0099491E0091002969
:103FE000FAD100BF6848047A0CB30020FFF710FA3A
:103FF0001BE0FFF7E9F964494868009000BF00BF83
:104000000099491E00910029FAD100BFFFF7ECF991
:104010005D494868009000BF00BF0099491E0091AB
:104020000029FAD100BF601EC4B2002CE1D10120EA
:10403000FFF7EEF94846BDE8F88FB9F1020F02D05C
:10404000B9F1040F77D15048407D10B306F002005B
:10405000F8B121241BE0FFF7B7F94B4948680090FD
:1040600000BF00BF0099491E00910029FAD100BF8E
:10407000FFF7BAF944494868009000BF00BF0099B3
:10408000491E00910029FAD100BF601EC4B2002C65
:10409000E1D13D48047D1BE0FFF796F93A494868B5
:1040A000009000BF00BF0099491E00910029FAD17D
:1040B00000BFFFF799F934494868009000BF00BF7E
:1040C0000099491E00910029FAD100BF601EC4B2B8
:1040D000002CE1D1FFF7BEF92B48407D28B306F054
:1040E000020010BB0020FFF793F921241BE0FFF72B
:1040F0006BF925494868009000BF00BF0099491E30
:1041000000910029FAD100BFFFF76EF91E494868F7
:10411000009000BF00BF0099491E00910029FAD10C
:1041200000BF601EC4B2002CE1D10120FFF770F97E
:10413000484680E7FFE71448007D2130C4B21BE009
:10414000FFF742F910494868009000BF00BF00998E
:10415000491E00910029FAD100BFFFF745F90A492D
:104160004868009000BF00BF0099491E00910029D7
:10417000FAD100BF601EC4B2002CE1D10120FFF7CC
:1041800047F9484657E700008C030020F8B504467D
:104190000D46002729E0641E17B915F8016B0827A2
:1041A00006F0010010B1FFF777F901E0FFF764F9BD
:1041B000FFF70AF90E494868009000BF00BF009958
:1041C000491E00910029FAD100BFFFF70DF90849F7
:1041D0004868009000BF00BF0099491E0091002967
:1041E000FAD100BF7610781EC7B2002CD3D1F8BD2B
:1041F0008C03002010B500F001F810BD08B50020B8
:1042000000903748006840F480303549086000BFAE
:104210003348006800F4003018B90098B0F5A06F7A
:10422000F6D12F48006800F4003040B92C480068EF
:1042300020F480302A4908600120009001E000202D
:1042400000902848006840F01000264908600846A1
:10425000006820F0030008600846006840F0020093
:1042600008601F4840681E4948600846406848602A
:104270000846406840F4806048600846406820F482
:104280007C104860009828B10846406840F4D0008F
:10429000486005E01248406840F4E8101049486062
:1042A0000F48006840F080700D49086000BF0C485E
:1042B000006800F000700028F9D00948406820F03C
:1042C0000300074948600846406840F00200486023
:1042D00000BF0348406800F00C000828F9D108BD71
:1042E0000010024000200240042808D14FF0E021D5
:1042F000096941F004014FF0E022116107E04FF03D
:10430000E021096921F004014FF0E02211617047BA
:1043100010B5002100200022214B5B6803F00C0146
:1043200021B1042906D0082928D107E01D4B1E4CD5
:10433000236027E01B4B1C4C236023E0184B5B6879
:1043400003F47010164B5B6803F48032022303EB16
:10435000904022B9154B4343134C23600DE0104BA2
:104360005B6803F4003323B1104B43430E4C2360CE
:1043700003E00C4B43430C4C236003E0094B0A4C15
:10438000236000BF00BF064B5B68C3F30313084CF8
:10439000E15C054B1B68CB40034C236010BD000063
:1043A0000010024000127A000000002000093D00C9
:1043B0000400002010B51348006840F001001149C6
:1043C000086008464068104908400E4948600846A1
:1043D00000680E4908400B4908600846006820F450
:1043E000802008600846406820F4FE0048604FF4D2
:1043F0001F008860FFF7FEFE4FF000600449086070
:1044000010BD0000001002400000FFF8FFFFF6FEA4
:1044100008ED00E010B50121880700F0ADF9002893
:104420005ED00121880700F0A3F82E480068401CE8
:104430002C4908602C480068092850D2DFE800F0B9
:104440000512171C214F263340002648006805211D
:10445000B0FBF1F201FB120008B9FEF7E5FEFEF732
:10446000EDFE3CE0FEF7CEFEFEF7E8FE37E0FEF79D
:10447000C3FEFEF7EBFE32E0FEF7C4FEFEF7DEFE03
:104480002DE0FEF7D1FEFEF7D9FE28E015480068C2
:104490000521B0FBF1F201FB120018B9FEF7C4FED2
:1044A000FEF7E8FE1BE00F4800680521B0FBF1F2C3
:1044B00001FB120018B9FEF7A5FEFEF7C7FE0EE0DD
:1044C0000848006800F0010020B9FEF79BFEFEF7E7
:1044D000BDFE03E0FEF790FEFEF7B0FE00BF00BF9A
:1044E00010BD00001C010020200100200EB501219C
:1044F0000846FFF79FF84FF0804000F049F848F277
:10450000A060ADF804004720ADF800000020ADF831
:10451000020069464FF0804000F048F90121880709
:1045200000F023F801221146900700F036F901212E
:10453000880700F020F800210120FFF77BF80EBD6E
:1045400008B54FF4E060FEF7FDFE1C208DF800007A
:1045500000208DF8010003208DF8020001208DF865
:1045600003006846FEF7B6FE08BDCA4302827047E4
:10457000CA430282704721B1028842F001020280E0
:1045800004E002884FF6FE731A4002807047000074
:1045900010B504466848844208D10121C014FFF7D1
:1045A00079F80021E014FFF775F8C4E0B4F1804F0A
:1045B00008D101210846FFF74DF800210120FFF73F
:1045C00049F8B8E05D48844208D101210220FFF794
:1045D00041F800210220FFF73DF8ACE05848844242
:1045E00008D101210420FFF735F800210420FFF74E
:1045F00031F8A0E05348844208D101210820FFF798
:1046000029F800210820FFF725F894E04E4884425D
:1046100008D101211020FFF71DF800211020FFF71D
:1046200019F888E04948844208D101212020FFF789
:1046300011F800212020FFF70DF87CE04448844267
:1046400008D101214014FFF725F800216014FFF77D
:1046500021F870E03F48844209D10121C804FFF7E6
:1046600019F800214FF40020FFF714F863E03A48EE
:10467000844209D101210805FFF70CF800214FF40D
:104680008010FFF707F856E03448844209D1012131
:104690004805FEF7FFFF00214FF40010FEF7FAFF78
:1046A00049E02F48844208D101214020FEF7D2FF83
:1046B00000214020FEF7CEFF3DE02A48844208D189
:1046C00001218020FEF7C6FF00218020FEF7C2FFF7
:1046D00031E02548844208D101218015FEF7BAFF58
:1046E0000021A015FEF7B6FF25E02048844209D13D
:1046F00001210804FEF7CEFF00214FF48030FEF7C1
:10470000C9FF18E01A48844209D101214804FEF784
:10471000C1FF00214FF40030FEF7BCFF0BE015484D
:10472000844208D101218804FEF7B4FF00214FF430
:104730008020FEF7AFFF10BD002C014000040040B8
:1047400000080040000C0040001000400014004031
:1047500000340140004C0140005001400054014031
:1047600000180040001C00400020004000400140B4
:10477000004401400048014030B5024600200023BB
:104780000024158A05EA0103958905EA010413B19D
:104790000CB1012000E0002030BD1AB183890B4329
:1047A000838102E083898B438381704700220288E2
:1047B0001D4B98420ED01D4B98420BD0B0F1804F4C
:1047C00008D01B4B984205D01A4B984202D01A4B86
:1047D000984204D14FF68F731A404B881A43174BF7
:1047E000984207D0164B984204D04FF6FF431A4028
:1047F000CB881A4302808B8883850B8803850A4BFC
:1048000098420BD0094B984208D00E4B984205D0E5
:104810000D4B984202D00D4B984201D10B7A038682
:104820000123838270470000002C014000340140C6
:104830000004004000080040000C00400010004050
:104840000014004000400140004401400048014085
:104850000148006870470000EC00002000200C496F
:10486000097801F0010109B140F002000849097816
:1048700001F0040109B140F004000649096831B9AA
:104880000349097801F0020109B140F002007047C4
:10489000E4000020EC0000200020704710B5272025
:1048A00000F01F0201219140114A430942F82310F0
:1048B00000BF00200F4908600F4908600F490871C8
:1048C00008208871002048714FF4E13008600846E4
:1048D00000F0D8FB272000F01F020121914042097F
:1048E000920002F1E022C2F8001100BF012010BDC9
:1048F00080E100E0E8000020EC000020F000002053
:1049000010B540F22551144800F04BF908B3124895
:1049100000F002FAC4B21148006810B1022808D1B0
:1049200006E000200E49087001200C49086000E0F4
:1049300010BD00BF0A4801780078401C084A10707A
:104940000848445410460078402802D10220034908
:10495000086000BFECE70000003801402C00002098
:10496000280000203402002000B585B00121042079
:10497000FEF780FE01214804FEF75CFE0420ADF83E
:10498000100018208DF8130003208DF8120004A9E0
:104990001648FDF716F90820ADF8100004208DF830
:1049A000130004A91148FDF70CF94FF4E130009011
:1049B0000020ADF80400ADF80600ADF80800ADF831
:1049C0000C000C20ADF80A006946094800F038F9DF
:1049D000FEF75AFC012240F22551054800F00BF980
:1049E0000121034800F07CF805B000BD000801403B
:1049F0000044004070B5344800883449086040F2F3
:104A00002551314800F0CDF850B331488088304905
:104A1000C988401A05B2FF2D22DC2B4800F07CF932
:104A2000C4B22B490888411C294A118002F10801AF
:104A30000C5444B90221244800F0A6F818B1012012
:104A40002449086002E000202249086020480088CC
:104A5000C0B21F49088008468088401C00B2888088
:104A600040F22771184800F09CF820B31A480068FB
:104A7000012803D1144800F054F923E01748B0F995
:104A800004001649B1F90610884215D0134846882B
:104A9000701C124A508002F10800815D0A4800F043
:104AA00045F90E484088C0B20C4948800846C08885
:104AB000401C00B2C88005E0002240F22771024885
:104AC00000F099F870BD000000480040E4000020AC
:104AD00020060020EC000020E8000020180500203F
:104AE00021B1828942F40052828104E082894DF62C
:104AF000FF731A408281704700B585B00121042000
:104B0000FEF7B8FD01218803FEF7B4FD4FF40070F5
:104B1000ADF8100018208DF8130003208DF8120056
:104B200004A91748FDF74DF84FF48060ADF8100068
:104B300004208DF8130004A91148FDF742F84FF442
:104B4000612000900020ADF80400ADF80600ADF83B
:104B50000800ADF80C000C20ADF80A0069460948C1
:104B600000F06EF8FEF7A3FB012240F22551054844
:104B700000F041F801210348FFF7B2FF05B000BD86
:104B8000000801400038014002460020B1F5007FD6
:104B900000D100BF13880B400BB1012000E00020C2
:104BA000704770B50246002400230025002040F61F
:104BB0006A16B14200D100BFC1F3421501F01F03D4
:104BC000012606FA03F3012D02D19689334006E04F
:104BD000022D02D1168A334001E0968A33400C122E
:104BE000012606FA04F41688344013B10CB10120F2
:104BF00000E0002070BDF0B503460024002600252B
:104C0000002040F66A17B94200D100BF1846C1F330
:104C1000421401F01F06012707FA06F5012C01D105
:104C20000C3004E0022C01D1103000E014301AB135
:104C300007682F43076002E00768AF430760F0BDD5
:104C40002DE9F04786B005460E460024A24600BF77
:104C5000A1460027B08900B100BF2F462C8A4CF630
:104C6000FF700440F08804432C82AC894EF6F310A8
:104C70000440B08831890843718908430443AC81FA
:104C8000AC8A4FF6FF400440B0890443AC8201A8CF
:104C9000FEF710FD1F48874202D1DDF810A001E0A9
:104CA000DDF80CA0A88900F4004040B10AEBCA006E
:104CB00000EB0A1031684900B0FBF1F807E00AEB9D
:104CC000CA0000EB0A1031688900B0FBF1F86420DB
:104CD000B8FBF0F004012009642101FB1089A889C8
:104CE00000F4004040B1322000EBC900B0FBF1F00D
:104CF00000F00700044308E0322000EB09106421B3
:104D0000B0FBF1F000F00F0004432C8106B0BDE8C9
:104D1000F08700000038014001468888C0F3080091
:104D20007047818941F0010181817047C1F3080218
:104D3000828070470020704770B50B4D0C460346CB
:104D4000D5E90C0188420BD9401A844200DD0446A3
:104D500022461846FBF7E6F9686B2044686300E0DA
:104D60000024204670BD0000BC01002000207047D8
:104D70002DE9F041194C0D460746D4E90401401ACB
:104D800017490A88101A002802DC0020BDE8F081CB
:104D9000854200DD0546D4E906020026904210D384
:104DA000104A0988431911448B420AD30E1A9046BF
:104DB00032463946FBF7B6F93744AD1B4046C4F8D6
:104DC000188035B12A463946FBF7ACF9A06928446A
:104DD000A0612169A81901442161D7E7BC01002025
:104DE000C88300088E04002010B5054C60680028B8
:104DF00005D10120606000F005F80020606010BD62
:104E0000BC0100202DE9F047224CA06800283BD0CF
:104E1000D4E90401421AE0684FF00006104335D08F
:104E20001D481E4FDFF878800088DFF878903D1825
:104E30002046C1696AB1A069814203D38818A8429B
:104E400000D36A1A99F8003038F81300904200DA5B
:104E500002461548E660007840F0800001F0FCFA58
:104E6000E1690144E16162698D420244626100D1FD
:104E7000E761216991420BD199F8002038F81210AE
:104E8000814205D10120E060BDE8F087A660FBE724
:104E9000E660F9E7BC010020C88300088E0400200A
:104EA000D083000897010020C583000810B50B4C83
:104EB000206A18B1A06A401CA06210BD01202062C7
:104EC000606200F00DF8002060622062D4E90C01FD
:104ED0008842F2D0401AFFF749FF10BDBC01002004
:104EE00010B5134C144A1348216B1288144B081A3E
:104EF000101A124A1B7832F8132090420EDB114828
:104F0000007800F003FF216B08442063A06A0028AA
:104F10000CD0616A002909D1401E06E00120E06240
:104F2000606A002802D0A06A401CA06210BD000088
:104F3000BC010020CE040020CA830008D0830008F2
:104F400097010020C683000810B50446400702D52B
:104F50002046FFF7ABFF200704D52046BDE81040F0
:104F6000FFF742BF10BD704708B501216846FFF743
:104F7000E3FE012802D04FF0FF3008BD9DF800008D
:104F800008BD0020704700207047000010B50B4896
:104F900000F042F8002810D0084A09481168017052
:104FA0000B0A43700B0C8370090EC17011790171EB
:104FB0005179417191798171012010BDF401002076
:104FC000CC03002010B500F039F810BD0F4910B522
:104FD0000978C1B10E49A12202230A7020224A7029
:104FE00000228A70CA700A714A718B71CA71087284
:104FF000000A487207480A22007840F0800001F059
:105000002BFA012010BD002010BD000095010020EA
:105010000E050020C4830008014607480079087186
:1050200005488079887104484079487102480068D1
:105030000860012070470000F000002010B5012139
:105040000846FEF717FB01218804FEF7F3FAFFF785
:1050500025FC05490548FCF7B4FD05490348FCF764
:10506000B0FD012010BD0000AA850008000C014021
:10507000AE85000810B5FFF711FC10BD01460120F8
:105080007047000070B50546284CA879082801D063
:10509000002070BD0020A080687920B1012809D0CF
:1050A00002280BD102E00020208109E04FF480604B
:1050B000208105E04FF4C060208101E00020E8E796
:1050C00000BF287920B1012809D002280BD102E0C5
:1050D0000020E08009E04FF40050E08005E04FF44C
:1050E0004050E08001E00020D3E700BF287910495C
:1050F0000871A879887168794871286808602868FB
:1051000020600C2060810020A08121460948FFF723
:1051100097FD012240F225510648FFF76CFD012161
:105120000448FFF7DDFC0120B3E70000280700205A
:10513000F00000200048004001B501216846FFF75B
:1051400017FE012802D04FF0FF3008BD9DF8000087
:1051500008BD000010B51048002410494460846068
:10516000C4600461C0E90541C0E9071444620C4908
:105170008462C0E90B4141630480FFF77BFF06486E
:105180004FF4165138300160047144710821817167
:10519000FFF778FF10BD0000BC0100208E04002046
:1051A000CE04002010B5FFF7D5FF10BD70B5174C29
:1051B00000250126206A50B9D4E90C10814206D19D
:1051C0001348814203D02063E56225626063A06AD0
:1051D00070B1206A60B9E06A50B92662FFF780FEBC
:1051E0002562D4E90C01884202D0401AFFF7BEFDC7
:1051F000D4E90101084308D1D4E90401884204D06C
:105200006660A660FFF7FEFD656070BDBC01002012
:10521000CE04002000207047002070470020704717
:10522000024910B50880FFF729FF10BDBC0100201E
:10523000084810B5C178026861F31F6206490A6028
:1052400002790A7142794A71807988710846FFF7BC
:1052500019FF10BDCC030020F401002010B5044656
:105260002046FCF7DFFB43F230012046FCF7FAFB57
:1052700010BD000010B50246937803F00F0190882E
:10528000937803F0800353B1294B1B88294C246881
:1052900004EB01142360431C23F0010020E0244BA5
:1052A0001B88244C246804EB0114A3603E280ED90B
:1052B00000F11F0323F01F000123C3EB401343F44D
:1052C00000431C4C246804EB0114E36008E0431C19
:1052D00023F001004302174C246804EB0114E3603F
:1052E000134B1B880344124C2380D37803F0030331
:1052F00033B1012B07D0022B08D0032B0FD10BE0C9
:105300004FF400700BE04FF4806008E000200023B1
:105310000BB140F4807002E04FF4C06000BF00BFEA
:105320000843054C04EB8103C3F8000C10BD0000DA
:10533000E0000020DC0000200050004030B9402197
:10534000034A11801146098880311180704700009E
:10535000E000002000F086BA70B101210A4A116015
:1053600000211160121D11604FF4E051121F1160F5
:10537000D113064A116006E00321034A1160D113DC
:10538000024A121F11607047405C0040140801403F
:1053900010B50B4C0B48A28801788A4200D9CAB2DA
:1053A0001AB907490020183908718020216801F0D6
:1053B00053F8216801442160A188081AA08010BD1B
:1053C000AC010020AD83000810B5064C0020216818
:1053D00000F09CFC216801442160A188081AA0808B
:1053E00010BD0000AC010020704710B5044600213C
:1053F0002046FCF737FB10BD10B5044643F22001F0
:105400002046FCF72FFB10BD2DE9F047DFF8448262
:105410000646A8F1080580074FF0000AA5F1180418
:1054200024D500F0EDFF98F800004746C009FFF7CB
:10543000DBFFF888A8803978C1F3411010B101284A
:1054400077D17DE098F80120834FDFF810920C2A85
:105450006FD2DFE802F0060C951C952B3B953F457B
:10546000526100F05FFD33E0FFF792FF96E000200D
:1054700000F096FD00285CD000F0C8FF386820B12D
:105480006169002921D0082050E0484653E00120FE
:1054900000F086FD002873D000F0B8FF38680028BF
:1054A000F3D06169002979D004203FE011F01F0F8B
:1054B00066D198F80200012140F08000207000F0D1
:1054C0007F0000F08BFF00F0A1FF67E000F050FCD0
:1054D00078B3C9E711F01F0F52D15E481F3819E0A9
:1054E00000F0B4FD28B300F091FF386818B161698D
:1054F00029B301201AE05A481DE001F01F010129DB
:105500003ED16178A9B198F80400A178884237D2D9
:10551000544908442860A7E700F060FE48B100F055
:1055200075FF386830B1616949B1022002F00AFFA5
:1055300034E025E04C48016809B1084680472DE079
:1055400011F01F0004D0012805D0022818D111E065
:1055500000F02AF913E000F02DF9F8B900F080F915
:10556000E0B900F0CFF8C8B900F0CEF8B0B900F05B
:105570001FF904E000F0C4F880B900F017F968B929
:1055800098F80010090604D4B8F8060008B1002005
:1055900000E0802000F02CFFA5F804A0700735D5AE
:1055A00098F80000474600062ED4A88858B3FFF7A5
:1055B0000BFFA88838BB3878C0F34111F1B101293D
:1055C0001CD110F01F0004D0012805D0022815D1ED
:1055D0000EE000F077F810E000F07AF898B900F0EB
:1055E00047F880B900F046F868B900F06FF804E0B9
:1055F00000F03CF838B900F067F820B9802000F0DE
:10560000F7FEA5F804A001E000F006FF300713D56F
:1056100098F80000000606D5A888217908430BD029
:10562000FFF7B6FE08E02078010605D500F07F0000
:105630002070002100F0D2FE700602D50020FFF796
:105640000DFE300604D5BDE8F0478020FFF706BE0A
:10565000BDE8F087B40100203C84000838840008CD
:1056600030840008CE0000203484000800207047F9
:105670000020704710B51048104A01791278914205
:1056800003D00F4A1278914214D1417821B10229F6
:1056900005D020290ED10AE0FFF7BEFD02E04088C8
:1056A000FFF7BCFD30B100F0B1FE012010BDFFF7E7
:1056B000BFFDF7E7002010BDB4010020C283000841
:1056C000C383000800207047002070470020704707
:1056D00010B50948094A01791278914209D14078F8
:1056E000092806D100F0D8FA18B100F08FFE012089
:1056F00010BD002010BD0000B4010020AE830008E2
:10570000002070470020704770B52249224A08796E
:105710001278904203D0214A1278904238D11D4825
:1057200049781F4C1F4D408804291FD007DC79B1F0
:1057300001290FD002290BD0032929D111E02029FA
:1057400006D021291AD022291BD0232920D11BE0E1
:105750002C6011E0FFF717FC05E02C60FFF718FE46
:105760000AE0FFF70EFC0028F7D111E0FFF7E2FA9C
:105770000CE000BF00F04AFE012070BDFFF706FC00
:10578000F1E7FFF74DFD01E0FFF744FD0028F1D1FF
:10579000002070BDB4010020C2830008C38300084C
:1057A000CC030020AC01002000207047002070478F
:1057B000002070472DE9F041224C234920790978D7
:1057C00088423DD16078214D214E224F0C2837D29E
:1057D000DFE800F03606212D36363636361624320E
:1057E00000F070F960B3E078012802D0032803D0FC
:1057F00003E01948286000E02E60FFF7C9FD13E0C0
:10580000E078022802D0032803D00DE01348286076
:105810000AE02E6008E000F03DF90AE000F014FA1A
:105820000CE000BF00F0F2FD0120BDE8F08100F0C7
:105830003FF928B12F60E0E700F024FA0028F1D109
:105840000020F2E7B4010020AE830008AC01002084
:10585000D8000020CC0300200D0400204E040020BE
:1058600000207047084800214170C160016141611A
:105870008161C16141808180016241628162C18038
:10588000C162018170470000FC0100202DE9F05F3A
:10589000DFF84081DFF840A1DFF840B10127504C2C
:1058A00008F101090025A561606910B1A761BDE893
:1058B000F09F6761A088618888421AD3206AC0B9C6
:1058C000E561A580012398F8001008F1010218464F
:1058D00002F0B2FB0004000C60800CD04149C4F817
:1058E0001C800978012902D8C4F81C903BE0401CB8
:1058F00060806088B8BBE068A8BB216999B339486B
:105900004246007801280FD81570A5800223521C4A
:105910000021012002F090FB0004000C608001D007
:10592000C4F81C9025611EE01678202E00D30026B6
:1059300007FA06F0084240D0701CC1B21170A58071
:10594000022308F10102012002F076FB0104090C98
:10595000618003D0491CC4F81C806180216907FA6A
:1059600006F0814321616088216A01432AD0A18821
:10597000401A9BF8001086B23AF81100B04200D2EB
:105980000646676218483246E169007840F08000B8
:1059900000F062FDE06915493044E061A0883044C0
:1059A00080B2A080098888420AD29BF800103AF899
:1059B0001100B04204D1276205E0761CF6B2B4E7CC
:1059C000256200E065626561A06900287FF46BAF25
:1059D0006DE700000C040020B6830008970100204A
:1059E000FC010020BA830008AF830008BC830008D4
:1059F000F8B5194C194D0026E08800B9A562184881
:105A0000A16A007800F082F90004A16A000C014448
:105A1000A162E18801448BB2E3800AD01149098870
:105A20008B4206D2114A1049127831F81210814285
:105A300010D90F48017801200129009003D80021D6
:105A4000064A022003E029786A1C02205B1E02F04D
:105A50001BFCE680F8BD0000FC0100204D04002086
:105A6000B0830008BE830008B683000897010020B9
:105A7000BB83000810B50446000702D52046FFF797
:105A800005FF600704D52046BDE81040FFF7B0BF12
:105A900010BD0000034804498078085C0349087081
:105AA00001207047B4010020D6000020CC03002064
:105AB00010B502F0BFFA02490870012010BD0000C5
:105AC000CC0300200B4910B5C8780022012804D06F
:105AD000022804D0032806D103E0074A02E0002090
