:020000040800F2
:10000000600200206D010008710100087301000802
:100010007501000877010008790100080000000060
:100020000000000000000000000000007B0100084C
:100030007D010008000000007F0100088101000828
:100040008301000883010008830100088301000880
:100050008301000883010008830100088301000870
:100060008301000883010008830100088301000860
:100070008301000883010008830100088301000850
:100080008301000883010008830100088301000840
:100090008301000883010008830100088301000830
:1000A0008301000883010008830100088301000820
:1000B0008301000883010008830100088301000810
:1000C0008301000883010008830100088301000800
:1000D00083010008830100088301000883010008F0
:1000E00083010008830100088301000800F002F882
:1000F00000F02CF80AA090E8000C82448344AAF196
:100100000107DA4501D100F021F8AFF2090EBAE893
:100110000F0013F0010F18BFFB1A43F0010318473B
:10012000A4020000B40200000023002400250026E1
:10013000103A28BF78C1FBD8520728BF30C148BF4A
:100140000B6070471FB51FBD10B510BD00F003F95F
:100150001146FFF7F7FF00F023F800F021F903B490
:10016000FFF7F2FF03BC00F025F900000848004744
:10017000FEE7FEE7FEE7FEE7FEE7FEE7FEE7FEE757
:10018000FEE7FEE703480449024A044B70470000BB
:10019000ED000008600000206002002060000020E8
:1001A00000F088F81E48806940F001001C49886111
:1001B0000846806940F01C0088614FF033301949CF
:1001C0000860091F086018494860086017490860FE
:1001D000091F086016490860091F08601EE06420B6
:1001E00000F035F800200F49083108601049083147
:1001F00008600D49C8600D4908310860642000F0AE
:1002000026F84FF0FF3007490831086008490831E7
:1002100008600549C860054908310860DFE700004B
:1002200000100240040C0140001001400414014081
:1002300004080140014605E0002001E0421CD0B264
:100240000928FBDB0A00A1F10101F5D1704710B5C7
:10025000044603E04FF47A70FFF7ECFF2000A4F1AE
:100260000104F7D110BD00203449C8600861142092
:10027000486100208861C8610846006840F00100BC
:100280000860084640682E4908402C4948600846E6
:1002900000682C490840294908600846006820F495
:1002A000802008600846406820F4FE004860002076
:1002B0008860704700B500230022FFF7D4FF1F4875
:1002C000006840F480301D490860002201E0501CA5
:1002D000C2B21A480068400C08B9C82AF7DB1A48AD
:1002E000006840F032001849086014484068174917
:1002F0000843124948600846006840F08070086072
:10030000002201E0501CC2B20C480068400E08B93F
:10031000C82AF7DB0948406840F0020007494860F6
:1003200007E006484068C0F38703501CC2B203F0E0
:100330000303022B01D0C82AF3DB00BD00100240EA
:100340000000FFF8FFFFF6FE0020024000241D0021
:10035000704770477047754600F028F8AE460500B4
:100360006946534620F00700854618B020B5FFF7D0
:1003700009FFBDE820404FF000064FF000074FF0A6
:1003800000084FF0000B21F00701AC46ACE8C009B3
:10039000ACE8C009ACE8C009ACE8C0098D467047BC
:1003A0000446AFF300802046FFF7D9FE00487047AF
:1003B0000000002001491820ABBEFEE72600020025
:1003C00070470000D4030008000000206002000015
:0403D00028010008F8
:04000005080000ED02
:00000001FF
