:020000040800F2
:10000000701C002001010008090100080F01000810
:100010001B01000821010008270100080000000062
:100020000000000000000000000000002D0100089A
:100030002F010008000000003501000855350008B8
:1000400039010008390100083901000839010008A8
:100050003901000839010008390100083901000898
:100060003901000839010008390100083901000888
:100070003901000839010008390100083901000878
:100080003901000839010008390100083901000868
:10009000D13D000839010008390100083901000884
:1000A00039010008753600083901000839010008D7
:1000B0003901000839010008390100083901000838
:1000C0003901000839010008390100083901000828
:1000D0003901000839010008DD370008390100083E
:1000E00039010008390100086F3B0008DFF80CD027
:1000F00000F0A6FA0048004759630008701C002071
:100100000E4880470E4800470E488047FEE72DE91D
:10011000F04F68460C498847FEE70C488047FEE7E9
:100120000B488047FEE70B488047FEE7FEE70A489A
:100130008047FEE7FEE7FEE7FEE700001536000811
:10014000ED000008F545000839420008C9450008DF
:10015000E541000821460008114200082DE9F05F42
:100160000546002092469B46884606468146402426
:100170001BE0284641464746224600F0A0F9534678
:100180005A46C01A914110D311461846224600F033
:1001900087F92D1A67EB01084F46224601200021FE
:1001A00000F07EF917EB00094E41201EA4F1010476
:1001B000DFDC484631462A464346BDE8F09FD2B2CE
:1001C00001E000F8012B491EFBD270470022F6E740
:1001D00010B513460A4604461946FFF7F0FF2046BD
:1001E00010BD421C10F8011B0029FBD1801A70477A
:1001F00010B5002200E0521C835C8C5CA34201D14C
:10020000002BF8D1D8B2E1B2401A10BD2DE9F05F51
:1002100093460F4680460446002604F017FAD0F8AD
:100220000090824614F8015B2DB100F059F9006886
:10023000405DC007F6D12B2D02D02D2D1AD0641EA3
:100240000021CAF800105A463946204600F04CF901
:10025000014627B13868A04201D1C7F80080DAF81A
:100260000000022809D0CAF80090700505D5484260
:10027000BDE8F09F46F48066E2E70846F8E72DE91E
:10028000FE4F81EA030404F0004421F00041009491
:100290004FF0000B23F0004350EA01045ED052EA15
:1002A00003045BD0C3F30A54C1F30A552C44A4F2EF
:1002B000F3340194A0FB0254C1F3130141F4801103
:1002C000C3F3130343F4801301FB024400FB034E0A
:1002D000840A970A44EA815447EA8357A4FB0768D3
:1002E00002958D0A05FB07854FEA932C04FB0C54FD
:1002F0002705029D4FEA065847EA1637B5EB080571
:100300006EEB070C870E920E47EA811742EA8312C2
:10031000A7FB0201B6EB0B0164EB00042B0D43EAD3
:100320000C335E1844EB1C50DA465146E7FB0201E1
:10033000C5F313044FEA0B3343EA14534FEA043274
:10034000019C43EA0603A4F10C040294009CCDE94D
:1003500000B400F027F903B0BDE8F08F002001469B
:10036000F9E72DE9F04D81EA030404F0004B21F098
:10037000004514464FF0000A23F0004150EA050200
:1003800020D054EA01021DD0C5F30A570246C5F336
:100390001303C1F31300C1F30A5640F4801543F46C
:1003A0008013A7EB0608101BD64608F2FD3873EB46
:1003B000050002D308F1010801E092185B41B8F191
:1003C000000F03DA00200146BDE8F08D00204FF455
:1003D0008011064684460EE0171B73EB050705D314
:1003E000121B63EB050306434CEA010C49084FEA74
:1003F000300092185B4150EA0107EDD152EA030048
:1004000012D082EA040083EA0501084305D0101BDC
:10041000AB4106D20122002306E000224FF0004348
:1004200002E06FF0010253101AEB06004CEB08518A
:1004300010EB0A0041EB0B01BDE8F04D00F0A3B852
:100440000EB5C10F80EAE0700844CA07002140F2EF
:1004500033438DE80E000A460B4600F0A3F803B0C4
:1004600000BD70B5C1F30A5201F000450024C1F38C
:10047000130140F2FF3341F480119A4201DA002067
:1004800070BD40F233439A42A2F2334203DC52423F
:1004900000F015F800E090402C43F1D0404270BDD0
:1004A000202A04DB203A00FA02F100207047914034
:1004B000C2F1200320FA03F3194390407047202A29
:1004C00004DB203A21FA02F00021704721FA02F3FE
:1004D000D040C2F120029140084319467047000005
:1004E00000487047D07100082DE9F05F824600781F
:1004F000002715468B460AF10104B946302801D081
:100500009DB113E014F8010B0127782803D0582877
:1005100001D045B10AE00DB1102D07D100271025FB
:1005200014F8010B02E0082500E00A250026B04679
:100530000EE005FB080005FB06F1012701EB104664
:100540001FFA80F8B6F5803F00D3B94614F8010BC6
:10055000294600F087F80028EBDABBF1000F05D040
:100560000FB1641E00E05446CBF80040B9F1000F13
:1005700006D004F06BF802210160C81EBDE8F09FB0
:1005800048EA0640FAE710B5141E73F1000408DAD1
:10059000401C41F1000192185B411A4301D120F047
:1005A000010010BD2DE9F04D92469B4611B1B1FA04
:1005B00081F202E0B0FA80F220329046FFF770FF3D
:1005C00004460F4640EA0A0041EA0B0153465A46E8
:1005D000084313D0114653EA010019D0C8F1400274
:1005E0005046FFF76CFF05460E46504659464246B8
:1005F000FFF756FF084305D0012004E020463946A6
:10060000BDE8F08D0020054346EAE0762C433743F1
:100610000A986305E40AA0EB08000022FD0A44EAF8
:1006200047540A3002D500200146E9E701051019B8
:100630006941DDE9084500196941BDE8F04DA2E7CF
:10064000064C074D06E0E06840F0010394E807001F
:1006500098471034AC42F6D3FFF74CFD38750008CC
:10066000587500083A2800D2303820F02002412A7C
:1006700001D3A2F13700884201D34FF0FF30704719
:1006800070B58D1810F8014B14F0030201D110F869
:10069000012B231106D110F8013B03E010F8016B88
:1006A00001F8016B521EF9D1ABB110F8012B04F027
:1006B0000C048A1A0C2C03D0A2EB84129B1C08E0B9
:1006C00010F8014BA2EB0422F8E712F8014B01F8F5
:1006D000014B5B1EF9D5A942D4D3002070BD0000A8
:1006E0000EB50121C80201F05FFF40F2E730ADF81E
:1006F00004004720ADF800000020ADF80600ADF87A
:1007000002008DF808006946084803F015F8012139
:10071000064802F0E5FF01221146044803F003F801
:100720000121024802F0E2FF0EBD0000002C014052
:1007300008B54FF4E06001F0BFFD19208DF800000E
:1007400000208DF8010003208DF8020001208DF8B3
:100750000300684601F078FD08BD70B50446002529
:10076000012601F033FBEE2001F096FA06467EB931
:10077000204601F091FA01F029FBEF2001F08CFAFC
:1007800001F07CF90546012001F040FA01F054FB2C
:10079000284670BD2DE9F04107464FF0010801F0F1
:1007A00015FBEE2001F078FA8046B8F1000F15D164
:1007B000384601F071FA01F009FBEF2001F06CFA04
:1007C00001F05CF90446002001F020FA01F056F92E
:1007D0000546012001F01AFA01F02EFB05EB04207A
:1007E00006B23046BDE8F0810146CAB20B1243EAB8
:1007F0000220704708B50020009022E19748008849
:1008000000F00F00964908700846007800287CD157
:1008100094480068944908800846008800F0300039
:10082000924908809048008800F440508E49088022
:100830008C4909684BF6BF7201EA020080F400504F
:1008400080F0200040F4004141F08001854A1160B1
:100850008248008800F0100090BB1046006848F6FF
:100860000F7108401146086001F050FB7D4909688E
:100870004BF6BF7201EA02007B49098801F48051FE
:1008800009B180F480507849098801F4005109B118
:1008900080F400507549098801F0100109B180F019
:1008A00010007249098801F0200109B180F0200090
:1008B00081B241F4004141F080016A4A116008BDF3
:1008C000FFE76848006880B20090BDF8000000F4BF
:1008D0000060B0B363480068C0F30E0048F68F7143
:1008E00008406049086002F00DFB5E4909684BF65C
:1008F000BF7201EA02005C49098801F4805109B124
:1009000080F480505849098800E056E001F4005115
:1009100009B180F400505549098801F0100109B16E
:1009200080F010005149098801F0200109B180F0E0
:10093000200081B241F4004141F08001494A116038
:10094000BDE7FFE7BDF8000000F40040002878D0C4
:1009500044480068C0F30E0048F68F7108404149D2
:10096000086001F04FFD3F4909684BF6BF7201EA8C
:1009700002003D49098801F4805109B180F480509A
:100980003949098801F4005109B180F40050374910
:10099000098801F0100109B180F01000334909887D
:1009A00001F0200109B180F0200081B241F4004142
:1009B00041F080012B4A116081E7294800782C49D9
:1009C00001EB8000D0F8000C80B20090BDF8000070
:1009D00000F40040C0B12248007801EB8000D0F85C
:1009E000000CC0F30E0048F68F7108401C490978CE
:1009F0001F4A02EB8101C1F8000C19490978491E10
:100A00001C4A52F821008047BDF8000000F0800029
:100A1000B8B113480078164901EB8000D0F8000CFB
:100A200048F60F7108400E490978114A02EB81011E
:100A3000C1F8000C0A490978491E0F4A52F82100F2
:100A4000804708484430006880B20449088000F4B8
:100A5000004000287FF4D2AE00BF30E7BC05002084
:100A600068050020005C00407C0500207E05002019
:100A700000500040E4050020C80500200B4A02EBAE
:100A80008001D1F8001C01F4804171B102EB8001BA
:100A9000D1F8001C48F68F7211404CF280021143CD
:100AA000024B03EB8002C2F8001C7047005000406C
:100AB0000B4A02EB8001D1F8001C01F0400171B13A
:100AC00002EB8001D1F8001C48F68F72114048F209
:100AD000C0021143024B03EB8002C2F8001C7047B6
:100AE00000500040084A02EB8001D1F8001C48F693
:100AF0008F62114048F280021143034B03EB8002E6
:100B0000C2F8001C70470000005000402DE9F04F73
:100B10008DB082468B465D480088AAEB00005C4998
:100B200009884843C4135B48B0F90000C0025A4921
:100B3000B1F90010214490FBF1F560190990099872
:100B400008300011089000BF5448006818B154A044
:100B5000089903F037FB00BF0998A0F57A6653485F
:100B6000B0F9000070437043C4155148B0F900005B
:100B70007043C51260190B904E49B1F900100B9AE1
:100B800002EB8101881CC11700EB917189100A9159
:100B90004948B0F900007043441306FB06F0001307
:100BA0004649B1F90010484305146019801C8010B3
:100BB0000B90434801880B9800F5004041434FEAF1
:100BC000D1390A99ABEB01004CF2503100FB01F82E
:100BD000B8F1004F04D24FEA4800B0FBF9F702E049
:100BE000B8FBF9F047003846FFF72AFC0022354BE6
:100BF000CDE90001FFF7B5FBCDE904013846FFF769
:100C00001FFC00222F4BCDE90001FFF7AAFBCDE925
:100C10000201DDE90423FFF732FBCDE90601FFF70E
:100C200020FC044640F6DE306043041400BF1B483D
:100C3000006830B123464FF4BF72234923A003F06C
:100C4000C1FA00BF24487843051400BF1348006868
:100C500030B12B4640F281121B491CA003F0B2FABE
:100C600000BF601900F6CF6007EB201700BF0B48EC
:100C7000006830B13B464FF4C272134917A003F02D
:100C8000A1FA00BF0DB0BDE8F08F000022050020E2
:100C9000200500202A0500202C0500207C000020D3
:100CA00074656D703A202564200A00002605002036
:100CB0001A050020180500201C050020240500202E
:100CC0001E050020000070404770000825732D2588
:100CD000642025640A00000043E3FFFF25732D25EF
:100CE000642070726573732025640A0008B50121C1
:100CF000042001F059FC4020ADF8000010208DF8D0
:100D0000030003208DF802006946024800F05FFDF1
:100D100008BD00000008014010B5FFF7E7FF4021C3
:100D2000014800F0EAFD10BD0008014008B5402070
:100D3000ADF8000048208DF803006946014800F036
:100D400046FD08BD0008014008B54020ADF8000090
:100D500010208DF8030003208DF802006946024838
:100D600000F035FD08BD00000008014070B5002509
:100D7000002424E000BF4021134800F0B3FD002808
:100D8000F9D0282006F08EF840210F4800F0AAFD87
:100D900001280DD100BF40210B4800F0A3FD012820
:100DA000F9D0C4F1070101208840C0B2054304E036
:100DB000C4F10701012088408543601CC4B2082C9F
:100DC000D8DB284670BD00000008014010B504467D
:100DD000FFF7BAFF4021244800F08DFD122005F0F6
:100DE000DDFC4021204800F088FD1E2006F05AF866
:100DF000FFF79CFF40211C4800F074FD80BB00BF42
:100E00004021194800F06EFD0028F9D000BF4021B4
:100E1000154800F067FD0128F9D0FFF7A7FF207003
:100E2000FFF7A4FF6070FFF7A1FFA070FFF79EFF20
:100E3000E070FFF79BFF2071FFF786FF40210A4813
:100E400000F05BFD207861780844A1780844E178DF
:100E500008442179884201D1012010BD0020FCE71F
:100E6000FFE70020F9E700000008014008B5012174
:100E7000042001F099FB2020ADF8000010208DF82F
:100E8000030003208DF802006946024800F09FFC31
:100E900008BD0000000801402DE9F04100F086F88F
:100EA000002405E01949085D00F02CF9601CC4B26B
:100EB000082CF7DB442000F025F900F077F8002437
:100EC00005E01249085D00F01DF9601CC4B2082C51
:100ED000F7DBBE2000F016F900F0DEF8804600F0E7
:100EE000DBF80646300205B245EA0805002D06DAB1
:100EF000E843401C40F2712100FB01F703E040F29F
:100F0000712005FB00F73846BDE8F0810C05002094
:100F100070B5FFF7ABFF2021134800F0EEFC00F0A6
:100F2000DBF800F06DF80446104800F0C6F80F4DED
:100F300000BF0F48006830B1686802BA286801BA7B
:100F40000CA003F03FF900BF00BF0948006838B1AA
:100F50000CB90DA000E00EA001460FA003F032F97D
:100F600000BF204670BD0000000801400C050020B5
:100F70007C000020647331386232302069643A208A
:100F80005B257825785D0A007375636300000000B7
:100F90006661696C00000000445331384232305FB2
:100FA000496E6974202573200A00000010B500F016
:100FB00093F800F025F8552000F0A4F810BD0000CB
:100FC00008B52020ADF8000048208DF803006946E0
:100FD000014800F0FCFB08BD0008014008B52020D6
:100FE000ADF8000010208DF8030003208DF80200FA
:100FF0006946024800F0EBFB08BD00000008014014
:1010000010B50024FFF7DCFF04E0601CC4B201202F
:1010100005F048FF20210F4800F064FC08B1642C63
:10102000F3DB642C01DB012010BD002404E0601C14
:10103000C4B2012005F036FF2021064800F052FC22
:1010400008B9F02CF3DBF02C01DB0120ECE70020E9
:10105000EAE700000008014010B5FFF7BFFF2021BC
:101060000C4800F048FC0A2005F01CFFFFF7A8FF21
:10107000022005F017FF2021064800F033FC01286C
:1010800001D1012400E000242D2005F00BFF2046B3
:1010900010BD00000008014070B50026002408E0E3
:1010A000FFF7DAFF054605FA04F03043C6B2601CCC
:1010B000C4B2082CF4DB304670BD70B50546332051
:1010C00000F020F8002404E0FFF7E6FF2855601C3C
:1010D000C4B2082CF8DB70BD10B5FFF77FFF2021EC
:1010E000074800F008FC40F2EE2005F0DBFE20216E
:1010F000034800F002FC0F2005F0D4FE10BD0000F4
:101100000008014070B50446FFF768FF002522E0A3
:1011100004F00106641076B12021104800F0EBFBCA
:10112000082005F0BFFE20210C4800F0E6FB3A2025
:1011300005F0B8FE0DE02021084800F0DCFB462059
:1011400005F0B0FE2021054800F0D7FB022005F095
:10115000A9FE681CC5B2082DDADB70BD000801408D
:101160002DE9F0472848006800F110052E88264830
:101170000068077AD6B9042F18D1244800780128CE
:101180000FD100212248006880B2801C214A42F819
:10119000101030202049088000BF00201B49087033
:1011A00003E0072710201C49088027E0AC88A642EE
:1011B00001D8042000E002200746B44200D934469A
:1011C000A0B2A96888478046002000F0BBFB81469A
:1011D000A2B24946404602F08BFEA1B2002001F0C7
:1011E0007DFD2888001B2880688820446880302086
:1011F0000949088000020949088000BF02490968BE
:101200000F72BDE8F08700006C0500206605002025
:10121000505C0040006000407E0500207C050020FE
:101220002DE9F0412848006800F110042688A068E4
:10123000C0B1BEB1A588B54200D93546A8B2A168F3
:10124000884707462088401B2080608828446080AB
:10125000002000F055FB8046AAB24146384601F016
:10126000F9F800BF208850B14FF44050174908806A
:101270000021084601F032FD302015490880208801
:10128000A188884204DB03200F490968087218E02E
:101290002088002804DD05200B490968087210E049
:1012A000208870B906200849096808720021094899
:1012B000006880B2801C084A42F8101030200449AF
:1012C0000880BDE8F08100006C0500207C0500204E
:1012D0007E050020505C0040006000402DE9F84F82
:1012E0009B48006845780027BA46062D1BD19848D0
:1012F0000068007800F07F00002813D19449096845
:101300008878012803D193490968CF690AE0022847
:1013100003D1904909680F6A04E0032802D18D497E
:1013200009684F6A94E0002D64D1894800684088BC
:1013300000285FD186480068C08802285AD18448B6
:1013400000680079002855D181480068007800F0D5
:101350007F0028B97E480068808808B97E4F77E012
:101360007B480068007800F07F00012810D17849A0
:1013700009684879774909688A69002190470028F7
:1013800066D173480068807A002861D0724F5FE0B0
:101390006F480068007800F07F00022858D16C4840
:1013A0000068407900F00F0669480068407900F055
:1013B000700967480068407900F0800038B16749DB
:1013C00001EB8600D0F8000C00F0300806E063491D
:1013D00001EB8600D0F8000C00F44058604800781B
:1013E000B04235D9B9F1000F32D1B8F1000F2FD08A
:1013F000594F2DE0082D07D155480068007800F0BE
:101400007F0028BB574F23E00A2D21D150480068A8
:10141000007800F07F0001281AD14D480068807ADA
:10142000B0B14B480068408890B9494800680079DD
:1014300070B947480068C088012809D14449096843
:101440004879444909688A690021904700B9464FA4
:1014500057B13F480068A0F812A03D480068876176
:101460000020B84700240FE0394A12685078394A02
:101470001268116988470446032C05D109203449B4
:1014800009680872BDE8F88F31480068008A4FF695
:10149000FF71884204D109202D4909680872F1E7DB
:1014A000022C03D02A480068008A20B90820284965
:1014B00009680872E6E726480068007800F08000B6
:1014C000E0B323480068C088009021480068008A83
:1014D0000099884204D91E4900980968088223E0CF
:1014E0001B480068008A1A490968C98888421BDAC3
:1014F00017480068008A1749096891F82C1088423B
:1015000003DA0020194908700EE011480068008ACB
:101510001049096891F82C1090FBF1F201FB1200C0
:1015200010B90120114908700A48006890F82C1081
:10153000074800688182FFF713FE07E0FFE70320FA
:1015400003490968087200030949088000BF99E748
:101550006C05002070050020A531000800500040F7
:101560000C060020293100087931000866050020AA
:101570007C05002010B500240F480078012819D1FF
:1015800040210E4802F06AFC84B2002C0FDD224696
:10159000C0210A4802F0ACFC2146012001F09EFB6C
:1015A000012001F0C9FB00200549086002E000208D
:1015B0000149087010BD0000B4050020D0170020BC
:1015C000B805002010B50649032002F02FFC84B2B4
:1015D0002146034802F00CFC032001F055FB10BD2E
:1015E00010180020014908607047000014040140F1
:1015F000002123498279002A3AD00A4612680368FA
:101600009A430B461A600A1D126803689A430B1D21
:101610001A60027911440A6803681A430A60184A7A
:101620000832126803689A43154B08331A601A1D72
:10163000126803689A43124B0C331A604279102ADD
:101640000ED11A1F126803681A430D4B08331A6033
:101650001A1D126803681A43094B0C331A600DE017
:101660000749427911440A6803681A430A6005E091
:10167000027911440A6803689A430A6070470000BF
:10168000000401400149C86070470000002002408A
:1016900030B5044604254FF4302000F085F80546A7
:1016A000042D17D10C48006940F002000A49086176
:1016B00008464461006940F0400008614FF4302062
:1016C00000F072F805460448006941F6FD710840D3
:1016D00001490861284630BD0020024004200B4922
:1016E000C96801F0010109B101200EE00749C9688C
:1016F00001F0040109B1022007E00449C96801F0C2
:10170000100109B1032000E00420704700200240CE
:101710000348006940F080000149086170470000FB
:101720000020024078B506460C46042500200090B3
:10173000E80200F039F80546042D24D11348006969
:1017400040F00100114908613480E80200F02CF8F3
:101750000546042D10D1B01C0090200C0099088083
:10176000E80200F021F805460848006941F6FE71DC
:1017700008400649086106E00448006941F6FE7128
:10178000084002490861284678BD00000020024058
:101790000248034948600348486070472301674591
:1017A00000200240AB89EFCD00B502460423FFF7CD
:1017B00095FF034603E0FFF791FF0346521E012BFE
:1017C00001D1002AF7D102B90523184600BD2DE941
:1017D000F0410246002500260020002300240027B7
:1017E00091F803C00CF00F0591F803C00CF0100C39
:1017F000BCF1000F03D091F802C04CEA050591F846
:1018000000C0BCF1000F31D0146800202BE04FF075
:10181000010C0CFA00F3B1F800C00CEA03069E427A
:1018200020D183004FF00F0C0CFA03F7BC4305FAEC
:1018300003FC4CEA040491F803C0BCF1280F06D164
:101840004FF0010C0CFA00FCC2F814C00AE091F849
:1018500003C0BCF1480F05D14FF0010C0CFA00FC9D
:10186000C2F810C0401C0828D1D31460B1F800C0E1
:10187000BCF1FF0F34DD546800202EE000F1080CAD
:101880004FF0010808FA0CF3B1F800C00CEA0306A7
:101890009E4221D183004FF00F0C0CFA03F7BC439A
:1018A00005FA03FC4CEA040491F803C0BCF1280FCC
:1018B00005D100F1080C08FA0CF8C2F8148091F870
:1018C00003C0BCF1480F07D100F1080C4FF001082C
:1018D00008FA0CF8C2F81080401C0828CED35460D7
:1018E000BDE8F0810246002093680B400BB1012057
:1018F00000E00020704741617047016170470000BF
:1019000001460548006880B200EBC100001D034A93
:1019100032F8100080B27047505C00400060004018
:1019200001460648006880B200EBC100801D044AF1
:1019300032F81000C0F3090070470000505C00400E
:101940000060004001460548006880B200EBC1001D
:10195000034A32F8100080B270470000505C00402B
:101960000060004010B500243421F42002F018FC7F
:101970000A2004F013FFF620FEF70CFF0446A4B281
:1019800000BF0548006818B1214604A002F01AFC07
:1019900000BF204610BD00007C00002055503D25B2
:1019A000643B0D0A0000000010B52E21F42002F067
:1019B000F7FB0A2004F0F2FEF620FEF7EBFE0446E9
:1019C00000BF0548006818B1214604A002F0FAFBE8
:1019D00000BF204610BD00007C00002055543D256E
:1019E000643B0D0A0000000070B50A480468001D41
:1019F0000568001D0668344454B108220649204693
:101A000000F0BCFA042204491031284600F0B6FA6E
:101A100070BD0000E8F7FF1F8E05002008B501210A
:101A2000082000F0C1FDC020ADF8000003208DF8B3
:101A3000020014208DF8030069460348FFF7C7FE33
:101A400000F0FAF908BD0000000C014008B50121C2
:101A5000042000F0A9FDA020ADF8000003208DF8BF
:101A6000020014208DF8030069460348FFF7AFFE1B
:101A700000F0FCF908BD00000008014070B500242A
:101A800040211348FFF739FF052005F00BFA002528
:101A900019E06006040E20210D48FFF723FF0443E0
:101AA000052005F0FFF940210948FFF724FF052034
:101AB00005F0F8F940210648FFF71FFF052005F063
:101AC000F1F9681CC5B2082DE3DB204670BD0000AB
:101AD0000008014070B5002400F06CF88021134824
:101AE000FFF70BFF642005F0DDF9002519E0600623
:101AF000040E20210D48FFF7F5FE0443642005F095
:101B0000D1F980210948FFF7F6FE642005F0CAF9F3
:101B100080210648FFF7F1FE642005F0C3F9681C38
:101B2000C5B2082DE3DB204670BD0000000801406F
:101B300010B520210D48FFF7E0FE40210B48FFF7CC
:101B4000DCFE052005F0AEF920210848FFF7CAFEAB
:101B5000012801D1012400E0002440210348FFF7BF
:101B6000CAFE052005F09EF9204610BD0008014080
:101B700010B500F01FF820210D48FFF7BEFE8021B0
:101B80000B48FFF7BAFE642005F08CF920210848C5
:101B9000FFF7A8FE012801D1012400E000248021E4
:101BA0000348FFF7A8FE642005F07CF9204610BD2D
:101BB0000008014008B50121042000F0F5FC2020B8
:101BC000ADF8000003208DF8020004208DF803001A
:101BD00069460248FFF7FBFD08BD00000008014010
:101BE00008B50121042000F0DFFC2020ADF8000042
:101BF00003208DF8020014208DF803006946024886
:101C0000FFF7E5FD08BD00000008014010B50446DF
:101C1000012C04D120210C48FFF76FFE04E01CB911
:101C200020210948FFF767FE40210748FFF765FEBE
:101C3000052005F037F940210348FFF75CFE052039
:101C400005F030F910BD00000008014010B5044651
:101C5000FFF7C6FF80210F48FFF74DFE012C04D18E
:101C600020210C48FFF749FE04E01CB92021094857
:101C7000FFF741FE80210748FFF73FFE642005F093
:101C800011F980210348FFF736FE642005F00AF9B8
:101C900010BD00000008014070B506460125402136
:101CA0001D48FFF728FE052005F0FCF8002420E081
:101CB00006FA04F000F0800020B120211648FFF75A
:101CC0001CFE03E020211448FFF715FE052005F057
:101CD000E9F840211048FFF710FE052005F0E2F872
:101CE00040210D48FFF707FE052005F0DBF8601CDA
:101CF000C4B2082CDCDBFFF71BFF05464DB100BF6B
:101D00000648006820B18822054906A002F05AFA68
:101D100000BF284670BD0000000801407C00002084
:101D20003A70000825732D2564206661696C0A00ED
:101D300070B506460125FFF753FF80211D48FFF7C8
:101D4000DAFD642005F0AEF8002420E006FA04F085
:101D500000F0800020B120211648FFF7CEFD03E0FF
:101D600020211448FFF7C7FD642005F09BF880216F
:101D70001048FFF7C2FD642005F094F880210D485B
:101D8000FFF7B9FD642005F08DF8601CC4B2082C83
:101D9000DCDBFFF7EDFE05464DB100BF06480068ED
:101DA00020B1A022054906A002F00CFA00BF284687
:101DB00070BD0000000801407C0000208A7000080F
:101DC00025732D2564206661696C0A0010B52021F9
:101DD0000A48FFF792FD052005F064F84021074806
:101DE000FFF78BFD052005F05DF820210348FFF784
:101DF00082FD052005F056F810BD000000080140E6
:101E000010B5FFF7EDFE20210A48FFF776FD6420AC
:101E100005F048F880210748FFF76FFD642005F0C2
:101E200041F820210348FFF766FD642005F03AF8E9
:101E300010BD00000008014010B520210A48FFF73E
:101E40005AFD052005F02EF840210748FFF755FD03
:101E5000052005F027F820210348FFF74EFD052057
:101E600005F020F810BD00000008014010B5FFF794
:101E7000B7FE20210A48FFF73EFD642005F012F866
:101E800080210748FFF739FD642005F00BF8202179
:101E90000348FFF732FD642005F004F810BD000090
:101EA0000008014070B505460C4645F2555000F05B
:101EB00027F8284600F018F8204600F01BF800F03C
:101EC0000BF800F001F870BD4CF6CC4001490860F9
:101ED00070470000003000404AF6AA20014908601F
:101EE0007047000000300040014948607047000022
:101EF0000030004001498860704700000030004019
:101F000001490860704700000030004010B51848D3
:101F10000068047A022C01D0042C05D1FFF720F9C7
:101F200013480068047A1CE0062C19D11048006898
:101F3000407805280ED10E480068007800F07F0038
:101F400040B90B490968C87800F01EFE09490968C4
:101F5000086A80470849096888688047082400E0C3
:101F60000824034909680C7200F088FA10BD0000CB
:101F70006C050020780500207005002030B50B4668
:101F8000002100BF16E00A24B4EB107F05D93024ED
:101F900004EB107403F8114005E0412404EB1074C5
:101FA0000A3C03F81140000100254C00641C1D553B
:101FB0004C1CE1B29142E6DB30BD00000548817A5D
:101FC00019B10521044A116002E00121024A1160A1
:101FD00070470000840D0020940600207047000028
:101FE0001CB511A103C9CDE90001102000F078FD56
:101FF00005226946302000F0DDF8052269461020F0
:1020000000F070F8002406E01DF80400A52800D0B8
:1020100003E0601CC4B2052CF6DB00BF052C01D028
:1020200001201CBD0020FCE7A5A5A5A5A50000007A
:1020300000B587B00121142000F0B6FA1D20ADF8DC
:10204000180010208DF81B0003208DF81A0006A937
:102050002048FFF7BCFB0220ADF8180048208DF89F
:102060001B0003208DF81A0006A91A48FFF7AFFBE2
:102070001F211848FFF741FC00F0CCFC0021164856
:1020800000F042FD0020ADF804004FF48270ADF87E
:1020900006000020ADF80800ADF80A00ADF80C000D
:1020A0004FF40070ADF80E003820ADF8100000209D
:1020B000ADF812000720ADF8140001A9064800F0A1
:1020C0003DFD00200549086001200549C1F88C014B
:1020D00007B000BD000801400030014090012142DE
:1020E000000021422DE9F04107460D46164600202A
:1020F0000A490860384600F0C9FC8046002405E023
:10210000FF2000F0C3FC2855601CC4B2B442F7DBCA
:102110000120024908604046BDE8F0818C0121425F
:1021200070B50446002007490860204600F0AEFC68
:10213000FF2000F0ABFC054601200349C1F88C01EB
:10214000284670BD8C0121420000214270B5054631
:10215000102000F0C5FC0020144908602022294608
:10216000A02000F027F801201149C1F8900100BF1C
:102170000E488C3800680028FAD10720FFF7D0FFFE
:1021800004462146272000F033F804F0100028B15F
:10219000FF21E12000F02CF8102070BD04F0200099
:1021A00008B12020F9E7FF20F7E700009001214265
:1021B000000021422DE9F04107460C46154600205B
:1021C0000A490860384600F061FC8046002605E0B8
:1021D00014F8010B00F05AFC701CC6B2AE42F7DBDB
:1021E0000120024908604046BDE8F0818C0121428F
:1021F00070B505460C46002007490860284600F0E7
:1022000045FC0646204600F041FC01200349C1F888
:102210008C01304670BD00008C012142000021423B
:1022200008B54FF4A06000F047F826208DF80000B4
:1022300001208DF801008DF802008DF8030068463A
:1022400000F002F808BD000070B5002100230F2245
:10225000C47804B3154C246804F4E064C4F5E06465
:10226000210AC1F10403CA40447804FA03F18478D6
:102270001440214309010E4C0678A155047804F05E
:102280001F050124AC4005786D11AD0005F1E02576
:10229000C5F8004109E0047804F01F050124AC40B2
:1022A000044D0678761145F8264070BD0CED00E02F
:1022B00000E400E080E100E002490143024A1160CD
:1022C000704700000000FA050CED00E070B5022632
:1022D00047480068447846480068007800F07F006E
:1022E000002844D1092C03D100F0DCFF06465FE052
:1022F000052C14D13E480068C0787F280BDC3C4890
:102300000068807838B93A480068808818B9384839
:102310000068807A08B1082565E0002648E0032CB3
:102320000ED133480068C078012807D130480068D2
:10233000808818B900F0DAFF064639E0022637E057
:10234000012C35D12A480068C07801280DD12848D1
:102350000068808848B926480068407A00F020006C
:1023600018B100F02BFE064622E0022620E02048AD
:102370000068007800F07F00012805D10B2C17D1F0
:1023800001F030F8064613E019480068007800F0C4
:102390007F0002280BD1012C03D100F00FFE06466E
:1023A00006E0032C04D100F0B5FF064600E002264B
:1023B0004EB1E0B20F4A1268516988470646032EB3
:1023C00001D109250FE00EB108250CE006250021FA
:1023D0000948006880B2801C084A42F8101030207A
:1023E0000749088000BF024909680D7270BD0000EE
:1023F0006C05002070050020505C0040006000402B
:102400007E05002010B511480068047A022C01D026
:10241000042C01D1082412E0032C01D0052C05D195
:10242000FEF7FEFE09480068047A08E0072C05D193
:1024300007490968C8688047082400E00824034960
:1024400009680C7200F01AF810BD00006C0500203D
:1024500070050020F0B5561C7510074E06EB4104C0
:102460002B4605E034F8047B20F8017B401C5B1E02
:10247000002BF7D1F0BD00000060004010B50D4802
:1024800090F82C10002000F0B9FB0B480068007A8F
:10249000082805D140020949088010200849088011
:1024A00005480068007A092801D1012010BD0020EC
:1024B000FCE70000100600206C0500207C050020D1
:1024C0007E05002010B5012001F057FB01240B48C8
:1024D000046000200A49088008460088074908600F
:1024E0000020091D08604FF4E050054908800846A7
:1024F000008802490860002010BD0000405C0040D8
:102500007605002003461A60D96059609960002062
:10251000704770B503461446002200209A6800BF39
:1025200011E0DD681E682E44551C2A46AE4200D8D4
:10253000DA685D68954200D107E011F8015B9E689A
:1025400035709A60401CA042EBD300BF70BDF0B55F
:10255000034600200EE05C68651C5D602778054638
:10256000401C4F55DC681D682C445D68AC4201D8A6
:10257000DC685C605C689D68AC4204D0904202D22A
:102580001C688442E7D8F0BD29B1064AD2690243EB
:10259000044BDA6104E0034AD2698243014BDA61F9
:1025A000704700000010024029B1064A92690243B8
:1025B000044B9A6104E0034A92698243014B9A6199
:1025C000704700000010024030B5002100220024B6
:1025D00000232D4D6D6805F00C0121B1042905D0B3
:1025E000082923D105E0294D056022E0274D05602B
:1025F0001FE0254D6D6805F47012234D6D6805F4DC
:102600008034022505EB92421CB9214D55430560EB
:102610000BE01D4D6D6805F400351DB11C4D554393
:10262000056002E0194D5543056002E0174D056055
:1026300000BF00BF144D6D6805F0F0010909154D8C
:102640006B5C0568DD4045600F4D6D6805F4E06129
:10265000090A104D6B5C4568DD4085600A4D6D6868
:1026600005F46051C90A0B4D6B5C4568DD40C560DF
:10267000054D6D6805F44041890B074D6B5CC568DD
:10268000B5FBF3F5056130BD0010024000127A0081
:1026900000093D00A0060020B006002001490860A6
:1026A00070470000D800424210B5AA20FEF772F829
:1026B00055490880AC20FEF76DF854490880AE20DB
:1026C000FEF768F852490880B020FEF763F85149D8
:1026D0000880B220FEF75EF84F490880B420FEF76C
:1026E00059F84E490880B620FEF754F84C49088046
:1026F000B820FEF74FF84B490880BA20FEF74AF899
:1027000049490880BC20FEF745F848490880BE20AA
:10271000FEF740F84649088000BF4648006828B1E7
:102720003948B0F9001044A001F04CFD00BF00BFD3
:102730004048006828B13548B0F9001041A001F0C8
:1027400041FD00BF00BF3B48006828B13048B0F9E8
:1027500000103FA001F036FD00BF00BF3548006803
:1027600020B12C4801883DA001F02CFD00BF00BF26
:102770003048006820B1284801883BA001F022FDC4
:1027800000BF00BF2B48006820B12448018839A051
:1027900001F018FD00BF00BF2648006828B120489E
:1027A000B0F9001036A001F00DFD00BF00BF2148B8
:1027B000006828B11B48B0F9001034A001F002FDF8
:1027C00000BF00BF1B48006828B11748B0F90010CF
:1027D00031A001F0F7FC00BF00BF1648006828B127
:1027E0001248B0F900102FA001F0ECFC00BF00BFB0
:1027F0001048006828B10E48B0F900102CA001F074
:10280000E1FC00BF10BD0000180500201A050020E3
:102810001C0500201E0500202005002022050020A8
:102820002405002026050020280500202A05002078
:102830002C0500207C0000204143313D3078255894
:102840003B0D0A004143323D307825583B0D0A00CC
:102850004143333D307825583B0D0A004143343D18
:10286000307825583B0D0A004143353D30782558D6
:102870003B0D0A004143363D307825583B0D0A0098
:102880004231203D307825583B0D0A004232203D30
:10289000307825583B0D0A004D42203D30782558B0
:1028A0003B0D0A004D43203D307825583B0D0A0072
:1028B0004D44203D307825583B0D0A0070B5054643
:1028C000072D01D02E4805702D48007808284ED2DB
:1028D000DFE800F004111A202B384E4F2948006819
:1028E00028B900F053F806202549087002E00520B9
:1028F0002349087041E000F049F80420204908709D
:1029000001202049086038E002201D49487003205A
:10291000087032E01A484078401E1949487008464D
:10292000407808B90420087027E01748006884B28E
:1029300044F01004144804600520114908700A206E
:1029400048701AE00E484078401E0D49487008460D
:10295000407858B90C48006884B224F010040A4842
:1029600004600620087000200649086005E000BFEA
:1029700000BF06200249087000BF00BF70BD000004
:10298000990600209C060020405C004010B50748D6
:10299000006884B224F0040404480460FFF70EFBCE
:1029A0004FF43F400149086010BD0000405C00400A
:1029B00010B5002413480068052822D11248007879
:1029C000F8B912490868411C104A1160052818D14D
:1029D00000201146086040210D4801F03FFA84B202
:1029E000002C0EDD2246C021094801F081FA214663
:1029F000012000F073F9012000F09EF90120024946
:102A0000087010BD94060020B4050020B805002011
:102A1000D017002008B5012141F20400FFF7C4FDE2
:102A2000E020ADF8000018208DF8030003208DF899
:102A3000020069461248FEF7CAFEE0211048FEF780
:102A40005CFF00200F4908804FF48270488000200E
:102A500088800220C88001200881400248813820F7
:102A600088810020C88107200882074800F066F8A6
:102A70000121054800F048F8FF2000F007F808BDE4
:102A800000080140500D00200030014070B505469F
:102A9000002405E0601CC4B2C82C01DD002070BD1C
:102AA00002210E4800F03CF80028F3D029460B48DC
:102AB00000F042F8002405E0601CC4B2C82C01DD1F
:102AC0000020ECE70121054800F02AF80028F3D0A7
:102AD000024800F02EF8C0B2E1E7000000300140EB
:102AE000084909884FF6C7721140064A11801146FD
:102AF0000988014311801146098841F04001118085
:102B0000704700000030014021B1028842F04002CD
:102B1000028004E002884FF6BF731A4002807047BB
:102B20000246002013890B400BB1012000E0002079
:102B300070470146888970478181704710B500222F
:102B4000028802F441520B884C8823438C8823432B
:102B5000CC8823430C8923434C8923438C8923430A
:102B6000CC8923431A430280838B4FF2FF742340A6
:102B700083830B8A038210BD4FF6F8710140014A2E
:102B800011607047505C004030B501460F4B1A7819
:102B9000002014E003060E4C04EB9353D3F8003CE2
:102BA00048F68F74234048F280042343C4B2234381
:102BB0000406074D05EB9454C4F8003C401C9042B9
:102BC000E8D341F08003034C236030BD0C060020A5
:102BD000005000404C5C004010B54A105300054ABC
:102BE000126892B202EBC002121D034C44F812307C
:102BF00010BD0000505C00400060004010B502466F
:102C00000F48006880B200EBC200801D0D4C04EB41
:102C100040033E290BDD481101F01F040CB9441E8E
:102C2000A0B24FF4004444EA80241C6007E048103E
:102C300001F001040CB1441CA0B284021C6010BD60
:102C4000505C00400060004030B50E4C04EB800347
:102C5000D3F8003C4BF68F7403EA040201F480536E
:102C60000BB182F4805201F400530BB182F4005294
:102C700042F4004343F08003024D05EB8004C4F8A6
:102C8000003C30BD0050004010B50B4B03EB800200
:102C9000D2F8002C4BF68F7302EA030181F48051C5
:102CA00081F4005141F4004242F08002024C04EBF6
:102CB0008003C3F8002C10BD0050004010B54A102E
:102CC0005200044B1B689BB203EBC003024C44F858
:102CD000132010BD505C004000600040044A1268A0
:102CE00092B202EBC002921C024B43F812107047E2
:102CF000505C00400060004030B50E4C04EB800397
:102D0000D3F8003C48F6BF7403EA040201F0100354
:102D10000BB182F0100201F020030BB182F020020F
:102D200042F4004343F08003024D05EB8004C4F8F5
:102D3000003C30BD0050004010B50B4B03EB80024F
:102D4000D2F8002C48F6BF7302EA030181F01001AB
:102D500081F0200141F4004242F08002024C04EB79
:102D60008003C3F8002C10BD0050004010B5074B85
:102D700003EB8002D2F8002C48F68F131A400A4366
:102D8000024C04EB8003C3F8002C10BD005000403F
:102D900010B500F001F810BD0CB5002001900090B6
:102DA0003348006840F480303149086000BF304843
:102DB000006800F4003000900198401C01900098D9
:102DC00018B90198B0F5A06FF1D12948006800F456
:102DD000003010B10120009001E000200090009828
:102DE000012843D12348006840F0100021490860C1
:102DF0000846006820F0030008600846006840F0BC
:102E0000020008601A48406819494860084640684E
:102E100048600846406840F4806048600846406862
:102E200020F47C1048600846406840F4E810486090
:102E30000846006840F08070086000BF0C480068D9
:102E400000F000700028F9D00948406820F0030025
:102E5000074948600846406840F00200486000BFEB
:102E60000348406800F00C000828F9D10CBD0000B0
:102E7000001002400020024008B54FF4A06216493D
:102E80001648FFF73FFB4FF4A06215491548FFF7BE
:102E900039FB01210802FFF787FB4FF40060ADF812
:102EA000000003208DF8020010208DF80300694611
:102EB0000D48FEF78CFC4FF48020FEF793FB4FF497
:102EC00080200A490860082048710120887108465E
:102ED000FEF78EFB08BD0000D00D0020B00D0020D5
:102EE000D0120020C00D00200020014084050020E9
:102EF00010B50020FFF7D2FB0121C805FFF744FB06
:102F000010BD000038B501242948006880B2001DBA
:102F1000284931F8100080B201EB400000902648AB
:102F20000068007A092832D00098007822490968A0
:102F300008700098401C0090009800781E490968AD
:102F400048700098401C0090009800EB44000090EE
:102F5000009931F8020B0091FDF746FC164909680B
:102F60004880009800EB44000090009931F8020B73
:102F70000091FDF739FC104909688880009800EB42
:102F800044000090009800880B490968C88001201F
:102F900009490968087208480068C08810B9FFF735
:102FA00095F901E0FEF79AF9FFF768FA38BD0000DD
:102FB000505C0040006000406C0500202DE9F047A7
:102FC00054480068007800F07F08B8F1000F0AD17B
:102FD00050480068407A00F0DF004E4909684872A6
:102FE0000020BDE8F087B8F1020F7CD149480068A5
:102FF000408818B947480068007908B10220F0E716
:10300000DFF8149143480068477927F080052C4683
:1030100040480068407900F0800038B13F4901EB3A
:103020008400D0F8000C00F0300606E03B4901EBCC
:103030008400D0F8000C00F4405699F80000A84233
:1030400004D91EB133480068807A08B90220C8E765
:1030500007F0800080B1314901EB8400D0F8000C0A
:1030600000F0300010284BD1E0B2FDF721FDE0B2B6
:103070003021FFF741FE43E0284901EB8400D0F8FE
:10308000000C00F44050B0F5805F39D1E4B9244A17
:1030900092F82C10E0B2FFF7B1FD204A02EB840158
:1030A000D1F8001C4BF68F7201EA020080F48050C8
:1030B00080F4005040F4004141F08001174B03EBD5
:1030C0008402C2F8001C1BE0E0B2FDF7D7FC134AF3
:1030D00002EB8401D1F8001C4BF68F7201EA02006A
:1030E00080F4805000E011E080F4005040F4004192
:1030F00041F08001094B03EB8402C2F8001C00BFC1
:10310000084909684869804700206AE700BF022033
:1031100067E700006C0500200C060020005000400E
:10312000100600207805002010B504462CB90120B7
:10313000064909680882002010BD05490968086829
:103140008047024800680A30F6E700006C0500205E
:103150007805002010B5024606480068438A32B957
:103160008888C01A034C24682082002010BD08689B
:103170001844FBE76C05002010B504462CB901206B
:10318000064909680882002010BD05490968886859
:103190008047024800680C30F6E700006C0500200C
:1031A0007805002010B504462CB902203949096879
:1031B0000882002010BD002037490880354800688B
:1031C000007800F07F0018BB32490968487A00F0A7
:1031D000200131B13049097841F002012E4A1170C5
:1031E00005E02D49097801F0FD012B4A117000F02E
:1031F000400131B12849097841F00101264A117096
:1032000005E02549097801F0FE01234A11703AE0F2
:1032100020480068007800F07F00012801D11E4896
:10322000C8E71C480068007800F07F00022828D119
:10323000184A1268517901F00F0001F080027AB14A
:10324000164B03EB8002D2F8002C02F03002102A59
:1032500016D1114A127842F001020F4B1A700FE09A
:103260000E4B03EB8002D2F8002C02F44052B2F570
:10327000805F05D1084A127842F00102064B1A70AD
:1032800001E0002096E7064909680869804702487E
:1032900090E700006C05002064050020005000400D
:1032A0007805002010B50E480068C0780D494978AF
:1032B000884213DC0A480068807878B908480068BA
:1032C000808858B906480068C0780549096888723E
:1032D0000549096848688047002010BD0220FCE7C6
:1032E0006C0500200C0600207805002010B507486A
:1032F0000068407A40F02000044909684872044997
:103300000968C8698047002010BD00006C050020D6
:10331000780500202DE9F0412E480068467926F016
:1033200080073C462B480068407900F0800038B1A7
:10333000294901EB8400D0F8000C00F0300506E0CC
:10334000254901EB8400D0F8000C00F440552348D7
:103350000078A04208D91F480068408820B91DB1F4
:103360001C480068807A10B90220BDE8F08106F0A0
:103370008000A0B1184A02EB8401D1F8001C48F685
:10338000BF7201EA020080F0100040F4004141F0F9
:103390008001114B03EB8402C2F8001C14E00E4ABA
:1033A00002EB8401D1F8001C4BF68F7201EA020097
:1033B00080F4805040F4004141F08001064B03EB63
:1033C0008402C2F8001C00BF05490968886980476B
:1033D0000020CAE76C050020005000400C060020C9
:1033E0007805002010B5174B1B68D978154B1B6862
:1033F0005879154B1B689A69904704461148006834
:10340000807AE8B13CB90F480068007918B90D48D6
:103410000068807808B1022010BD8CB90B4909689A
:10342000C868804707480068407906490968C8723B
:1034300004480068C0780349096808730020EBE776
:103440000220E9E76C0500207005002078050020C7
:1034500038B50021002200230093394B1B6898B235
:1034600000BF09E0374C04EB8103D3F8003C9BB26A
:10347000354C44F82130491C0829F3D340F48060CE
:103480002F4B186040F00100186020F00100186018
:1034900000BF2B4B1B1D1B6803F48063002BF8D06F
:1034A0004FF6FF33264C241D2360002109E0264BF4
:1034B00053F821309BB2234D05EB8104C4F8003C46
:1034C000491C0829F3D340F008001D4B18601B6805
:1034D00098B240F004001A4B18601C4B1B68009314
:1034E0001A4B1A6822F0030242F001021A60184BCC
:1034F0001B6843F00403164C2360114B1B1D1B6813
:1035000003F480532BB923461B6823F00403236084
:1035100014E04EF6FF730A4C241D2360231F1B6822
:1035200098B220F00800231F1860084C009B23600D
:10353000074B1B6823F00403054C236038BD0000D3
:10354000405C0040005000405018002000700040D7
:1035500010ED00E0054803684068054A9A1840F1FC
:10356000000002490A6048607047000040050020E2
:10357000A086010070B51C4800681C4AB0FBF2F040
:103580001B4A00FB02F1481EB0F1807F01D30120ED
:103590001BE0481E4FF0E022506150170F22002818
:1035A00004DB13071C0E134B1C5406E013071D0EFF
:1035B000114B00F00F04241F1D5500BF00204FF0D9
:1035C000E022906107201061002058B100BF0B4835
:1035D000006830B1044818220949036809A000F0C6
:1035E000F1FD00BF70BD0000B406002040420F0096
:1035F000A086010000E400E018ED00E07C0000205F
:103600007D70000825732D2564202578206661696A
:103610006C0A000010B51348006840F00100114921
:10362000086008464068104908400E49486008464E
:1036300000680E4908400B4908600846006820F4FD
:10364000802008600846406820F4FE0048604FF47F
:103650001F008860FFF79CFB4FF000600449086082
:1036600010BD0000001002400000FFF8FFFFF6FE52
:1036700008ED00E070B50121174800F043F850B3A1
:10368000164802684068521C40F1000013490A6065
:1036900048604FF47A72002308684968FCF75EFDC1
:1036A00000214A404B401A4311D04FF47A72002354
:1036B0000A4908684968FCF751FD054602220023C3
:1036C000FCF74CFD144601210B2002F0A9FC01215E
:1036D000014800F008F870BD002C014000050020F2
:1036E000CA4302827047CA430282704721B10288EE
:1036F00042F00102028004E002884FF6FE731A4095
:103700000280704730B50246002000230024158A4D
:1037100005EA0103958905EA010413B10CB1012002
:1037200000E0002030BD1AB183890B43838102E0A1
:1037300083898B4383817047002202881D4B984206
:103740000ED01D4B98420BD0B0F1804F08D01B4BD0
:10375000984205D01A4B984202D01A4B984204D195
:103760004FF68F731A404B881A43174B984207D075
:10377000164B984204D04FF6FF431A40CB881A43A9
:1037800002808B8883850B8803850A4B98420BD077
:10379000094B984208D00E4B984205D00D4B9842E9
:1037A00002D00D4B984201D10B7A0386012383820C
:1037B00070470000002C014000340140000400402C
:1037C00000080040000C00400010004000140040C1
:1037D00000400140004401400048014010B53C4811
:1037E00000F0BCF9C4B200203A4908700DE03A4933
:1037F00038480078401C095C3748364A12788154B2
:1038000034480078401C3349087032480078052855
:10381000EDDB31494C7131A12F48FCF7E9FC20B9AF
:1038200030A003F035FB03F0BFFB35A12A48FCF7BD
:10383000DFFC28B934A003F02BFB00203B490860D3
:103840003BA12548FCF7D4FC28B93BA003F020FBA2
:103850000120364908600A2C00D110BD3F4800689D
:10386000FF2808D10D2C06D03DA003F011FB00204D
:103870003A490860F1E70D2C1AD100213C48374A3B
:10388000126881542948006828B101280AD13848B3
:1038900003F012F907E03748006810B93448354999
:1038A000086000E000BF00BF00202C490860D4E79A
:1038B0002F482A4A1268845428480068401C274927
:1038C000086021462CA000F07DFC00BFC5E7000089
:1038D0000044004088000020890000207372657356
:1038E000657400006D616769635F636D643A20739E
:1038F000797374656D207265736574210A00000028
:10390000747368656C6C00006D616769635F636DFB
:10391000643A2073776974636820746F20746872E6
:10392000656164207368656C6C210A00800000206A
:10393000697368656C6C00006D616769635F636DD6
:10394000643A2073776974636820746F20696E74B9
:10395000207368656C6C210A000000008400002060
:10396000636D6420746F6F206C6F6E67210A0000B6
:10397000D0070020900000202563000021B182893B
:1039800042F40052828104E082894DF6FF731A40AE
:103990008281704700B585B001210420FEF704FE46
:1039A00001214804FEF7F0FD0420ADF810001820B6
:1039B0008DF8130003208DF8120004A91648FDF7B6
:1039C00006FF0820ADF8100004208DF8130004A9AC
:1039D0001148FDF7FCFE4FF4E13000900020ADF8F7
:1039E0000400ADF80600ADF80800ADF80C000C209E
:1039F000ADF80A006946094800F044F8FEF710FCEB
:103A0000012240F22551054800F017F80121034832
:103A1000FFF7B4FF05B000BD0008014000440040BE
:103A200002460020B1F5007F00D100BF13880B4093
:103A30000BB1012000E000207047F0B503460024E0
:103A400000260025002040F66A17B94200D100BFC9
:103A50001846C1F3421401F01F06012707FA06F5C4
:103A6000012C01D10C3004E0022C01D1103000E017
:103A700014301AB107682F43076002E00768AF43AC
:103A80000760F0BD2DE9F04786B005460E460024DC
:103A9000A24600BFA1460027B08900B100BF2F4653
:103AA0002C8A4CF6FF700440F08804432C82AC89C9
:103AB0004EF6F3100440B0883189084371890843F9
:103AC0000443AC81AC8A4FF6FF400440B089044304
:103AD000AC8201A8FEF778FD1F48874202D1DDF8CD
:103AE00010A001E0DDF80CA0A88900F4004040B16E
:103AF0000AEBCA0000EB0A1031684900B0FBF1F88C
:103B000007E00AEBCA0000EB0A1031688900B0FB3D
:103B1000F1F86420B8FBF0F004012009642101FBF6
:103B20001089A88900F4004040B1322000EBC900A0
:103B3000B0FBF1F000F00700044308E0322000EB96
:103B400009106421B0FBF1F000F00F0004432C8158
:103B500006B0BDE8F08700000038014001468888C3
:103B6000C0F308007047C1F308028280704710B5A7
:103B70004FF48020FDF736FD10BD704710B5FFF7FC
:103B80007BF9FFF7B5F900F021F800F001F810BD5E
:103B900010B50848084908600220096808720748FB
:103BA0000749086007480849086005490968086826
:103BB000804710BD840D00206C05002010060020F9
:103BC00070050020400600207805002008B514206C
:103BD0008DF8000002208DF8010000208DF8020011
:103BE00001208DF803006846FEF72EFB2A208DF891
:103BF000000000208DF801006846FEF725FB08BD97
:103C000010B588B0002469480068694908800846F2
:103C1000008800F4007067490988084050B14FF6E9
:103C2000FF506249086064480078401C624908708F
:103C3000FEF7BEFE5E48008800F400405D4909883A
:103C4000084008B1FCF7D6FD5948008800F48060B0
:103C500058490988084030B14FF6FF305349086091
:103C60005649486880475248008800F4005051493E
:103C70000988084018B14DF6FF704C4908604C485F
:103C8000008800F480504B490988084030B14EF656
:103C9000FF70464908600020FEF710FE4448008887
:103CA00000F4006043490988084060B14448007846
:103CB00010B1FFF7CDFB02E00220FEF7FFFD4FF24F
:103CC000FF703A4908603A48008800F4807039492A
:103CD00009880840002866D04FF6FF603349086025
:103CE000081D006800F40040002856D035480068E0
:103CF000401C3449086008460068032850D92B4806
:103D0000001F006800F00800002849D12748001F64
:103D1000006880B22C490860002408E02B4901EBC0
:103D20008400D0F8000C80B24DF82400641C082CEC
:103D3000F4D32548006840F0010023490860084694
:103D4000006880B21949091F08601F48006820F008
:103D500001001D4908600846006880B21349091F28
:103D6000086000BF1148006800F480600028F9D0A6
:103D70004FF6FF300D490860002408E05DF824008C
:103D800080B2124A02EB8401C1F8000C641C082CBA
:103D9000F4D300200B49086002E0002009490860C4
:103DA0000720FEF78BFD08B010BD0000445C00400A
:103DB000BC05002076050020BE050020100600206E
:103DC00098060020C0050020C405002000500040D7
:103DD00010B5FFF715FF10BD70B504460D462A4615
:103DE00021460248FEF7B3FB70BD0000B00D002075
:103DF00070B504460D462A4621460248FEF789FB67
:103E000070BD0000B00D00200020064908604FF48E
:103E10003F4005490880084600880249091F08609C
:103E200000207047445C0040760500202DE9F041F9
:103E300004460E46002504F07F00FDF771FD05469F
:103E400004F07F00FDF75CFD07462A463946304600
:103E5000FEF700FB2846BDE8F081000070B504467F
:103E60000D462A4621460248FEF771FB70BD000050
:103E7000C00D002070B504460D462A462146024872
:103E8000FEF747FB70BD0000C00D002070B5054671
:103E90000C460A2C0AD10D212846FFF764FE00BF0C
:103EA00080212846FFF7BCFD0028F9D0214628468E
:103EB000FFF759FE00BF80212846FFF7B1FD00281B
:103EC000F9D070BD70B506460C46002500BF615D97
:103ED0003046FFF7DBFF6D1C605D0028F7D100BFA7
:103EE00040213046FFF79CFD0028F9D070BD00004E
:103EF000F0B5144604F1010C4FEA6C07DFF824C05A
:103F00000CEB41033D460AE00678401C90F800C0E7
:103F100046EA0C2223F8022B9B1C401C6D1E002D30
:103F2000F2D1F0BD0060004070B504460025212CA0
:103F300008D112480068007800F07F0021280ED1D7
:103F40000F4D0CE0202C0AD10C480068007800F0DE
:103F50007F00212800D10B4D20200B4908700DB99E
:103F6000022070BD05480068856100210348006893
:103F700041820020A8470020F3E700006C050020E4
:103F8000B53F0008454100080006002010B5044672
:103F900002492046FFF7DEF810BD00006C06002045
:103FA00010B5044602492046FFF7D4F810BD0000C2
:103FB00064060020014629B90820034A12681082CD
:103FC000002070470148FCE76C0500200406002033
:103FD00070B5054606480068C478042C01DD002051
:103FE00070BD044800EBC4012846FFF7B3F8F7E7BB
:103FF0006C050020740600200246002901DD022025
:104000007047012A01DD0220FAE70020F8E70000EE
:10401000014608480068007800F07F00212807D199
:10402000022901D100207047222901D10020FAE79E
:104030000220F8E76C05002010B50020344909681B
:1040400088723448C0793249096848720020304982
:104050000968C872FEF790FD4FF400710020FEF76A
:1040600085FE10210020FEF747FE40210020FEF7CC
:10407000B3FD80210020FEF721FE0020FCF732FD79
:10408000254890F82C100020FEF7B8FD0020FEF720
:10409000FBFD00210120FEF769FEC0210120FEF793
:1040A0000DFE20210120FEF727FE00210120FEF752
:1040B000CBFD4FF4C0610220FEF758FE4FF4807133
:1040C0000220FEF7FBFD00210220FEF7BDFD2021AE
:1040D0000220FEF711FE00210320FEF747FE4FF4F9
:1040E00088710320FEF778FD40210320FEF786FD4E
:1040F0004FF440510320FEF7A7FD00210320FEF7F7
:10410000FBFD0020FEF740FD01200449086010BDC2
:104110006C050020C87000081006002094060020DE
:104120000348817A11B10521024A116070470000ED
:10413000840D002094060020042001490860704787
:1041400094060020014629B90820034A126810820B
:10415000002070470148FCE76C05002004060020A1
:1041600003480078202802D10020014908707047D8
:10417000000600207047000010B5FDF735FC002058
:10418000054909688872FEF79DF9FFF73DFE00209A
:104190000249086010BD00006C0500209406002054
:1041A00070B505460C46FDF711FEEE20FDF774FDD7
:1041B0002846FDF771FD2046FDF76EFDFDF73CFE3C
:1041C00070BD00000FB4054B10B503A9044A029856
:1041D00000F074FA10BC5DF814FB00006D5D00087F
:1041E000C806002000BF0648006820B19322054998
:1041F00005A0FFF7E7FF00BF02F0D6FE00BFFEE715
:104200007C000020EA6F000825732D2564200A0039
:1042100000BF0548006820B1A822044904A0FFF7A8
:10422000D1FF00BF00BFFEE77C0000201270000835
:1042300025732D2564200A0005462C4600F02AFA35
:1042400000BF7C48006818B17B497CA0FFF7BAFF2B
:1042500000BF00BF7748006818B17AA0216CFFF753
:10426000B1FF00BF00BF7348006818B179A0E16BCF
:10427000FFF7A8FF00BF00BF6E48006818B179A023
:10428000A16BFFF79FFF00BF00BF6A48006818B12D
:1042900078A0616BFFF796FF00BF00BF654800681C
:1042A00018B178A0216BFFF78DFF00BF00BF6148F8
:1042B000006818B177A0E16AFFF784FF00BF00BF74
:1042C0005C48006818B177A0A16AFFF77BFF00BFC8
:1042D00000BF5848006818B176A0616AFFF772FF06
:1042E00000BF00BF5348006818B176A0216AFFF7ED
:1042F00069FF00BF00BF4F48006818B175A0E169B1
:10430000FFF760FF00BF00BF4A48006818B175A002
:10431000A169FFF757FF00BF00BF4648006818B10A
:1043200074A06169FFF74EFF00BF00BF41480068FD
:1043300018B174A02169FFF745FF00BF00BF3D48D9
:10434000006818B173A0E168FFF73CFF00BF00BF31
:104350003848006818B173A0A168FFF733FF00BFA9
:1043600000BF3448006818B172A06168FFF72AFFE7
:1043700000BF00BF2F48006818B172A02168FFF786
:1043800021FF00BF00BF2B48006820B171480168C1
:1043900071A0FFF717FF00BF00BF2648006828B1D3
:1043A0006C48001F016870A0FFF70CFF00BF694850
:1043B000001F0068C6B26748001F0068C0F30727E7
:1043C0006448001F00684FEA104800BF19480068A1
:1043D00018B1314668A0FFF7F5FE00BF00BF1548D1
:1043E000006818B1394668A0FFF7ECFE00BF00BFB7
:1043F0001048006818B1414667A0FFF7E3FE00BF10
:1044000000BF0C48006828B152480830016866A017
:10441000FFF7D8FE00BF00BF0648006828B14D482E
:104420000C30016864A0FFF7CDFE00BF02F0BCFDB8
:1044300000BFFEE77C000020C26F000825733A0A27
:1044400000000000585053523A2030782530385838
:10445000200A000050433A20202030782530385878
:10446000200A00004C523A2020203078253038585D
:10447000200A00005231323A202030782530385856
:10448000200A000052333A20202030782530385856
:10449000200A000052323A20202030782530385847
:1044A000200A000052313A20202030782530385838
:1044B000200A000052303A20202030782530385829
:1044C000200A00005231343A202030782530385804
:1044D000200A00005231313A2020307825303858F7
:1044E000200A00005231303A2020307825303858E8
:1044F000200A000052393A202020307825303858E0
:10450000200A000052383A202020307825303858D0
:10451000200A000052373A202020307825303858C1
:10452000200A000052363A202020307825303858B2
:10453000200A000052353A202020307825303858A3
:10454000200A000052343A20202030782530385894
:10455000200A0A002CED00E0484653523A203078F9
:1045600025303858200A0000434653523A2030780C
:1045700025303858200A00004D4653523A203078F2
:1045800025303858200A0000424653523A203078ED
:1045900025303858200A0000554653523A203078CA
:1045A00025303858200A00004D4D41523A203078CD
:1045B00025303858200A0000424641523A203078CF
:1045C00025303858200A000000BF0648006820B196
:1045D0008822054905A0FFF7F5FD00BF02F0E4FCC5
:1045E00000BFFEE77C000020D66F000825732D2554
:1045F00064200A0010B500BF0548006820B14E22B3
:10460000044905A0FFF7DEFD00BF02F0CDFC10BDA0
:104610007C000020B46F000825732D2564200A005B
:1046200000BF0648006820B19E22054905A0FFF79B
:10463000C9FD00BF02F0B8FC00BFFEE77C0000200F
:10464000FD6F000825732D2564200A00004870477F
:10465000CC06002008B504460D4616461F4600BF8E
:104660000648006830B133462A46214604A0009728
:10467000FFF7A8FD00BF00BFFEE700007C000020A0
:104680005B25735D5B25735D5B25645D3A20257357
:104690000A00000072B6704762B6704702E008C8B0
:1046A000121F08C1002AFAD170477047002001E0AC
:1046B00001C1121F002AFBD1704700002DE9FF4FF6
:1046C0008DB00F460546002606E025280BD0DDE913
:1046D0000F1290476D1C761C28780028F5D111B078
:1046E0003046BDE8F08F0024A246A1460122EC49E5
:1046F00000E0044315F8013F203B02FA03F00842B2
:10470000F7D128782A2810D06FF02F022878A0F14E
:104710003001092914D80AEB8A0102EB410144F067
:10472000020400EB010A6D1CF0E701CF5FEA000A0A
:1047300003D544F40054CAF1000A44F002046D1C8D
:1047400028782E2817D115F8010F44F004042A28E0
:104750000ED06FF02F022878A0F1300109290AD875
:1047600009EB890102EB410100EB01096D1CF2E745
:1047700057F8049B6D1C28786C280FD006DC4C2859
:1047800017D068280DD06A2814D104E0742810D0FE
:104790007A280FD10DE044F400140AE044F48014A8
:1047A00001E044F440146978814202D104F5801498
:1047B0006D1C6D1C2A786E2A1FD00CDC632A31D048
:1047C00004DC002A8BD0582A11D1A3E0642A68D0D7
:1047D000692A0CD165E0732A2ED004DC6F2A73D0CD
:1047E000702A04D19BE0752A6FD0782A6ED01046CB
:1047F000DDE90F129047761C50E1C4F30250022805
:1048000006D0032809D0042801CF09D0066045E16D
:1048100001CFF117C0E9006140E101CF06803DE121
:1048200006703BE117F8040B8DF8000000208DF8AE
:104830000100EB46012003E057F804BB4FF0FF30C6
:1048400061074FF0000102D40DE008F10101884634
:1048500049450FDA8045F8DB1BF808100029F4D130
:1048600008E008F1010188468142FADB1BF80810D4
:104870000029F6D1DDE90F23AAEB08008146214685
:1048800000F036F9304400EB080604E0DDE90F12D1
:104890001BF8010B9047B8F10108F7D221464846B2
:1048A000F7E00A21C4F302534FF0000B0891022BEA
:1048B00004D001CFC117032B09D00AE0FF1D27F058
:1048C0000707F7E8020108E032E01FE020E000B24D
:1048D000C117042B01D140B2C117031E71F10003AF
:1048E00007DA4FF0000CD0EB0C006CEB01012D232C
:1048F00002E0230504D52B238DF82430012303E0A7
:10490000E30701D02023F7E7984658E00A2110E09A
:1049100010210EE010204FF0000B08900CE0102149
:104920004FF0000B44F004044FF00809089103E035
:1049300008214FF0000B0891C4F30253022B04D05E
:1049400001CF0021032B06D006E0FF1D27F007074B
:10495000F7E8020103E080B2042B00D1C0B24FF0AF
:10496000000823072BD5702A07D0DDF820C08CF073
:10497000100C5CEA0B0C05D00EE040238DF82430BF
:10498000012308E050EA010306D030238DF82430DB
:104990008DF8252002239846DDF820C08CF0080C05
:1049A0005CEA0B0C0BD150EA010301D1630706D579
:1049B00030238DF824304FF00108A9F10109582A5D
:1049C00004D038A20B9208AA0A920BE03AA2F9E7A7
:1049D0005B46089AFBF7C2FB0B9B9B5C0A9A521E34
:1049E0000A92137050EA0102F2D10A98ADEB00006E
:1049F00000F1200B600702D524F4803401E04FF071
:104A00000109D94502DDA9EB0B0000E0002000EB15
:104A10000B0141440890AAEB010AE00306D4DDE94A
:104A20000F232146504600F063F806444FF000097A
:104A300008E009A911F80900DDE90F12904709F112
:104A40000109761CC145F4DBE0030CD5DDE90F2339
:104A50002146504600F04CF8064404E0DDE90F1210
:104A600030209047761C0899481E08900029F5DCF4
:104A700008E00A980A990078491C0A91DDE90F12AA
:104A80009047761CBBF10001ABF1010BF1DC214634
:104A90005046DDE90F2300F019F806446D1C1BE6B3
:104AA0000928010030313233343536373839616204
:104AB00063646566000000003031323334353637C8
:104AC0003839414243444546000000002DE9F04199
:104AD000044600251E461746880404D405E03946DE
:104AE0002020B0476D1C641EF9D52846BDE8F08132
:104AF0002DE9F041044600251E469046C80301D525
:104B0000302700E02027880404D505E041463846D8
:104B1000B0476D1C641EF9D52846BDE8F081000041
:104B2000D0B501F0BBF9044600BF1848006818B1C1
:104B3000214617A0FFF746FB00BFFCF76FFF40219F
:104B40001648FCF7DAFE4FF47A7001F027FEFDF705
:104B5000ABFDD020FBF701FE1149087000BF0B48E8
:104B6000006820B1084601780EA0FFF72BFB00BFBC
:104B7000FCF71AFF0646FCF7F5FE074639463046B5
:104B8000FBF7C4FF00BF00BFD0BD00007C000020C9
:104B900074696D653A2025640A0000000008014030
:104BA0002E050020424D503138305F49443D307869
:104BB00025783B0D0A000000F0B532E010F8015BEB
:104BC00000232CE01678F41116787606360E16704F
:104BD000567806F080061EB1167846F0010616706B
:104BE00056787606360E5670967806F080061EB118
:104BF000567846F00106567096787606360E967010
:104C000005F00106A64207D0967886F05B069670FE
:104C1000567886F0060656705E1CF3B26D10082BAF
:104C2000D0DB0E00A1F10107F9B2C7D1F0BD2DE92B
:104C3000F04704460F469046F81EC6B2A219314608
:104C40002046FFF7B9FF002507E0A05D01F0DCFF7B
:104C5000A055681CC5B2701CC6B2032DF5DB4046DA
:104C600000F02CF881464A463946204600F00CF800
:104C7000002505E0605D01F0C7FF6055681CC5B206
:104C8000BD42F7DBBDE8F08730B50B4610E00121EF
:104C90000BE002F0800424B182F0110204784C4051
:104CA00004705406220E4C06210E0029F1D1401C3E
:104CB0001C00A3F10105EBB2E9D130BD00B50346FC
:104CC000184601F0A1FF40F0020000BD2DE9F041BF
:104CD0002349002248681146FBF798FA06463568D2
:104CE000776800BF1F48006828B13B462A46314616
:104CF0001DA0FFF767FA00BF00BF85F3088800BF5B
:104D0000B84600241CE060B2002817DB00F01F0248
:104D1000012191401F4A430942F8231000BF00BF00
:104D200000BFBFF34F8F00BF00BF00BF00BF00BF79
:104D300000BFBFF36F8F00BF00BF00BF00BF641C88
:104D4000802CE0D3FFF7A6FCC04713A34FF4D87222
:104D5000164917A0FFF77EFC0020BDE8F081000097
:104D6000D00800207C000020626F6F742066726F94
:104D70006D203078253038782C2073703A203078C8
:104D8000253038783B2070633A20307825303878E9
:104D90000A00000080E100E06173736572742028EE
:104DA0003029206661696C6564210A00257000085D
:104DB0006472697665725C7368656C6C5C73686557
:104DC0006C6C2E63000000002DE9F04100271249B1
:104DD000002248681146FBF719FA05460E490022E1
:104DE00088681146FBF712FA0646002403E055F8DE
:104DF00024000744641CB442F9D300BF074800688C
:104E000030B105EB86023B46294605A0FFF7DAF9EB
:104E100000BF0020BDE8F081D00800207C00002009
:104E20005B3078253038782C203078253038785D24
:104E300020636865636B73756D3A20307825303870
:104E4000780A00002DE9FF5F5249002248681146A8
:104E5000FBF7DCF981464F49002288681146FBF7D1
:104E6000D5F907464E464FEA171A07F00F0800BF5C
:104E70004948006818B1314648A0FFF7A3F900BFC0
:104E800000253AE000240FE004EB0510305C0DF83B
:104E9000040000BF4048006820B11DF8041042A083
:104EA000FFF790F900BF641C102CEDD300BF3A4807
:104EB000006810B13EA0FFF785F900BF00240EE0A6
:104EC00000BF3548006840B11DF8040000F0E6FB63
:104ED0008346594637A0FFF775F900BF641C102CB4
:104EE000EED300BF2C48006828B1681C06EB001107
:104EF00031A0FFF767F900BF6D1C5545C2D3B8F16B
:104F0000000F3BD000241CE044450ED204EB0510FA
:104F1000305C0DF8040000BF1F48006820B11DF888
:104F2000041028A0FFF74EF90AE020200DF8040035
:104F300000BF1948006810B124A0FFF743F900BF73
:104F4000641C102CE0D300BF1348006810B118A0F7
:104F5000FFF738F900BF00240EE000BF0E480068DC
:104F600040B11DF8040000F099FB8346594611A09A
:104F7000FFF728F900BF641C102CEED300BF0648D1
:104F8000006810B112A0FFF71DF900BF002004B0A7
:104F9000BDE8F09FD00800207C0000205B30782521
:104FA0003038785D3A20000025303278200000004B
:104FB00020200000256300000A5B30782530387817
:104FC0005D3A200030782530327820002020200003
:104FD0000A0000002DE9F0412049002248681146EE
:104FE000FBF714F906461D49002288681146FBF7B5
:104FF0000DF90746354600BF1948006818B1294623
:1050000018A0FFF7DFF800BF002419E000BF144824
:10501000006830B12046641C55F8201014A0FFF73A
:10502000D1F800BF64B104F0030048B900BF0C48D8
:10503000006820B105EB84010FA0FFF7C3F800BFA3
:10504000BC42E3D300BF0648006810B10EA0FFF7D2
:10505000B9F800BF0020BDE8F0810000D0080020B2
:105060007C0000205B3078253038785D3A200000E5
:1050700030782530387820000D0A5B3078253038BC
:10508000785D3A20000000000A0000002DE9FE4F84
:105090001D49002248681146FBF7B8F805461A4931
:1050A000002288681146FBF7B1F8814616490022B4
:1050B000C8681146FBF7AAF882461349002208691E
:1050C0001146FBF7A3F806460F490022486911462E
:1050D000FBF79CF8074645F001083B46324651462F
:1050E0004846C047044600BF0848006840B15346E0
:1050F0004A46294606A0CDE900670294FFF762F808
:1051000000BF2046BDE8FE8FD00800207C000020B4
:105110006578656375746520307825782028307847
:10512000257820307825782030782578203078252B
:1051300078292072657475726E20307825780A009F
:105140002DE9F0411449002248681146FBF75EF84A
:1051500006461149002288681146FBF757F80746B2
:105160000D490022C8681146FBF750F80546344641
:105170000DE02068A84209D100BF0848006820B1AE
:105180002A46214606A0FFF71DF800BF241DBC4299
:10519000EFD30020BDE8F081D00800207C00002083
:1051A0005B3078253038785D3A2030782530387893
:1051B0000A0000002DE9F041184900224868114614
:1051C000FBF724F806461549002288681146FBF7CC
:1051D0001DF8074611490022C8681146FBF716F86A
:1051E000054600BF0E48006828B12B463A463146B6
:1051F0000CA0FEF7E7FF00BF2A463946304600F014
:1052000021FB04463CB100BF0548006810B10EA068
:10521000FEF7D8FF00BF0020BDE8F081D0080020D5
:105220007C000020666C6173685F7772697465202A
:10523000307825303878203078253038782030782C
:10524000253038780A000000666C61736820777238
:10525000697465206661696C0A0000002DE9FF41F0
:10526000002000900190029003902D490022486890
:105270001146FAF7CBFF07462949002288681146F4
:10528000FAF7C4FF05461DB9002004B0BDE8F0815F
:10529000042D01D8284601E005F00300054600244E
:1052A0000AE0E11C1E4A52F8210000221146FAF7DA
:1052B000ADFF4DF82400641CAC42F2D3AA0069464D
:1052C000384600F0BFFA064646B100BF15480068F0
:1052D00018B1394614A0FEF775FF00BF00BF114892
:1052E000006818B1394617A0FEF76CFF00BF002414
:1052F0000AE000BF0B48006820B157F8241014A042
:10530000FEF760FF00BF641CAC42F2D300BF05484B
:10531000006810B110A0FEF755FF00BF0020B4E7F1
:10532000D00800207C000020666C617368207772D2
:1053300069746520307825303878206661696C0A98
:10534000000000005B3078253038785D3A000000BE
:1053500030782530387820000A000000F8B500F0D9
:10536000B5FE3D49886800F09FFD04463CB93A48C7
:1053700081683AA0FEF726FF4FF0FF30F8BD3649AE
:1053800048683CA1FAF734FF002832D13248C0689F
:1053900028B93AA0FEF716FF4FF0FF30EEE72E498E
:1053A000C8683EA1FAF724FF08B904250FE02A498E
:1053B000C8683BA1FAF71CFF08B9102507E026488A
:1053C000C16838A0FEF7FEFE4FF0FF30D6E701219E
:1053D000A068FDF7E9F8208A80B2ADF800008DF8EA
:1053E000035003208DF802006946E068FCF7EFF9EE
:1053F00027E01949486830A1FAF7FAFE50B9228A25
:1054000091B2E068FCF76EFA064631462CA0FEF732
:10541000D9FE16E0104948682FA1FAF7E9FE80B9D5
:105420000D49C8682EA1FAF7E3FE28B9228A91B285
:10543000E068FCF760FA04E0228A91B2E068FCF7C9
:105440005CFA00BF2748006810B127A0FEF7BAFE3B
:1054500000BF002092E70000D0080020756E6B6E40
:105460006F776E206770696F206E756D205B257396
:105470005D0A0000696E6974000000006770696F62
:1054800020696E6974205B6770696F5F6E756D5D12
:10549000205B696E7C6F75745D0A0000696E0000A8
:1054A0006F757400756E6B6E6F776E206D6F6465CF
:1054B000205B25735D0A00007265616400000000D6
:1054C0006770696F20726561642072657475726EB1
:1054D0002025640A000000007772697465000000EE
:1054E000300000007C0000200A00000010B50024FD
:1054F00012E000BF0A48006860B104EB4400094BA9
:1055000003EB8000826804EB440053F8201006A0EF
:10551000FEF758FE00BF641C0E2CEAD3002010BD1D
:105520007C0000209800002025733A090925730AA1
:105530000000000010B51549486815A1FAF758FE9B
:10554000D0B9FCF775FD0BE000BF1348006810B13F
:1055500012A0FEF737FE00BF4FF4FA7001F01EF9FB
:10556000FCF73EFD0028EFD100BF0B48006810B1EA
:1055700010A0FEF727FE07E00449486812A1FAF7D9
:1055800037FE08B901F028F910BD0000D00800204E
:10559000696E6974000000007C0000206E72663243
:1055A000346C30312070726F6265206572720D0A42
:1055B000000000006E726632346C30312070726F01
:1055C0006265206F6B0D0A00626C650070B50E4954
:1055D000002248681146FAF719FE044600BF0B483E
:1055E000006818B121460AA0FEF7ECFD00BF25684F
:1055F00000BF0648006818B1294608A0FEF7E2FD82
:1056000000BF002070BD0000D00800207C000020FA
:105610005B307825785D3A200000000030782578EE
:105620000A00000010B503490348006801F018FBA8
:1056300010BD0000D0080020940000202DE9F041AA
:1056400014480068022803D84FF0FF30BDE8F0810D
:1056500010480068861E102E01D8304600E0102049
:1056600006460D49002248681146FAF7CFFD054667
:1056700000240BE0A11C084A52F821000022114628
:10568000FAF7C4FD074645F82470641CB442F1D310
:105690000020DBE794000020D008002001462029EC
:1056A00003DB7E2901DC084670472E20FCE7000062
:1056B0000EB51648006820B9FBF72EFB01201349F0
:1056C000086021E001A8FBF781FB012810D100BF91
:1056D0000F48006858B19DF8070000909DF806300B
:1056E0009DF805209DF804100AA0FEF76BFD07E069
:1056F00000BF0748006810B111A0FEF763FD00BFAE
:105700004FF47A7001F04AF8DCE700000805002049
:105710007C00002064687431313A2068756D6964DA
:105720006974793A2025642E25643B2074656D7078
:10573000657261747572652025642E2564200A00E7
:1057400052656164204448543131204552524F52D1
:10575000210D0A000C48006820B9FBF7D9FB012095
:10576000094908600FE000BF0848006830B1FBF746
:1057700093FB0446214606A0FEF724FD00BF4FF42C
:10578000FA6001F00BF8EEE7140500207C00002021
:10579000647331386232302074656D703A2025644C
:1057A0000A0000001FB515A30FCB8DE80F0000F015
:1057B00033FB044600BF1548006818B1214614A009
:1057C000FEF700FD00BF34B1012C05D0022C04D03F
:1057D000032C0FD102E00EE00DE00CE000BF0B48FF
:1057E000006810B10FA0FEF7EDFC00BF684601F0A5
:1057F00063F900BF00BF00BF1FBD0000626F6F7480
:105800002030783038303045303030007C00002097
:1058100073797374656D20636F6E6669673A2025CE
:10582000640A0000626F6F74696E67207468652097
:105830006261647573622073797374656D2E2E2EA8
:105840000A0000002DE9F74F88B00546164600BF54
:10585000F248006850B1F24909982B461722CDE969
:1058600001610090EF49F0A0FEF7ACFC00BF6EB9FB
:1058700000BFEA480068022802D3F4A0FEF7A2FCA9
:1058800000BF4FF0FF300BB0BDE8F08FB5F1006FF7
:1058900003D3A819F149884210D900BFDF48006836
:1058A000022807D3ED48AA19C30229460090ECA0AC
:1058B000FEF788FC00BF4FF0FF30E4E7FBF768FF1E
:1058C0003420FBF7DFFEC5F3090ABAF1000F77D0E9
:1058D00000BFD248006818B15146F0A0FEF772FC34
:1058E00000BFDFF83C8340460790099805900024EC
:1058F00007E0C5F30900281A50F8240048F82400EE
:10590000641CFF2CF5D9C5F30901681AFBF7C0FE2A
:105910008146CAF58060B04201D3304601E0CAF545
:1059200080600390002406E00598015D0AEB040204
:1059300007988154641C03988442F5D3002441E005
:10594000C5F30902AA1A02EB840058F82410FBF7E9
:10595000E9FE8146B9F1040F11D000BFAF480068DD
:1059600002280AD3C5F30900281A00EB840158F86D
:1059700024204B46CEA0FEF725FC00BF49E1C5F32D
:105980000900281A50F82400069058F8241088427C
:1059900017D000BFA148006802280FD358F8240090
:1059A00008EB8401CDE90010C5F30900281A00EBCB
:1059B00084025421C9A0069BFEF704FC00BF28E125
:1059C00010E0641CFF2CBBD9A819401EA919491E60
:1059D000C1F30901401AC5F30901691A884201D1CE
:1059E000002050E7A819C0F309005FEA000A7CD044
:1059F00000BF8A48006818B15146C6A0FEF7E2FB16
:105A000000BFDFF81C824046079009983044A0EBA5
:105A10000A000590002409E0A819A919C1F3090199
:105A2000401A50F8240048F82400641CFF2CF3D9D5
:105A3000A919AA19C2F30902881AFBF729FE81469F
:105A4000002404E00598015D07980155641C544545
:105A5000F8D300244BE0AA19AB19C3F30903D21AF7
:105A600002EB840058F82410FBF75CFE8146B9F184
:105A7000040F15D000BF6948006802280ED3A8198A
:105A8000A919C1F30901401A00EB8402CDF8009076
:105A900058F824307821A4A0FEF794FB00BFB8E0AA
:105AA000A819A919C1F30901401A50F82400069059
:105AB00058F82410884219D000BF584800680228BE
:105AC00011D358F8240008EB8401CDE90010A8197F
:105AD000A919C1F30901401A00EB84027E217FA0BD
