:020000040800F2
:1000000000040020470100087D0200087F0200086C
:1000100083020008870200088B020008000000002D
:100020000000000000000000000000008F02000837
:1000300091020008000000009302000895020008E9
:1000400067010008670100086701000867010008F0
:1000500067010008670100086701000867010008E0
:1000600067010008670100086701000867010008D0
:1000700067010008670100086701000867010008C0
:1000800067010008670100086701000867010008B0
:1000900067010008670100086701000867010008A0
:1000A0006701000867010008670100086701000890
:1000B0006701000867010008670100086701000880
:1000C0006701000867010008670100086701000870
:1000D0006701000867010008FD03000867010008C8
:1000E0006701000867010008670100086701000850
:1000F0006701000867010008670100086701000840
:10010000670100086701000867010008670100082F
:10011000670100086701000867010008670100081F
:10012000670100086701000867010008670100080F
:10013000DFF80CD001F06CFC004800471F020008FB
:10014000E0080020704708488047084981F3088884
:1001500007480047FEE7FEE7FEE7FEE7FEE7FEE7AB
:10016000FEE7FEE7FEE7FEE745010008E0080020A5
:1001700031010008002107E0002200E0521C42F695
:10018000E0639A42FAD3491C8142F5D3704710B517
:1001900088B000240CE0304830F8140040F22531DB
:1001A00048434FF47A7190FBF1F04DF82400641C41
:1001B000082CF0D3002408E05DF82420274850F8EC
:1001C000241027A001F092FC641C082CF4D300201A
:1001D00008B010BD0BE04FF47A7105E0482200E052
:1001E000521E002AFCD1491E0029F7D1401E0028CA
:1001F000F1D1704708B50121082000F0FDFF4FF450
:100200004050ADF8000010208DF8030003208DF859
:1002100002006946164800F053FD002008BD01F0B9
:10022000E7FA00F04CF8FFF7E5FF124912A001F0E1
:100230005DFC0FE04FF480510D4800F0EEFD3220E0
:10024000FFF7C8FF4FF48051094800F0E8FD322065
:10025000FFF7C0FFEEE7000050060020000000207E
:10026000502558203D202564206D560D0A000000C1
:10027000000C0140D800002025730A00704700BF21
:10028000FEE700BFFEE700BFFEE700BFFEE77047E6
:10029000704770477047000008B54FF4A06001F048
:1002A000C7F926208DF8000001208DF801008DF897
:1002B00002008DF80300684601F0BFF908BD00B5E3
:1002C00085B00121042000F097FF0121480400F0CF
:1002D000A0FF0420ADF8100018208DF813000320B3
:1002E0008DF8120004A96F4800F0EAFC0820ADF870
:1002F000100004208DF8130004A96A4800F0E0FC07
:100300004FF4E13000900020ADF80400ADF8060095
:10031000ADF80800ADF80C000C20ADF80A006946F5
:10032000614801F016F8FFF7B7FF012240F22551AE
:100330005D4801F088F801215B4801F078F805B0CC
:1003400000BD70B505460C460A2C0AD10D21284681
:1003500001F0D5F800BF8021284601F027F90028D8
:10036000F9D02146284601F0CAF800BF802128466E
:1003700001F01CF90028F9D070BD70B506460C4696
:10038000002500BF615D3046FFF7DBFF6D1C605D3F
:100390000028F7D100BF4021304601F007F90028BE
:1003A000F9D070BD2DE9F04105460C46260AE7B2AA
:1003B0003146284601F0A3F800BF8021284601F00D
:1003C000F5F80028F9D03946284601F098F800BF22
:1003D0008021284601F0EAF80028F9D0BDE8F08134
:1003E00010B5044621463048FFF7ABFF10BD10B5ED
:1003F000044621462C48FFF7C0FF10BD10B52A481F
:1004000001F081F8C4B20A2C00D110BD2748006861
:10041000FF2808D10D2C06D025A0FFF7E8FF00200B
:1004200022490860F1E70D2C0BD1002024491F4A16
:1004300012688854084600F049FB00201B490860F8
:10044000E3E71F49194A12688C5418480068401C99
:100450001649086021461BA001F048FB00BFD4E705
:1004600010B5FFF72CFF10BD70B504460D460A2CE1
:100470000AD10D210C4801F042F800BF0A4800885B
:1004800000F080000028F9D0E1B2074801F037F809
:1004900000BF0548008800F080000028F9D0204601
:1004A00070BD000000080140004400400801002029
:1004B000636D6420746F6F206C6F6E67210A00009B
:1004C000500500202563000070B5F84900224868F7
:1004D000114601F0DEF9044600BFF548006818B186
:1004E0002146F4A001F002FB00BF256800BFF048E0
:1004F000006818B12946F2A001F0F8FA00BF002008
:1005000070BD2DE9F041F0480068022803D84FF093
:10051000FF30BDE8F081EC480068861E102E01D83F
:10052000304600E010200646E049002248681146A7
:1005300001F0AFF9054600240BE0A11CDB4A52F89C
:1005400021000022114601F0A4F9074645F8247065
:10055000641CB442F1D30020DBE72DE9FE4FD34900
:1005600000224868114601F094F90546CF4900225F
:100570008868114601F08DF98146CC490022C8688F
:10058000114601F086F98246C849002208691146E1
:1005900001F07FF90646C54900224869114601F07D
:1005A00078F9074645F001083B4632465146484631
:1005B000C047044600BFBE48006840B153464A46A3
:1005C0002946C2A0CDE90067029401F08FFA00BF6E
:1005D0002046BDE8FE8F2DE9F041B449002248686D
:1005E000114601F056F90646B049002288681146C6
:1005F00001F04FF90746354600BFAD48006818B115
:100600002946BEA001F072FA00BF002419E000BF25
:10061000A748006830B12046641C55F82010BAA0E5
:1006200001F064FA00BF64B104F0030048B900BFF0
:100630009F48006820B105EB8401B5A001F056FA8F
:1006400000BFBC42E3D300BF9948006810B19DA031
:1006500001F04CFA00BF0020BDE8F08101462029DE
:1006600003DB7E2901DC084670472E20FCE72DE9DC
:10067000FF5F8E4900224868114601F00AF9814661
:100680008A4900228868114601F003F907464E4660
:100690004FEA171A07F00F0800BF8548006818B125
:1006A000314696A001F022FA00BF00253AE000246E
:1006B0000FE004EB0510305C0DF8040000BF7C482F
:1006C000006820B11DF8041095A001F00FFA00BFDA
:1006D000641C102CEDD300BF7548006810B192A0C7
:1006E00001F004FA00BF00240EE000BF704800686B
:1006F00040B11DF80400FFF7B1FF834659468BA0B7
:1007000001F0F4F900BF641C102CEED300BF684860
:10071000006828B1681C06EB001185A001F0E6F91D
:1007200000BF6D1C5545C2D3B8F1000F3BD000246B
:100730001CE044450ED204EB0510305C0DF80400BB
:1007400000BF5B48006820B11DF804107BA001F0D9
:10075000CDF90AE020200DF8040000BF54480068DD
:1007600010B178A001F0C2F900BF641C102CE0D3D6
:1007700000BF4F48006810B16BA001F0B7F900BF8F
:1007800000240EE000BF4A48006840B11DF8040094
:10079000FFF764FF8346594664A001F0A7F900BF44
:1007A000641C102CEED300BF4148006810B145A076
:1007B00001F09CF900BF002004B0BDE8F09F70B5C7
:1007C00005460DB9002070BD00240FE004EB840144
:1007D0005D4A02EB8100294601F04DF828B904EB8F
:1007E0008400594901EB8000EDE7641C302CEDD307
:1007F0000020E8E7F8B52D498868FFF7E0FF0446D8
:100800003CB92A48816851A001F070F94FF0FF30DF
:10081000F8BD2649486853A101F02DF8002832D1CF
:100820002248C06828B951A001F060F94FF0FF30AC
:10083000EEE71E49C86855A101F01DF808B9042566
:100840000FE01A49C86852A101F015F808B910253F
:1008500007E01648C1684FA001F048F94FF0FF309B
:10086000D6E70121A06800F0C7FC208A80B2ADF86D
:1008700000008DF8035003208DF802006946E068FF
:1008800000F01EFAB7E00949486847A100F0F3FFFD
:1008900050B9228A91B2E06800F0A5FA06463146C6
:1008A00043A001F023F9A6E08EE0000060060020DE
:1008B000100100205B307825785D3A2000000000B0
:1008C000307825780A0000001C01002065786563F7
:1008D0007574652030782578202830782578203088
:1008E000782578203078257820307825782920726E
:1008F000657475726E20307825780A005B30782533
:100900003038785D3A200000307825303878200083
:100910000D0A5B3078253038785D3A200000000001
:1009200025303278200000002020000025630000E0
:100930000A5B3078253038785D3A200030782530F1
:10094000327820002020200074010020756E6B6E2C
:100950006F776E206770696F206E756D205B2573F1
:100960005D0A0000696E6974000000006770696FBD
:1009700020696E6974205B6770696F5F6E756D5D6D
:10098000205B696E7C6F75745D0A0000696E000003
:100990006F757400756E6B6E6F776E206D6F64652A
:1009A000205B25735D0A0000726561640000000031
:1009B0006770696F20726561642072657475726E0C
:1009C0002025640A000000007149486871A100F008
:1009D00052FF80B96E49C86870A100F04CFF28B979
:1009E000228A91B2E06800F01AFA04E0228A91B2F9
:1009F000E06800F012FA00BF6948006818B1AFF271
:100A00003C1001F073F800BF002001E710B500248E
:100A100012E000BF6248006860B104EB4400614B23
:100A200003EB8000826804EB440053F820105EA0C2
:100A300001F05CF800BF641C072CEAD3002010BD55
:100A400070B505468021524800F003FF00260024BF
:100A500015E000E0641C285D2028FBD02A193046F0
:100A6000761C4B4941F82020202E00D10AE000E0FE
:100A7000641C285D202802D0285D0028F8D1285D5C
:100A80000028E6D100BF4B480660002405E0285D41
:100A9000202801D100202855641C285D0028F6D1AB
:100AA00070BD70B5054600240BE004EB44013D4ADF
:100AB00052F82100294600F0DEFE08B9204670BD3C
:100AC000641C072CF1D34FF0FF30F8E72DE9F0411B
:100AD00006460025304600F0C7FE07460FB900BFA6
:100AE00031E000BF2E48006818B1AFF2282000F0B6
:100AF000FDFF00BF3046FFF7A3FF25490868FFF759
:100B0000D0FF0446401C60B900BF2548006820B1F2
:100B10001F48016828A000F0E9FF00BF4FF0FF3533
:100B200011E004EB44011F4A02EB81014868804751
:100B3000054600BF1A48006818B1294623A000F0F6
:100B4000D5FF00BF00BF00BF1548006810B123A04B
:100B500000F0CCFF00BF2348006850B1012811D13C
:100B600000BF0F48006810B11FA000F0BFFF00BF1A
:100B700009E000BF0A48006810B11CA000F0B6FFF1
:100B800000BF00E000BF00BF2846BDE8F0810000C4
:100B90006006002077726974650000003000000074
:100BA000100100202001002025733A090925730A4D
:100BB000000000001C010020696C6C6567616C20FE
:100BC000636D64205B25735D200A00007265747597
:100BD000726E20307825780A000000000A415445E2
:100BE00000000000140100203E000000240000006E
:100BF00010B50446C649601A8C422FD009DCC5489E
:100C0000204480B1B0F5806F16D0B0F5006F4AD1A6
:100C10001BE0B0F5806F2AD0B0F5006F30D0B0F592
:100C2000406F40D135E00121042000F0FFFA00219F
:100C3000042000F0FBFA37E00121082000F0F6FA6A
:100C40000021082000F0F2FA2EE00121102000F02F
:100C5000EDFA0021102000F0E9FA25E00121202022
:100C600000F0E4FA0021202000F0E0FA1CE001216D
:100C7000402000F0DBFA0021402000F0D7FA13E01A
:100C80000121802000F0D2FA0021802000F0CEFA6D
:100C90000AE00121080200F0C9FA00214FF4807037
:100CA00000F0C4FA00E000BF00BF10BD10B5012184
:100CB000084600F0BBFA0021012000F0B7FA10BD91
:100CC0002DE9F041024600250026002000230024E3
:100CD000002791F803C00CF00F0591F803C00CF049
:100CE000100CBCF1000F03D091F802C04CEA0505CE
:100CF00091F800C0BCF1000F31D0146800202BE047
:100D00004FF0010C0CFA00F3B1F800C00CEA030636
:100D10009E4220D183004FF00F0C0CFA03F7BC4326
:100D200005FA03FC4CEA040491F803C0BCF1280F57
:100D300006D14FF0010C0CFA00FCC2F814C00AE016
:100D400091F803C0BCF1480F05D14FF0010C0CFA2B
:100D500000FCC2F810C0401C0828D1D31460B1F8C0
:100D600000C0BCF1FF0F34DD546800202EE000F11C
:100D7000080C4FF0010808FA0CF3B1F800C00CEAB7
:100D800003069E4221D183004FF00F0C0CFA03F7AB
:100D9000BC4305FA03FC4CEA040491F803C0BCF11F
:100DA000280F05D100F1080C08FA0CF8C2F81480DD
:100DB00091F803C0BCF1480F07D100F1080C4FF0C7
:100DC000010808FA0CF8C2F81080401C0828CED39D
:100DD0005460BDE8F0814FF6FF71018002218170FF
:100DE0000421C17070470246002093680B400BB18C
:100DF000012000E0002070470146886880B27047FB
:100E000002460020D3680B400BB1012000E0002017
:100E100070470146C86880B2704701617047416100
:100E200070470AB1016100E041617047C1607047DD
:100E30004FF480320A4382618161826182698269F2
:100E4000704702460020344B18684FF680731840F4
:100E500040EA02100843304B186070472F49C861C0
:100E60007047F0B50A4600230024002100252A4ED1
:100E70007168C0F3034583B200F44016B6F5401F15
:100E800008D121F07061244E766826F07066224FFA
:100E90007E6012E000F48016B6F5801F06D10326AE
:100EA00006FA05F4A14341F0706106E0460D3601F3
:100EB00003FA06F6B14341F0706122B1460D3601E6
:100EC00003FA06F63143144E7160F0BD30B50022CE
:100ED0008B071C0F0F2303FA04F20F4B08338C10FF
:100EE00053F8243093430C4C08348D1044F82530CB
:100EF00023468C1053F824308C07240F00FA04F496
:100F00002343054C08348D1044F8253030BD0000D3
:100F10000014014000F8FEBF000001400000204224
:100F2000DE48006840F00100DC490860084640687F
:100F3000DB490840D949486008460068D94908405B
:100F4000D64908600846006820F4802008600846FA
:100F5000406820F4FE004860002088607047CF4958
:100F6000096821F48031CD4A11601146096821F4E5
:100F700080211160B0F5803F03D0B0F5802F0ED1F5
:100F800006E0C649096841F48031C44A116007E0AF
:100F9000C249096841F4A021C04A116000E000BFC5
:100FA00000BF704710B501460022002300204A11FF
:100FB000012A02D1B94C236806E0022A02D1B74CBB
:100FC000236A01E0B54C636A01F01F0201249440DA
:100FD0001C400CB1012000E0002010BD38B50020FD
:100FE00000900024002500BF3120FFF7DBFF0546FD
:100FF0000098401C00901DB90098B0F5A06FF3D187
:101000003120FFF7CFFF08B1012400E00024204683
:1010100038BD01460020A14A106820F0F80040EADF
:10102000C10010607047A049086070470246002068
:101030009A4B586820F47C1042EA01031843974BFE
:101040005860704798490866704701460020934AE7
:10105000506820F003000843506070478F48406894
:1010600000F00C007047014600208C4A506820F0C8
:10107000F00008435060704701460020874A5068DE
:1010800020F4E06008435060704701460020834A26
:10109000506820F4605040EAC1005060704729B1A8
:1010A0007E4A527A02437D4B5A7204E07B4A527A5E
:1010B00082437A4B5A7270477B49D8310860704737
:1010C00001460020754A506820F4404008435060B3
:1010D00070470021714A20321170704A82F8201046
:1010E000012802D004280AD104E001216B4A2032F1
:1010F000117005E00521694A2032117000E000BF3F
:1011000000BF70476949086070476449096A014334
:10111000624A11627047654944390860704730B5CA
:1011200000210022002400235C4D6D6805F00C01B5
:1011300021B1042905D0082923D105E05C4D0560C3
:1011400022E05B4D05601FE0544D6D6805F47012A0
:10115000022505EB9242514D6D6805F480341CB9AF
:10116000544D554305600BE04C4D6D6805F400355A
:101170001DB1504D5543056002E04D4D554305608E
:1011800002E04B4D056000BF00BF444D6D6805F0A7
:10119000F0010909484D6B5C0568DD4045603F4D35
:1011A0006D6805F4E061090A434D6B5C4568DD40FC
:1011B00085603A4D6D6805F46051C90A3E4D6B5C1F
:1011C0004568DD40C560354D6D6805F44041890BCB
:1011D0003A4D6B5CC568B5FBF3F5056130BD29B1CF
:1011E0002E4A526902432D4B5A6104E02B4A526940
:1011F00082432A4B5A61704729B1284A92690243B7
:10120000264B9A6104E0254A92698243234B9A61F6
:10121000704729B1214AD2690243204BDA6104E0C8
:101220001E4AD26982431D4BDA61704729B11B4ABD
:10123000D2680243194BDA6004E0184AD26882434C
:10124000164BDA60704729B1144A12690243134BF6
:101250001A6104E0114A12698243104B1A61704707
:1012600012494039086070470F49C86470470B49FC
:10127000C87170470948406A40F080700749486269
:10128000704701460020054A92680A400AB10120D1
:1012900000E000207047014988727047001002404A
:1012A0000000FFF8FFFFF6FE0000424280044242C9
:1012B00000127A0000093D0034050020440500209A
:1012C00010B50446D749601A8C422BD006DCD648AC
:1012D000204498B1B0F5806F38D119E0B0F5806F37
:1012E0002AD0B0F56C4F31D101218803FFF79EFF62
:1012F00000214FF48040FFF799FF28E001214804C6
:10130000FFF7A1FF00214FF40030FFF79CFF1EE024
:1013100001218804FFF797FF00214FF48020FFF799
:1013200092FF14E00121C804FFF78DFF00214FF464
:101330000020FFF788FF0AE001210805FFF783FF7F
:1013400000214FF48010FFF77EFF00E000BF00BFD8
:1013500010BD2DE9F04786B005460E460024A24692
:1013600000BF00BF00272F462C8A4CF6FF700440B8
:10137000F08804432C82AC894EF6F3100440B08808
:1013800031890843718908430443AC81AC8A4FF624
:10139000FF400440B0890443AC8201A8FFF7BFFEC0
:1013A000A248874202D1DDF810A001E0DDF80CA0D0
:1013B0000AEBCA0000EB0A1031688900B0FBF1F8B3
:1013C0006420B8FBF0F004012009642101FB1089BE
:1013D000322000EB0910B0FBF1F000F00F000443E5
:1013E0002C8106B0BDE8F0874FF416510160002152
:1013F0008180C18001810C21418100218181704760
:1014000010B502460020108A4FF2FF0318400B88E7
:101410004C8823438C882343CC8823431843108271
:1014200010BD0021018041808180C180704721B1C1
:10143000828942F40052828104E082894DF6FF7372
:101440001A4082817047F0B503460024002600252B
:1014500000201846C1F3421401F01F06012707FAC5
:1014600006F5012C01D10C3004E0022C01D1103022
:1014700000E014301AB107682F43076002E00768E4
:10148000AF430760F0BD1AB1838A0B43838202E049
:10149000838A8B4383827047028A4FF6F0731A4027
:1014A0000282028A0A430282704782894FF2FF73E6
:1014B0001A40828182890A438281704721B18289E0
:1014C00042F00202828104E082894FF6FD731A40E5
:1014D00082817047028A4FF6DF731A400282028AC5
:1014E0000A430282704721B1028A42F4804202829A
:1014F00004E0028A4BF6FF731A4002827047C1F380
:1015000008028280704701468888C0F3080070474F
:10151000818941F0010181817047028BD2B202833F
:10152000028B42EA012202837047028B02F47F425F
:101530000283028B0A430283704721B1828A42F000
:101540002002828204E0828A4FF6DF731A40828290
:10155000704721B1828A42F01002828204E0828ABE
:101560004FF6EF731A408282704721B1828A42F0AF
:101570000802828204E0828A4FF6F7731A40828260
:101580007047828A4FF6FB731A408282828A0A432E
:101590008282704721B1828A42F00202828204E094
:1015A000828A4FF6FD731A408282704702460020FD
:1015B00013880B400BB1012000E000207047CA43A4
:1015C0000280704770B502460B46002400210025BA
:1015D0000020C3F3421503F01F01012606FA01F1B2
:1015E000012D02D19689314006E0022D02D1168AE2
:1015F000314001E0968A31401C12012606FA04F4BB
:101600001688344011B10CB1012000E0002070BDFB
:1016100010B5002200230A1201249440A3B2DC4337
:10162000048010BD004C004000BCFFBF00380140EA
:1016300031490143314A1160704770B500210023E0
:101640000F22C47804B32D4C246804F4E064C4F57C
:10165000E064210AC1F10403CA40447804FA03F1AA
:101660008478144021430901254C0678A15504785B
:1016700004F01F050124AC4005786D11AD0005F1A3
:10168000E025C5F8004109E0047804F01F050124B5
:10169000AC401C4D0678761145F8264070BD1A4ABC
:1016A0000A400243154B1B1F1A60704739B1134A99
:1016B000121D12680243114B1B1D1A6006E00F4AEF
:1016C000121D126882430D4B1B1D1A6070470428BF
:1016D00008D14FF0E021096941F004014FF0E02208
:1016E000116107E04FF0E021096921F004014FF09A
:1016F000E0221161704700000000FA050CED00E0E7
:1017000000E400E080E100E080FFFF1F0CB5002056
:10171000019000904748006840F4803045490860D7
:1017200000BF4448006800F4003000900198401C5D
:101730000190009818B90198B0F5A06FF1D13D481B
:10174000006800F4003010B10120009001E000209A
:1017500000900098012844D13748006840F01000FC
:10176000354908600846006820F003000860084614
:10177000006840F0020008602E4840682D4948602B
:101780000846406848600846406840F48060486009
:101790000846406820F47C1048600846406840F4E1
:1017A000E81048600846006840F08070086000BF9C
:1017B0002048006800F000700028F9D01D484068FB
:1017C00020F003001B4948600846406840F00200D2
:1017D000486000BF1748406800F00C000828F9D1A5
:1017E00001E000BFFEE70CBD10B5FFF78FFF10BD95
:1017F00010B51048006840F001000E490860084626
:1018000040680E4908400B494860084600680C498A
:101810000840084908600846006820F480200860F5
:101820000846406820F4FE00486000208860FFF70A
:10183000DBFF10BD00100240002002400000FFF856
:10184000FFFFF6FED2B201E000F8012B491EFBD2E9
:1018500070470022F6E710B513460A4604461946BB
:10186000FFF7F0FF204610BD421C10F8011B0029B5
:10187000FBD1801A704710B5002200E0521C835C37
:101880008C5CA34201D1002BF8D1D8B2E1B2401A4E
:1018900010BD2DE9F05F93460F46804604460026B2
:1018A00000F034F9D0F80090824614F8015B2DB1B5
:1018B00000F05AF80068405DC007F6D12B2D02D029
:1018C0002D2D1AD0641E0021CAF800105A46394640
:1018D000204600F04DF8014627B13868A04201D1FA
:1018E000C7F80080DAF80000022809D0CAF8009092
:1018F000700505D54842BDE8F09F46F48066E2E7F2
:101900000846F8E72DE9F05F0546002092469B4621
:1019100088460646814640241BE028464146474605
:10192000224600F096F853465A46C01A914110D309
:1019300011461846224600F07DF82D1A67EB010883
:101940004F4622460120002100F074F817EB0009F1
:101950004E41201EA4F10104DFDC484631462A46F0
:101960004346BDE8F09F000000487047182000087B
:101970002DE9F05F82460078002715468B460AF174
:101980000104B946302801D09DB113E014F8010BD1
:101990000127782803D0582801D045B10AE00DB1BD
:1019A000102D07D10027102514F8010B02E008259F
:1019B00000E00A250026B0460EE005FB080005FB06
:1019C00006F1012701EB10461FFA80F8B6F5803FBB
:1019D00000D3B94614F8010B294600F04AF8002854
:1019E000EBDABBF1000F05D00FB1641E00E05446E6
:1019F000CBF80040B9F1000F06D000F087F80221C3
:101A00000160C81EBDE8F09F48EA0640FAE7000002
:101A1000064C074D06E0E06840F0010394E807003B
:101A200098471034AC42F6D3FEF786FBC821000875
:101A3000E8210008202A04DB203A00FA02F1002005
:101A400070479140C2F1200320FA03F319439040FC
:101A50007047202A04DB203A21FA02F00021704767
:101A600021FA02F3D040C2F1200291400843194606
:101A700070473A2800D2303820F02002412A01D3A2
:101A8000A2F13700884201D34FF0FF30704770B5A4
:101A90008D1810F8014B14F0030201D110F8012B3E
:101AA000231106D110F8013B03E010F8016B01F897
:101AB000016B521EF9D1ABB110F8012B04F00C04EC
:101AC0008A1A0C2C03D0A2EB84129B1C08E010F89D
:101AD000014BA2EB0422F8E712F8014B01F8014B8D
:101AE0005B1EF9D5A942D4D3002070BD0FB4054BBD
:101AF00010B503A9044A029800F01CF810BC5DF868
:101B000014FB0000690400084805002000487047E5
:101B10004C05002002E008C8121F08C1002AFAD1B3
:101B200070477047002001E001C1121F002AFBD15D
:101B3000704700002DE9FF4F8DB00F460546002687
:101B400006E025280BD0DDE90F1290476D1C761CAE
:101B500028780028F5D111B03046BDE8F08F002478
:101B6000A246A1460122EC4900E0044315F8013FDA
:101B7000203B02FA03F00842F7D128782A2810D037
:101B80006FF02F022878A0F13001092914D80AEB50
:101B90008A0102EB410144F0020400EB010A6D1CD2
:101BA000F0E701CF5FEA000A03D544F40054CAF11C
:101BB000000A44F002046D1C28782E2817D115F86D
:101BC000010F44F004042A280ED06FF02F02287869
:101BD000A0F1300109290AD809EB890102EB410182
:101BE00000EB01096D1CF2E757F8049B6D1C287887
:101BF0006C280FD006DC4C2817D068280DD06A2836
:101C000014D104E0742810D07A280FD10DE044F4E8
:101C100000140AE044F4801401E044F440146978AC
:101C2000814202D104F580146D1C6D1C2A786E2A45
:101C30001FD00CDC632A31D004DC002A8BD0582A58
:101C400011D1A3E0642A68D0692A0CD165E0732A17
:101C50002ED004DC6F2A73D0702A04D19BE0752A41
:101C60006FD0782A6ED01046DDE90F129047761CAF
:101C700050E1C4F30250022806D0032809D00428FA
:101C800001CF09D0066045E101CFF117C0E900613D
:101C900040E101CF06803DE106703BE117F8040BFF
:101CA0008DF8000000208DF80100EB46012003E0D4
:101CB00057F804BB4FF0FF3061074FF0000102D42A
:101CC0000DE008F10101884649450FDA8045F8DB4F
:101CD0001BF808100029F4D108E008F1010188463A
:101CE0008142FADB1BF808100029F6D1DDE90F2349
:101CF000AAEB08008146214600F036F9304400EB9B
:101D0000080604E0DDE90F121BF8010B9047B8F15B
:101D10000108F7D221464846F7E00A21C4F30253EE
:101D20004FF0000B0891022B04D001CFC117032BF9
:101D300009D00AE0FF1D27F00707F7E8020108E0D5
:101D400032E01FE020E000B2C117042B01D140B205
:101D5000C117031E71F1000307DA4FF0000CD0EB3E
:101D60000C006CEB01012D2302E0230504D52B238D
:101D70008DF82430012303E0E30701D02023F7E7A7
:101D8000984658E00A2110E010210EE010204FF094
:101D9000000B08900CE010214FF0000B44F00404FD
:101DA0004FF00809089103E008214FF0000B08915B
:101DB000C4F30253022B04D001CF0021032B06D021
:101DC00006E0FF1D27F00707F7E8020103E080B2F5
:101DD000042B00D1C0B24FF0000823072BD5702A86
:101DE00007D0DDF820C08CF0100C5CEA0B0C05D09D
:101DF0000EE040238DF82430012308E050EA01036F
:101E000006D030238DF824308DF825200223984603
:101E1000DDF820C08CF0080C5CEA0B0C0BD150EA0A
:101E2000010301D1630706D530238DF824304FF02C
:101E30000108A9F10109582A04D038A20B9208AA76
:101E40000A920BE03AA2F9E75B46089AFFF75AFDBF
:101E50000B9B9B5C0A9A521E0A92137050EA010275
:101E6000F2D10A98ADEB000000F1200B600702D51B
:101E700024F4803401E04FF00109D94502DDA9EBDB
:101E80000B0000E0002000EB0B0141440890AAEB9E
:101E9000010AE00306D4DDE90F232146504600F095
:101EA00063F806444FF0000908E009A911F8090099
:101EB000DDE90F12904709F10109761CC145F4DBF9
:101EC000E0030CD5DDE90F232146504600F04CF825
:101ED000064404E0DDE90F1230209047761C089993
:101EE000481E08900029F5DC08E00A980A99007855
:101EF000491C0A91DDE90F129047761CBBF10001E5
:101F0000ABF1010BF1DC21465046DDE90F2300F077
:101F100019F806446D1C1BE60928010030313233E4
:101F20003435363738396162636465660000000015
:101F300030313233343536373839414243444546FF
:101F4000000000002DE9F041044600251E4617461A
:101F5000880404D405E039462020B0476D1C641E77
:101F6000F9D52846BDE8F0812DE9F0410446002569
:101F70001E469046C80301D5302700E0202788047C
:101F800004D505E041463846B0476D1C641EF9D5BE
:101F90002846BDE8F081004040404040404040407D
:101FA000414141414140404040404040404040402C
:101FB000404040404040400502020202020202024C
:101FC00002020202020202202020202020202020E3
:101FD0002002020202020202909090909090101053
:101FE00010101010101010101010101010101010F1
:101FF0001010020202020202888888888888080875
:102000000808080808080808080808080808080850
:102010000808020202024000971F000864756D70F4
:102020006200000068656C702020202020202020A5
:1020300020202020202020202020202020202020A0
:10204000202020202020202020207072696E742003
:10205000636D6420696E666F000000006770696FD1
:102060002020696E69747C726561647C7772697422
:1020700065205B5041302E2E2E5D20202020202018
:1020800020206374726C20616E79206770696F0024
:102090006770696F0000000068656C7000000000E8
:1020A0007220202020205B616464725D202020204B
:1020B0002020202020202020202020202020202020
:1020C0002020202020207265616420202020616E65
:1020D000792061646472000064756D7077205B61C3
:1020E0006464725D205B776F72645F6E756D5D20F6
:1020F0002020202020202020202020202020647547
:102100006D7020202020616E79206164647200006F
:1021100064756D7062205B616464725D205B6279DE
:1021200074655F6E756D5D202020202020202020AA
:1021300020202020202064756D7020202020616EDA
:1021400079206164647200007720202020205B6188
:102150006464725D205B646174615D2020202020D6
:1021600020202020202020202020202020207772C6
:10217000697465202020616E7920616464720000BA
:102180007820202020205B616464725D2020202064
:10219000202020202020202020202020202020203F
:1021A0002020202020206578656375746520616E8D
:1021B00079206164647200007200000064756D70C3
:1021C0007700000078000000E821000800000020EF
:1021D000500500008E1A0008102400085005002049
:1021E00090030000241B00081006A0000000A104BA
:1021F00012A20412A30412A40412A50412A604122B
:10220000A70412B00412B10412C00412C10412C215
:102210000412C30412C40412C50452FF0401564838
:1022200012F66012F76412F86812F96C52FA74E14F
:1022300048D2FF04101A4154452073797374656DB8
:10224000206275696C6474696D65205B31333A0393
:1022500090123232205365702032382032303138BB
:102260005D200001120404920110100EB821000834
:10227000C9040008A0200008C00C100603050008CF
:10228000481412C404125B0C12800C12BC2412D726
:102290000C12D824121C2810066F06000810181201
:1022A00090341006F50700085C3C12981C10060DCF
:1022B0000A0008242070045041306C2005000801F9
:1022C0004070B00450413114320214B23214219CD7
:1022D000B00450413314320814B23414321014B222
:1022E000351421E5B00450413614324014B237148D
:1022F000328014B238A02511C00450413914320282
:10230000B4B23014320414B23114320814B232149C
:10231000321014B23314322014B23414324014B2D6
:10232000351411A14750424021FC57000C40B342E4
:1023300031143540B34232143540B3423314354082
:10234000B34234143540B34235143540B3423614E9
:102350003540B34237143540B34238A03540C3420C
:1023600039142540464240711425404642407114BC
:102370002540464240711425404642407114254094
:102380004642407114254046424071142540464360
:1023900040292857001040B34331143540B343322D
:1023A000143540B34333143540B34334143540B38C
:1023B0004335143540B34336143540B343371435F1
:1023C00040B34338A03540C3433914254046434009
:1023D0007114254046434071142540464340711412
:1023E0002540464340711425404643407114254022
:1023F00046434071144E8028042005010203040462
:102400006C090607080902040608440400000000DD
:0400000508000147A7
:00000001FF
